{
  "_format": "hh-sol-artifact-1",
  "contractName": "Clicker",
  "sourceName": "contracts/Clicker.sol",
  "abi": [
    {
      "inputs": [],
      "stateMutability": "nonpayable",
      "type": "constructor"
    },
    {
      "inputs": [
        {
          "internalType": "address",
          "name": "owner",
          "type": "address"
        }
      ],
      "name": "OwnableInvalidOwner",
      "type": "error"
    },
    {
      "inputs": [
        {
          "internalType": "address",
          "name": "account",
          "type": "address"
        }
      ],
      "name": "OwnableUnauthorizedAccount",
      "type": "error"
    },
    {
      "anonymous": false,
      "inputs": [
        {
          "indexed": true,
          "internalType": "address",
          "name": "user",
          "type": "address"
        },
        {
          "indexed": false,
          "internalType": "uint256",
          "name": "clicks",
          "type": "uint256"
        }
      ],
      "name": "Click",
      "type": "event"
    },
    {
      "anonymous": false,
      "inputs": [
        {
          "indexed": true,
          "internalType": "address",
          "name": "previousOwner",
          "type": "address"
        },
        {
          "indexed": true,
          "internalType": "address",
          "name": "newOwner",
          "type": "address"
        }
      ],
      "name": "OwnershipTransferred",
      "type": "event"
    },
    {
      "anonymous": false,
      "inputs": [
        {
          "indexed": true,
          "internalType": "address",
          "name": "user",
          "type": "address"
        },
        {
          "indexed": false,
          "internalType": "string",
          "name": "username",
          "type": "string"
        }
      ],
      "name": "UserRegistered",
      "type": "event"
    },
    {
      "anonymous": false,
      "inputs": [
        {
          "indexed": true,
          "internalType": "uint256",
          "name": "timestamp",
          "type": "uint256"
        },
        {
          "indexed": false,
          "internalType": "uint256",
          "name": "totalAmount",
          "type": "uint256"
        }
      ],
      "name": "Withdraw",
      "type": "event"
    },
    {
      "inputs": [],
      "name": "click",
      "outputs": [],
      "stateMutability": "payable",
      "type": "function"
    },
    {
      "inputs": [
        {
          "internalType": "string",
          "name": "",
          "type": "string"
        }
      ],
      "name": "getAddressByUsername",
      "outputs": [
        {
          "internalType": "address",
          "name": "",
          "type": "address"
        }
      ],
      "stateMutability": "view",
      "type": "function"
    },
    {
      "inputs": [],
      "name": "getLeaderboard",
      "outputs": [
        {
          "components": [
            {
              "internalType": "string",
              "name": "username",
              "type": "string"
            },
            {
              "internalType": "uint256",
              "name": "clicks",
              "type": "uint256"
            },
            {
              "internalType": "uint16",
              "name": "multiplier",
              "type": "uint16"
            },
            {
              "internalType": "uint16",
              "name": "totalReferrals",
              "type": "uint16"
            }
          ],
          "internalType": "struct Clicker.UserInfo[50]",
          "name": "",
          "type": "tuple[50]"
        }
      ],
      "stateMutability": "view",
      "type": "function"
    },
    {
      "inputs": [
        {
          "internalType": "address",
          "name": "",
          "type": "address"
        }
      ],
      "name": "getRegisteredStatusByAddress",
      "outputs": [
        {
          "internalType": "bool",
          "name": "",
          "type": "bool"
        }
      ],
      "stateMutability": "view",
      "type": "function"
    },
    {
      "inputs": [
        {
          "internalType": "string",
          "name": "",
          "type": "string"
        }
      ],
      "name": "getRegisteredStatusByUsername",
      "outputs": [
        {
          "internalType": "bool",
          "name": "",
          "type": "bool"
        }
      ],
      "stateMutability": "view",
      "type": "function"
    },
    {
      "inputs": [
        {
          "internalType": "uint16",
          "name": "page",
          "type": "uint16"
        },
        {
          "internalType": "uint16",
          "name": "pageSize",
          "type": "uint16"
        }
      ],
      "name": "getWithdrawalHistory",
      "outputs": [
        {
          "internalType": "uint16",
          "name": "",
          "type": "uint16"
        },
        {
          "components": [
            {
              "components": [
                {
                  "internalType": "string",
                  "name": "username",
                  "type": "string"
                },
                {
                  "internalType": "uint256",
                  "name": "clicks",
                  "type": "uint256"
                },
                {
                  "internalType": "uint16",
                  "name": "multiplier",
                  "type": "uint16"
                },
                {
                  "internalType": "uint16",
                  "name": "totalReferrals",
                  "type": "uint16"
                }
              ],
              "internalType": "struct Clicker.UserInfo[50]",
              "name": "winners",
              "type": "tuple[50]"
            },
            {
              "internalType": "uint256",
              "name": "timestamp",
              "type": "uint256"
            },
            {
              "internalType": "uint256",
              "name": "totalAmount",
              "type": "uint256"
            }
          ],
          "internalType": "struct Clicker.WithdrawalHistory[]",
          "name": "",
          "type": "tuple[]"
        }
      ],
      "stateMutability": "view",
      "type": "function"
    },
    {
      "inputs": [
        {
          "internalType": "uint16",
          "name": "startRow",
          "type": "uint16"
        },
        {
          "internalType": "uint16",
          "name": "endRow",
          "type": "uint16"
        }
      ],
      "name": "getWithdrawalHistory2",
      "outputs": [
        {
          "internalType": "uint16",
          "name": "",
          "type": "uint16"
        },
        {
          "components": [
            {
              "components": [
                {
                  "internalType": "string",
                  "name": "username",
                  "type": "string"
                },
                {
                  "internalType": "uint256",
                  "name": "clicks",
                  "type": "uint256"
                },
                {
                  "internalType": "uint16",
                  "name": "multiplier",
                  "type": "uint16"
                },
                {
                  "internalType": "uint16",
                  "name": "totalReferrals",
                  "type": "uint16"
                }
              ],
              "internalType": "struct Clicker.UserInfo[50]",
              "name": "winners",
              "type": "tuple[50]"
            },
            {
              "internalType": "uint256",
              "name": "timestamp",
              "type": "uint256"
            },
            {
              "internalType": "uint256",
              "name": "totalAmount",
              "type": "uint256"
            }
          ],
          "internalType": "struct Clicker.WithdrawalHistory[]",
          "name": "",
          "type": "tuple[]"
        }
      ],
      "stateMutability": "view",
      "type": "function"
    },
    {
      "inputs": [],
      "name": "increaseMultiplier",
      "outputs": [],
      "stateMutability": "payable",
      "type": "function"
    },
    {
      "inputs": [
        {
          "internalType": "string",
          "name": "",
          "type": "string"
        }
      ],
      "name": "isUsernameTaken",
      "outputs": [
        {
          "internalType": "bool",
          "name": "",
          "type": "bool"
        }
      ],
      "stateMutability": "view",
      "type": "function"
    },
    {
      "inputs": [],
      "name": "lastWithdraw",
      "outputs": [
        {
          "internalType": "uint256",
          "name": "",
          "type": "uint256"
        }
      ],
      "stateMutability": "view",
      "type": "function"
    },
    {
      "inputs": [],
      "name": "owner",
      "outputs": [
        {
          "internalType": "address",
          "name": "",
          "type": "address"
        }
      ],
      "stateMutability": "view",
      "type": "function"
    },
    {
      "inputs": [
        {
          "internalType": "string",
          "name": "_username",
          "type": "string"
        },
        {
          "internalType": "string",
          "name": "_referrerUsername",
          "type": "string"
        }
      ],
      "name": "register",
      "outputs": [],
      "stateMutability": "nonpayable",
      "type": "function"
    },
    {
      "inputs": [],
      "name": "renounceOwnership",
      "outputs": [],
      "stateMutability": "nonpayable",
      "type": "function"
    },
    {
      "inputs": [
        {
          "internalType": "uint256",
          "name": "",
          "type": "uint256"
        }
      ],
      "name": "top50Users",
      "outputs": [
        {
          "internalType": "string",
          "name": "username",
          "type": "string"
        },
        {
          "internalType": "uint256",
          "name": "clicks",
          "type": "uint256"
        },
        {
          "internalType": "uint16",
          "name": "multiplier",
          "type": "uint16"
        },
        {
          "internalType": "uint16",
          "name": "totalReferrals",
          "type": "uint16"
        }
      ],
      "stateMutability": "view",
      "type": "function"
    },
    {
      "inputs": [],
      "name": "totalUsers",
      "outputs": [
        {
          "internalType": "uint32",
          "name": "",
          "type": "uint32"
        }
      ],
      "stateMutability": "view",
      "type": "function"
    },
    {
      "inputs": [
        {
          "internalType": "address",
          "name": "newOwner",
          "type": "address"
        }
      ],
      "name": "transferOwnership",
      "outputs": [],
      "stateMutability": "nonpayable",
      "type": "function"
    },
    {
      "inputs": [
        {
          "internalType": "address",
          "name": "",
          "type": "address"
        }
      ],
      "name": "users",
      "outputs": [
        {
          "internalType": "string",
          "name": "username",
          "type": "string"
        },
        {
          "internalType": "uint256",
          "name": "clicks",
          "type": "uint256"
        },
        {
          "internalType": "uint16",
          "name": "multiplier",
          "type": "uint16"
        },
        {
          "internalType": "uint16",
          "name": "totalReferrals",
          "type": "uint16"
        }
      ],
      "stateMutability": "view",
      "type": "function"
    },
    {
      "inputs": [],
      "name": "withdraw",
      "outputs": [],
      "stateMutability": "nonpayable",
      "type": "function"
    },
    {
      "inputs": [
        {
          "internalType": "uint256",
          "name": "",
          "type": "uint256"
        }
      ],
      "name": "withdrawalHistory",
      "outputs": [
        {
          "internalType": "uint256",
          "name": "timestamp",
          "type": "uint256"
        },
        {
          "internalType": "uint256",
          "name": "totalAmount",
          "type": "uint256"
        }
      ],
      "stateMutability": "view",
      "type": "function"
    }
  ],
  "bytecode": "0x60806040523461002257610011610027565b604051612e6c61017f8239612e6c90f35b600080fd5b61003033610074565b565b61004261003f61003f9290565b90565b6001600160a01b031690565b61003f90610032565b61006090610042565b9052565b6020810192916100309190610057565b600061007f8161004e565b61008881610042565b61009184610042565b146100a157505061003090610127565b631e4fbdf760e01b825281906100ba9060048301610064565b0390fd5b61003f90610042565b61003f90546100be565b61003f90610042906001600160a01b031682565b61003f906100d1565b61003f906100e5565b9061010761003f610123926100ee565b82546001600160a01b0319166001600160a01b03919091161790565b9055565b61014d61014761013760006100c7565b6101428460006100f7565b6100ee565b916100ee565b907f8be0079c531659141344cd1fd0a4f28419497f9722a3daafe3b4186f6b6457e061017860405190565b600090a356fe6080604052600436101561001257600080fd5b60003560e01c80631682d25714610142578063176c59191461013d5780633ccfd60b146101385780633ffbd47f146101335780636322961d1461012e5780636d763a6e14610129578063715018a61461012457806371a726ca1461011f5780637d55923d1461011a5780638bef3e75146101155780638da5cb5b146101105780639201107d1461010b5780639c440e09146101065780639cbbd55b14610101578063a87430ba146100fc578063b52eea74146100f7578063bff1f9e1146100f2578063d800b9bd146100ed5763f2fde38b0361015457610b73565b610b45565b610ab7565b610a62565b610a25565b6109fd565b6109e2565b61094f565b610924565b61090b565b6108f8565b6108c7565b6106a3565b61067c565b6105fe565b610597565b610531565b6104f9565b610353565b61ffff81165b0361015457565b600080fd5b9050359061016682610147565b565b91906040838203126101545761018b9060206101848286610159565b9401610159565b90565b9052565b60005b8381106101a55750506000910152565b8181015183820152602001610195565b6101d66101df6020936101e9936101ca815190565b80835293849260200190565b95869101610192565b601f01601f191690565b0190565b9061018b9060608061020e60808401600087015185820360008701526101b5565b9461021e60208201516020860152565b60408181015161ffff1690850152015161ffff16910152565b9061018b916101ed565b610640820191603290600090805b83831061025e57505050505090565b9091929394602061028161027a83856001950387528951610237565b9760200190565b930193019193929061024f565b9061018b906040806102af6060840160008701518582036000870152610241565b946102bf60208201516020860152565b0151910152565b9061018b9161028e565b906102e66102dc835190565b8083529160200190565b90816102f86020830284019460200190565b926000915b83831061030c57505050505090565b9091929394602061032861027a838560019503875289516102c6565b93019301919392906102fd565b61ffff909116815261018b91604082019160208184039101526102d0565b346101545761036c610366366004610168565b90610e94565b9061038261037960405190565b92839283610335565b0390f35b634e487b7160e01b600052604160045260246000fd5b90601f01601f1916810190811067ffffffffffffffff8211176103be57604052565b610386565b906101666103d060405190565b928361039c565b67ffffffffffffffff81116103be57602090601f01601f19160190565b90826000939282370152565b90929192610415610410826103d7565b6103c3565b9381855281830111610154576101669160208501906103f4565b9080601f830112156101545781602061018b93359101610400565b9060208282031261015457813567ffffffffffffffff81116101545761018b920161042f565b6101e961048892602092610482815190565b94859290565b93849101610192565b6104a16101e99160209493610470565b918252565b6104bb6104b260405190565b92839283610491565b03902090565b61018b916104a6565b61018b916008021c5b60ff1690565b9061018b91546104ca565b60006104f461018b92609c6104c1565b6104d9565b346101545761038261051461050f36600461044a565b6104e4565b60405191829182901515815260200190565b600091031261015457565b3461015457610541366004610526565b610549611fc5565b604051005b91909160408184031261015457803567ffffffffffffffff8111610154578361057891830161042f565b92602082013567ffffffffffffffff81116101545761018b920161042f565b34610154576105496105aa36600461054e565b90612238565b61018b916008021c5b6001600160a01b031690565b9061018b91546105b0565b60006105e061018b92609b6104c1565b6105c5565b61018e906105b9565b60208101929161016691906105e5565b346101545761038261061961061436600461044a565b6105d0565b604051918291826105ee565b610640820191603290600090805b83831061064257505050505090565b9091929394602061065e61027a83856001950387528951610237565b9301930191939290610633565b602080825261018b92910190610625565b346101545761068c366004610526565b6103826106976124ea565b6040519182918261066b565b34610154576106b3366004610526565b610549612535565b8061014d565b90503590610166826106bb565b906020828203126101545761018b916106c1565b634e487b7160e01b600052603260045260246000fd5b603282101561070e576003905b91020190600090565b6106e2565b634e487b7160e01b600052602260045260246000fd5b9060016002830492168015610749575b602083101461074457565b610713565b91607f1691610739565b8054600093929161077061076683610729565b8085529360200190565b91600181169081156107c2575060011461078957505050565b61079c9192939450600052602060002090565b916000925b8184106107ae5750500190565b8054848401526020909301926001016107a1565b92949550505060ff1916825215156020020190565b9061018b91610753565b906101666107fb926107f260405190565b938480926107d7565b038361039c565b61018b9081565b61018b9054610802565b61018b905b61ffff1690565b61018b9054610813565b61018b9060101c610818565b61018b9054610829565b600290603281101561015457610854916106f8565b509061085f826107e1565b9161086c60018201610809565b9161018b600261087d81850161081f565b9301610835565b6108bd610166946108b26108aa60609599989699608086019086820360008801526101b5565b986020850152565b61ffff166040830152565b019061ffff169052565b34610154576103826108e26108dd3660046106ce565b61083f565b906108ef94929460405190565b94859485610884565b610903366004610526565b6105496125d8565b346101545761036c61091e366004610168565b90612743565b3461015457610934366004610526565b610382610619612826565b60006104f461018b92609a6104c1565b346101545761038261051461096536600461044a565b61093f565b61014d816105b9565b905035906101668261096a565b906020828203126101545761018b91610973565b61018b906105b9906001600160a01b031682565b61018b90610994565b61018b906109a8565b906109c4906109b1565b600052602052604060002090565b60006104f461018b9260996109ba565b34610154576103826105146109f8366004610980565b6109d2565b610a08366004610526565b6105496128a2565b610a1b9060986109ba565b9061085f826107e1565b34610154576103826108e2610a3b366004610980565b610a10565b61018b916008021c81565b9061018b9154610a40565b61018b60006001610a4b565b3461015457610a72366004610526565b610382610a7d610a56565b6040515b9182918290815260200190565b61018b916008021c5b63ffffffff1690565b9061018b9154610a8e565b61018b60146000610aa0565b3461015457610ac7366004610526565b610382610ad2610aab565b6040519182918263ffffffff909116815260200190565b805482101561070e57610705609891600052602060002090565b609d5481101561015457610b1890609d610ae9565b509061018b6097610b2b60968501610809565b9301610809565b9081526040810192916101669160200152565b3461015457610b5d610b583660046106ce565b610b03565b90610382610b6a60405190565b92839283610b32565b3461015457610549610b86366004610980565b6129e1565b61081861018b61018b9290565b15610b9f57565b60405162461bcd60e51b815260206004820152602360248201527f537461727420726f77206d757374206265206c657373207468616e20656e6420604482015262726f7760e81b606482015280608481015b0390fd5b634e487b7160e01b600052601160045260246000fd5b610c1c9061ffff165b9161ffff1690565b90039061ffff8211610c2a57565b610bf5565b61018b61018b61018b9261ffff1690565b67ffffffffffffffff81116103be5760208091020190565b906104a161041083610c40565b61018b60606103c3565b67ffffffffffffffff81116103be5760200290565b61041061018b91610c6f565b61018b60806103c3565b610ca2610c90565b906060825260208080808501600081520160005b8152016000905250565b61018b610c9a565b60005b828110610cd757505050565b602090610ce2610cc0565b8184015201610ccb565b90610166610d02610cfc84610c84565b93610c6f565b83610cc8565b61018b6032610cec565b610d1a610c65565b90610d23610d08565b82526020808084016000610cb6565b61018b610d12565b60005b828110610d4957505050565b602090610d54610d32565b8184015201610d3d565b90610166610d74610d6e84610c58565b93610c40565b601f190160208401610d3a565b600161018b910161ffff1690565b90610d98825190565b81101561070e576020809102010190565b90610166610e006002610dba610c90565b94610dcb610dc7826107e1565b8752565b610de1610dda60018301610809565b6020880152565b610dfa610def83830161081f565b61ffff166040880152565b01610835565b61ffff166060840152565b61018b90610da9565b906032610e2081610c84565b92600090845b838310610e335750505050565b60036020600192610e4385610e0b565b815201920192019190610e26565b90610166610e846097610e62610c65565b94610e6f610dc782610e14565b610e7e610dda60968301610809565b01610809565b6040840152565b61018b90610e51565b609d610ea7610ea2609d5490565b610b8b565b93610ebb61ffff851661ffff851610610b98565b83610ec961ffff8716610c14565b11610f5d575b610ee9610ee4610edf8587610c0b565b610c2f565b610d5e565b94835b61ffff86165b61ffff82161015610f5457610f4d81610f47610f41610f14610ef29589610ae9565b50610f28610f228b86610c0b565b91610e8b565b610f3b8d610f3584610c2f565b90610d8f565b52610c2f565b8a610d8f565b50610d81565b9050610eec565b50949350915050565b849350610ecf565b610f6d6129ea565b6101666119ca565b91908203918211610c2a57565b61018b61018b61018b9290565b15610f9657565b60405162461bcd60e51b81526020600482015260146024820152734e65656420746f2077616974203620686f75727360601b6044820152606490fd5b634e487b7160e01b600052601260045260246000fd5b90610ff2565b9190565b908115610ffd570490565b610fd2565b61018b90610e14565b61018b9054610729565b8054600093929161102c61102883610729565b9390565b916001811690811561107d575060011461104557505050565b6110589192939450600052602060002090565b6000905b8382106110695750500190565b60018160209254848601520191019061105c565b60ff191683525050811515909102019150565b6104a16101e99160209493611015565b6104bb6110ac60405190565b92839283611090565b61018b916110a0565b61018b906105b9565b61018b90546110be565b81810292918115918404141715610c2a57565b906104a1610410836103d7565b3d1561110b576111003d6110e4565b903d6000602084013e565b606090565b1561111757565b60405162461bcd60e51b815260206004820152601a60248201527f5472616e73666572206661696c656420666f722072616e6b20310000000000006044820152606490fd5b1561116357565b60405162461bcd60e51b815260206004820152601a60248201527f5472616e73666572206661696c656420666f722072616e6b20320000000000006044820152606490fd5b156111af57565b60405162461bcd60e51b815260206004820152601a60248201527f5472616e73666572206661696c656420666f722072616e6b20330000000000006044820152606490fd5b156111fb57565b60405162461bcd60e51b815260206004820152601a60248201527f5472616e73666572206661696c656420666f722072616e6b20340000000000006044820152606490fd5b1561124757565b60405162461bcd60e51b815260206004820152601a60248201527f5472616e73666572206661696c656420666f722072616e6b20350000000000006044820152606490fd5b1561129357565b60405162461bcd60e51b815260206004820152601d60248201527f5472616e73666572206661696c656420666f722072616e6b20362d31300000006044820152606490fd5b156112df57565b60405162461bcd60e51b815260206004820152601e60248201527f5472616e73666572206661696c656420666f722072616e6b2031312d323000006044820152606490fd5b1561132b57565b60405162461bcd60e51b815260206004820152601e60248201527f5472616e73666572206661696c656420666f722072616e6b2032312d333000006044820152606490fd5b1561137757565b60405162461bcd60e51b815260206004820152601e60248201527f5472616e73666572206661696c656420666f722072616e6b2033312d353000006044820152606490fd5b156113c357565b60405162461bcd60e51b815260206004820152601560248201527413dddb995c881d1c985b9cd9995c8819985a5b1959605a1b6044820152606490fd5b634e487b7160e01b600052600060045260246000fd5b61018b9060036110d1565b9061143490600019906020036008021c90565b8154169055565b9160001960089290920291821b911b5b9181191691161790565b919061146661018b61146e93610f82565b90835461143b565b9055565b61016691600091611455565b818110611489575050565b806114976000600193611472565b0161147e565b600019600883021c1916906002021790565b906000916114cd6114c582600052602060002090565b92835461149d565b905555565b919290602082101561152a57601f84116001146114f45761146e92935061149d565b509061152561016693600161151c61151185600052602060002090565b92601f602091010490565b8201910161147e565b6114af565b5061156a8293611541600194600052602060002090565b6115636020601f860104820192601f861680611572575b50601f602091010490565b019061147e565b600202179055565b61157e90888603611421565b38611558565b929091600160401b82116103be57602011156115cb5760208110156115ac5761146e9161149d565b60019160ff19166115c284600052602060002090565b55600202019055565b60019150600202019055565b9081546115e381610729565b9081831161160c575b8183106115fa575b50505050565b611603936114d2565b388080806115f4565b61161883838387611584565b6115ec565b6000610166916115d7565b90600003611639576101669061161d565b611400565b60009060029061164e8382611628565b61165b8360018301611472565b0155565b90600003611639576101669061163e565b81811061167b575050565b80611689600060039361165f565b01611670565b91909182821061169e57505050565b6116b6610fee6116b061016695611416565b93611416565b9182019101611670565b90600160401b81116103be576101669160329061168f565b9190601f81116116e757505050565b6116f961016693600052602060002090565b906020601f840181900483019310611719575b6020601f90910104611563565b909150819061170c565b9061172c815190565b9067ffffffffffffffff82116103be576117508261174a8554610729565b856116d8565b602090601f831160011461177e5761146e929160009183611773575b505061149d565b01519050388061176c565b601f1983169161179385600052602060002090565b9260005b8181106117d2575091600293918560019694106117b8575b50505002019055565b01516000196008601f8516021c19165b90553880806117af565b91936020600181928787015181550195019201611797565b9061016691611723565b906000199061144b565b9061180e61018b61146e92610f82565b82546117f4565b9061ffff9061144b565b61081861018b61018b9261ffff1690565b9061184061018b61146e9261181f565b8254611815565b9063ffff00009060101b61144b565b9061186661018b61146e9261181f565b8254611847565b906118c7606060026101669461188d611887600087015190565b826117ea565b6118a461189b602087015190565b600183016117fe565b01926118be6118b8604083015161ffff1690565b85611830565b015161ffff1690565b90611856565b906101669161186d565b6118ea610fee60329361018b85856116c0565b6000915b8383106118fb5750505050565b600360208261191361190d6001955190565b866118cd565b019201920191906118ee565b90610166916118d7565b6097611964604061016694611948611942600083015190565b8661191f565b61195f611956602083015190565b609687016117fe565b015190565b91016117fe565b91906116395761016691611929565b90815491600160401b8310156103be578261199d91600161016695018155610ae9565b9061196b565b610166906119b16032611416565b810190611670565b9060000361163957610166906119a3565b6119f46119e06119da6001610809565b42610f75565b6119ee610fee615460610f82565b11610f8f565b6119fd306109b1565b31600290611a13611a0d83610f82565b82610fe8565b91611a1d81611002565b90600091611a3c611a3784611a3281866106f8565b500190565b61100b565b611a48610fee85610f82565b11611f7c575b600193611a62611a3785611a3288876106f8565b611a6e610fee86610f82565b11611f39575b611a85611a3785611a3286806106f8565b611a91610fee86610f82565b11611ef0575b846003611aac611a3787611a326003896106f8565b611ab8610fee88610f82565b11611eab575b611ad0611a3787611a326004896106f8565b611adc610fee88610f82565b11611e5d575b81611aed6005610f82565b905b611dc5575b505080611b01600a610f82565b905b611d2f575b5080611b146014610f82565b905b611ca9575b50611b26601e610f82565b905b611bff575b5091611bb78492611b8884611bc39897611bbc97611b70611b60611b4f612826565b92611b5a6028610f82565b906110d1565b611b6a6064610f82565b90610fe8565b60405190818003925af1611b826110f1565b506113bc565b609d611b9c611b95610c65565b9286840152565b611ba7426020840152565b611bb2896040840152565b61197a565b6119b9565b42906117fe565b7f56ca301a9219608c91e7bcee90e083c19671d2cdcc96752c7af291cee5f9c8c8611bfa611bf042610f82565b92610a8160405190565b0390a2565b611c096032610f82565b811015611ca457611c3d81611c26611a3788611a328b968a6106f8565b611c32610fee89610f82565b11611c435760010190565b90611b28565b611c9e87808b611c86611c7b611c70611c6b8d86611c638b609b936106f8565b5001906110b5565b6110c7565b92611b5a602d610f82565b611b6a612710610f82565b60405190818003925af1611c986110f1565b50611370565b60010190565b611b2d565b611cb3601e610f82565b811015611d2a5780611ccf611a3788611a32611ce6958a6106f8565b611cdb610fee89610f82565b11611cec5760010190565b81611b16565b611c9e8780611d04611c6b609b83611c63888e6106f8565b611d128d611b6a6064610f82565b60405190818003925af1611d246110f1565b50611324565b611b1b565b611d396014610f82565b811015611dc05780611d55611a3788611a32611d6c958a6106f8565b611d61610fee89610f82565b11611d725760010190565b81611b03565b611c9e87808b611da8611d9d611d92611c6b8d86611c638b609b936106f8565b92611b5a600f610f82565b611b6a6103e8610f82565b60405190818003925af1611dba6110f1565b506112d8565b611b08565b611dcf600a610f82565b811015611e585780898888611dee611a3783611a32611e0998856106f8565b611dfa610fee84610f82565b11611e0f575b50505060010190565b82611aef565b611e5092611e38611b60611e2e611c6b869586611c638b609b936106f8565b92611b5a8a610f82565b60405190818003925af1611e4a6110f1565b5061128c565b898888611e00565b611af4565b611ea68680611e7d611c6b82611e7460048c6106f8565b5001609b6110b5565b611e8e611b608d611b5a6006610f82565b60405190818003925af1611ea06110f1565b50611240565b611ae2565b611eeb8680611ec2611c6b82611e7460038c6106f8565b611ed3611b608d611b5a6008610f82565b60405190818003925af1611ee56110f1565b506111f4565b611abe565b611f348480611f06611c6b82611e7489806106f8565b611f1c611b60611f16600a610f82565b8c6110d1565b60405190818003925af1611f2e6110f1565b506111a8565b611a97565b611f778480611f4f611c6b82611e748b8a6106f8565b611f5f611b60611f16600c610f82565b60405190818003925af1611f716110f1565b5061115c565b611a74565b611fc08380611f92611c6b82611e7481896106f8565b611fa8611b60611fa2600f610f82565b8b6110d1565b60405190818003925af1611fba6110f1565b50611110565b611a4e565b610166610f65565b15611fd457565b60405162461bcd60e51b815260206004820152601860248201527f557365726e616d652063616e6e6f7420626520656d70747900000000000000006044820152606490fd5b61018b906104d3565b61018b9054612019565b1561203357565b60405162461bcd60e51b81526020600482015260166024820152752ab9b2b93730b6b29030b63932b0b23c903a30b5b2b760511b6044820152606490fd5b1561207857565b60405162461bcd60e51b815260206004820152601760248201527f5573657220616c726561647920726567697374657265640000000000000000006044820152606490fd5b61018b91610470565b156120cd57565b60405162461bcd60e51b815260206004820152601f60248201527f557365726e616d652063616e6e6f7420626520276e6f526566657272657227006044820152606490fd5b1561211957565b60405162461bcd60e51b815260206004820152601760248201527f5265666572726572206e6f7420726567697374657265640000000000000000006044820152606490fd5b61216b9061ffff16610c14565b019061ffff8211610c2a57565b9060ff9061144b565b9061219161018b61146e92151590565b8254612178565b906001600160a01b039061144b565b906121b761018b61146e926109b1565b8254612198565b61018b9060a01c610a97565b61018b90546121be565b63ffffffff1663ffffffff8114610c2a5760010190565b9063ffffffff60a01b9060a01b61144b565b610a9761018b61018b9263ffffffff1690565b9061222061018b61146e926121fd565b82546121eb565b602080825261018b929101906101b5565b90612419906123b8612248845190565b9161226160009361225b610fee86610f82565b11611fcd565b61228361227e61227a61227588609c6104c1565b612022565b1590565b61202c565b61229c61229761227a6122753360996109ba565b612071565b6123206122a860405190565b6122c681602081016122ba8a826120bd565b9081038252038261039c565b6122d86122d1825190565b9160200190565b20612319610fee6122e860405190565b61230a81602081016122ba81693737a932b332b93932b960b11b8152600a0190565b6123156122d1825190565b2090565b14156120c6565b61232a6064610b8b565b9061233460405190565b61234681602081016122ba85826120bd565b6123516122d1825190565b20612361610fee6122e860405190565b03612459575b50612391612373610c90565b9161237e8786850152565b6108b261238a86610f82565b6020850152565b6123a861239d84610b8b565b61ffff166060830152565b6123b33360986109ba565b6118cd565b6123cd60016123c83360996109ba565b612181565b6123dd60016123c885609a6104c1565b6123f26123eb84609b6104c1565b33906121a7565b61240260016123c885609c6104c1565b61241361240e826121ca565b6121d4565b90612210565b7f48cac28ad4dc618e15f4c2dd5e97751182f166de97b25618318b2112aa951a2f611bfa612446336109b1565b9261245060405190565b91829182612227565b906124b86124e49161247761247261227586609a6104c1565b612112565b6124816032610b8b565b906124ad600261249f612498611c6b89609b6104c1565b60986109ba565b016124b2846124ad8361081f565b61215e565b90611830565b916118c760026124d9612498611c6b6124d16001610b8b565b95609b6104c1565b01916124ad83610835565b38612367565b6124f2610d08565b5061018b6002611002565b6125056129ea565b610166612523565b6105b961018b61018b9290565b61018b9061250d565b610166612530600061251a565b612a2c565b6101666124fd565b1561254457565b60405162461bcd60e51b815260206004820152601e60248201527f596f75206d7573742070617920302e30312054454120746f20636c69636b00006044820152606490fd5b1561259057565b60405162461bcd60e51b8152602060048201526013602482015272155cd95c881b9bdd081c9959da5cdd195c9959606a1b6044820152606490fd5b91908201809211610c2a57565b6125f26125eb662386f26fc10000610f82565b341461253d565b6126086126036122753360996109ba565b612589565b6126616001610e7e609861265161262d610edf600261262733866109ba565b0161081f565b61264b8561263b33866109ba565b019161264683610809565b6125cb565b906117fe565b61265a33612be1565b33906109ba565b7f9cb0084f66100232b6cdcee6915499fbfb0cd080317c9488bd71880f8cdb91dc611bfa611bf0336109b1565b1561269557565b60405162461bcd60e51b815260206004820152601b60248201527f50616765206d7573742062652067726561746572207468616e203000000000006044820152606490fd5b6126e79061ffff16610c14565b029061ffff8216918203610c2a57565b156126fe57565b60405162461bcd60e51b815260206004820152601b60248201527f5374617274206d757374206265206c657373207468616e20656e6400000000006044820152606490fd5b9190609d92612754610ea2609d5490565b9161276d6127626000610b8b565b61ffff84161161268e565b61279661278f8261278a6001956127846001610b8b565b90610c0b565b6126da565b918261215e565b94856127a561ffff8616610c14565b1161281d575b6127be61ffff871661ffff8416106126f7565b6127ce610ee4610edf8489610c0b565b9582845b6127e0575b50505050509190565b61ffff821661ffff821610156128185780610f47610f416128046128129487610ae9565b50610f28610f228986610c0b565b846127d2565b6127d7565b945082946127ab565b61018b60006110c7565b1561283757565b60405162461bcd60e51b815260206004820152603960248201527f596f75206d757374207061792031302c2032352c206f7220353020544541207460448201527f6f20696e63726561736520746865206d756c7469706c696572000000000000006064820152608490fd5b6128b3678ac7230489e80000610f82565b3414808115612975575b8015612956575b6128cd90612830565b6128de6126036122753360996109ba565b1561290b576101666128f06064610b8b565b6124b260026129003360986109ba565b01916124ad8361081f565b61291d68015af1d78b58c40000610f82565b3403612930576101666128f060fa610b8b565b6129426802b5e3af16b1880000610f82565b3403610166576101666128f06101f4610b8b565b506128cd61296c6802b5e3af16b1880000610f82565b341490506128c4565b5061298868015af1d78b58c40000610f82565b34146128bd565b6101669061299b6129ea565b60006129a68161251a565b6129af816105b9565b6129b8846105b9565b146129c857505061016690612a2c565b631e4fbdf760e01b82528190610bf190600483016105ee565b6101669061298f565b6129f2612826565b3390612a06612a00836105b9565b916105b9565b03612a0e5750565b63118cdaa760e01b600090815290612a279060046105ee565b036000fd5b612a52612a4c612a3c60006110c7565b612a478460006121a7565b6109b1565b916109b1565b907f8be0079c531659141344cd1fd0a4f28419497f9722a3daafe3b4186f6b6457e0612a7d60405190565b600090a3565b61018b91611015565b9190611639576101669161186d565b8015610c2a576000190190565b90808214612b7857612ab98161100b565b9067ffffffffffffffff82116103be57612ad78261174a8554610729565b600090601f8311600114612b045761146e929160009183612af957505061149d565b01549050388061176c565b90612b19601f19841692600052602060002090565b90612b2985600052602060002090565b92815b818110612b6057509160029391856001969410612b4c5750505002019055565b01546000196008601f8516021c19166117c8565b91936001806020928787015481550195019201612b2c565b5050565b9061016691612aa8565b90808203612b92575050565b610166916118c7906002908190612ba98582612b7c565b612bb861189b60018701610809565b019201612bcd612bc78261081f565b84611830565b610835565b91906116395761016691612b86565b612bef612bf49160986109ba565b610e0b565b600090612c016000610f82565b612c0b6032610f82565b811015612c9a57600283612c1f83836106f8565b5001612c3d612c2d60405190565b80926122ba602083019182612a83565b612c486122d1825190565b20612c6f610fee8686015161230a612c5f60405190565b80926122ba6020830191826120bd565b14612c7d5750600101612c01565b612c92935090612c8c916106f8565b90612a8c565b610166612d59565b509050612ca76000610f82565b915b612cb36032610f82565b831015612d5457600292612cd36001612ccc83876106f8565b5001610809565b612ce4610fee61018b602087015190565b10612cf3576001019250612ca9565b91612cfe6031610f82565b83811115612d4457612d3f90612d3a612d29612d23612d1d6001610f82565b84610f75565b886106f8565b50612d3483896106f8565b90612bd2565b612a9b565b612cfe565b50909261016692612c8c916106f8565b915050565b612d636000610f82565b6032612d6e81610f82565b821015612b785760019081612d8b612d8582610f82565b856125cb565b905b612da4575b505050612d9f9060010190565b612d63565b612dad82610f82565b811015612e315790612deb83926002612dca85612ccc84846106f8565b612dde610fee61018b88612ccc8c876106f8565b11612df2575b5060010190565b9091612d8d565b80612c8c83612e0d612e078b612e2b966106f8565b50610e0b565b92612e26612e1b83836106f8565b50612d348d846106f8565b6106f8565b38612de4565b612d9256fea2646970667358221220d9f48e9e933e637d9db4de469513b48f391350cbed2b77a20d332b5e30f1e1a164736f6c634300081c0033",
  "linkReferences": {},
  "deployedLinkReferences": {}
}