{
  "contracts/Clicker.sol": {
    "Clicker": {
      "abi": [
        {
          "inputs": [],
          "stateMutability": "nonpayable",
          "type": "constructor"
        },
        {
          "inputs": [
            {
              "internalType": "address",
              "name": "owner",
              "type": "address"
            }
          ],
          "name": "OwnableInvalidOwner",
          "type": "error"
        },
        {
          "inputs": [
            {
              "internalType": "address",
              "name": "account",
              "type": "address"
            }
          ],
          "name": "OwnableUnauthorizedAccount",
          "type": "error"
        },
        {
          "anonymous": false,
          "inputs": [
            {
              "indexed": true,
              "internalType": "address",
              "name": "user",
              "type": "address"
            },
            {
              "indexed": false,
              "internalType": "uint256",
              "name": "clicks",
              "type": "uint256"
            }
          ],
          "name": "Click",
          "type": "event"
        },
        {
          "anonymous": false,
          "inputs": [
            {
              "indexed": true,
              "internalType": "address",
              "name": "previousOwner",
              "type": "address"
            },
            {
              "indexed": true,
              "internalType": "address",
              "name": "newOwner",
              "type": "address"
            }
          ],
          "name": "OwnershipTransferred",
          "type": "event"
        },
        {
          "anonymous": false,
          "inputs": [
            {
              "indexed": true,
              "internalType": "address",
              "name": "user",
              "type": "address"
            },
            {
              "indexed": false,
              "internalType": "string",
              "name": "username",
              "type": "string"
            }
          ],
          "name": "UserRegistered",
          "type": "event"
        },
        {
          "anonymous": false,
          "inputs": [
            {
              "indexed": true,
              "internalType": "address",
              "name": "owner",
              "type": "address"
            },
            {
              "indexed": false,
              "internalType": "uint256",
              "name": "amount",
              "type": "uint256"
            }
          ],
          "name": "Withdraw",
          "type": "event"
        },
        {
          "inputs": [],
          "name": "click",
          "outputs": [],
          "stateMutability": "nonpayable",
          "type": "function"
        },
        {
          "inputs": [],
          "name": "getLeaderboard",
          "outputs": [
            {
              "components": [
                {
                  "internalType": "string",
                  "name": "username",
                  "type": "string"
                },
                {
                  "internalType": "uint256",
                  "name": "clicks",
                  "type": "uint256"
                }
              ],
              "internalType": "struct Clicker.UserInfo[10]",
              "name": "",
              "type": "tuple[10]"
            }
          ],
          "stateMutability": "view",
          "type": "function"
        },
        {
          "inputs": [
            {
              "internalType": "address",
              "name": "",
              "type": "address"
            }
          ],
          "name": "isRegistered",
          "outputs": [
            {
              "internalType": "bool",
              "name": "",
              "type": "bool"
            }
          ],
          "stateMutability": "view",
          "type": "function"
        },
        {
          "inputs": [
            {
              "internalType": "string",
              "name": "",
              "type": "string"
            }
          ],
          "name": "isUsernameTaken",
          "outputs": [
            {
              "internalType": "bool",
              "name": "",
              "type": "bool"
            }
          ],
          "stateMutability": "view",
          "type": "function"
        },
        {
          "inputs": [],
          "name": "owner",
          "outputs": [
            {
              "internalType": "address",
              "name": "",
              "type": "address"
            }
          ],
          "stateMutability": "view",
          "type": "function"
        },
        {
          "inputs": [
            {
              "internalType": "string",
              "name": "_username",
              "type": "string"
            }
          ],
          "name": "register",
          "outputs": [],
          "stateMutability": "nonpayable",
          "type": "function"
        },
        {
          "inputs": [],
          "name": "renounceOwnership",
          "outputs": [],
          "stateMutability": "nonpayable",
          "type": "function"
        },
        {
          "inputs": [
            {
              "internalType": "uint256",
              "name": "",
              "type": "uint256"
            }
          ],
          "name": "top10Users",
          "outputs": [
            {
              "internalType": "string",
              "name": "username",
              "type": "string"
            },
            {
              "internalType": "uint256",
              "name": "clicks",
              "type": "uint256"
            }
          ],
          "stateMutability": "view",
          "type": "function"
        },
        {
          "inputs": [],
          "name": "totalUsers",
          "outputs": [
            {
              "internalType": "uint32",
              "name": "",
              "type": "uint32"
            }
          ],
          "stateMutability": "view",
          "type": "function"
        },
        {
          "inputs": [
            {
              "internalType": "address",
              "name": "newOwner",
              "type": "address"
            }
          ],
          "name": "transferOwnership",
          "outputs": [],
          "stateMutability": "nonpayable",
          "type": "function"
        },
        {
          "inputs": [
            {
              "internalType": "address",
              "name": "",
              "type": "address"
            }
          ],
          "name": "users",
          "outputs": [
            {
              "internalType": "string",
              "name": "username",
              "type": "string"
            },
            {
              "internalType": "uint256",
              "name": "clicks",
              "type": "uint256"
            }
          ],
          "stateMutability": "view",
          "type": "function"
        },
        {
          "inputs": [],
          "name": "withdraw",
          "outputs": [],
          "stateMutability": "nonpayable",
          "type": "function"
        }
      ],
      "evm": {
        "bytecode": {
          "linkReferences": {},
          "object": "608060405234801561001057600080fd5b5033600073ffffffffffffffffffffffffffffffffffffffff168173ffffffffffffffffffffffffffffffffffffffff16036100845760006040517f1e4fbdf700000000000000000000000000000000000000000000000000000000815260040161007b919061019e565b60405180910390fd5b6100938161009960201b60201c565b506101b9565b60008060009054906101000a900473ffffffffffffffffffffffffffffffffffffffff169050816000806101000a81548173ffffffffffffffffffffffffffffffffffffffff021916908373ffffffffffffffffffffffffffffffffffffffff1602179055508173ffffffffffffffffffffffffffffffffffffffff168173ffffffffffffffffffffffffffffffffffffffff167f8be0079c531659141344cd1fd0a4f28419497f9722a3daafe3b4186f6b6457e060405160405180910390a35050565b600073ffffffffffffffffffffffffffffffffffffffff82169050919050565b60006101888261015d565b9050919050565b6101988161017d565b82525050565b60006020820190506101b3600083018461018f565b92915050565b612059806101c86000396000f3fe608060405234801561001057600080fd5b50600436106100b45760003560e01c80638da5cb5b116100715780638da5cb5b14610156578063a87430ba14610174578063bff1f9e1146101a5578063c3c5a547146101c3578063f2c298be146101f3578063f2fde38b1461020f576100b4565b8063176c5919146100b95780632bb43ccb146100e95780633ccfd60b1461011a5780636d763a6e14610124578063715018a6146101425780637d55923d1461014c575b600080fd5b6100d360048036038101906100ce91906112ef565b61022b565b6040516100e09190611353565b60405180910390f35b61010360048036038101906100fe91906113a4565b610261565b60405161011192919061145f565b60405180910390f35b610122610313565b005b61012c61046f565b60405161013991906115db565b60405180910390f35b61014a61055d565b005b610154610571565b005b61015e6106f0565b60405161016b919061163e565b60405180910390f35b61018e60048036038101906101899190611685565b610719565b60405161019c92919061145f565b60405180910390f35b6101ad6107c5565b6040516101ba91906116d1565b60405180910390f35b6101dd60048036038101906101d89190611685565b6107db565b6040516101ea9190611353565b60405180910390f35b61020d600480360381019061020891906112ef565b6107fb565b005b61022960048036038101906102249190611685565b610ad7565b005b6017818051602081018201805184825260208301602085012081835280955050505050506000915054906101000a900460ff1681565b600181600a811061027157600080fd5b6002020160009150905080600001805461028a9061171b565b80601f01602080910402602001604051908101604052809291908181526020018280546102b69061171b565b80156103035780601f106102d857610100808354040283529160200191610303565b820191906000526020600020905b8154815290600101906020018083116102e657829003601f168201915b5050505050908060010154905082565b61031b610b5d565b600047905060008111610363576040517f08c379a000000000000000000000000000000000000000000000000000000000815260040161035a90611798565b60405180910390fd5b600061036d6106f0565b73ffffffffffffffffffffffffffffffffffffffff1682604051610390906117e9565b60006040518083038185875af1925050503d80600081146103cd576040519150601f19603f3d011682016040523d82523d6000602084013e6103d2565b606091505b5050905080610416576040517f08c379a000000000000000000000000000000000000000000000000000000000815260040161040d9061184a565b60405180910390fd5b61041e6106f0565b73ffffffffffffffffffffffffffffffffffffffff167f884edad9ce6fa2440d8a54cc123490eb96d2768479d49ff9c7366125a942436483604051610463919061186a565b60405180910390a25050565b61047761114d565b6001600a80602002604051908101604052809291906000905b82821015610554578382600202016040518060400160405290816000820180546104b99061171b565b80601f01602080910402602001604051908101604052809291908181526020018280546104e59061171b565b80156105325780601f1061050757610100808354040283529160200191610532565b820191906000526020600020905b81548152906001019060200180831161051557829003601f168201915b5050505050815260200160018201548152505081526020019060010190610490565b50505050905090565b610565610b5d565b61056f6000610be4565b565b601660003373ffffffffffffffffffffffffffffffffffffffff1673ffffffffffffffffffffffffffffffffffffffff16815260200190815260200160002060009054906101000a900460ff166105fd576040517f08c379a00000000000000000000000000000000000000000000000000000000081526004016105f4906118d1565b60405180910390fd5b601560003373ffffffffffffffffffffffffffffffffffffffff1673ffffffffffffffffffffffffffffffffffffffff168152602001908152602001600020600101600081548092919061065090611920565b919050555061065e33610ca8565b3373ffffffffffffffffffffffffffffffffffffffff167f9cb0084f66100232b6cdcee6915499fbfb0cd080317c9488bd71880f8cdb91dc601560003373ffffffffffffffffffffffffffffffffffffffff1673ffffffffffffffffffffffffffffffffffffffff168152602001908152602001600020600101546040516106e6919061186a565b60405180910390a2565b60008060009054906101000a900473ffffffffffffffffffffffffffffffffffffffff16905090565b601560205280600052604060002060009150905080600001805461073c9061171b565b80601f01602080910402602001604051908101604052809291908181526020018280546107689061171b565b80156107b55780601f1061078a576101008083540402835291602001916107b5565b820191906000526020600020905b81548152906001019060200180831161079857829003601f168201915b5050505050908060010154905082565b600060149054906101000a900463ffffffff1681565b60166020528060005260406000206000915054906101000a900460ff1681565b600081511161083f576040517f08c379a0000000000000000000000000000000000000000000000000000000008152600401610836906119b4565b60405180910390fd5b60178160405161084f9190611a10565b908152602001604051809103902060009054906101000a900460ff16156108ab576040517f08c379a00000000000000000000000000000000000000000000000000000000081526004016108a290611a73565b60405180910390fd5b601660003373ffffffffffffffffffffffffffffffffffffffff1673ffffffffffffffffffffffffffffffffffffffff16815260200190815260200160002060009054906101000a900460ff1615610938576040517f08c379a000000000000000000000000000000000000000000000000000000000815260040161092f90611adf565b60405180910390fd5b600060405180604001604052808381526020016000815250905080601560003373ffffffffffffffffffffffffffffffffffffffff1673ffffffffffffffffffffffffffffffffffffffff16815260200190815260200160002060008201518160000190816109a79190611cab565b50602082015181600101559050506001601660003373ffffffffffffffffffffffffffffffffffffffff1673ffffffffffffffffffffffffffffffffffffffff16815260200190815260200160002060006101000a81548160ff0219169083151502179055506001601783604051610a1f9190611a10565b908152602001604051809103902060006101000a81548160ff0219169083151502179055506000601481819054906101000a900463ffffffff1680929190610a6690611d7d565b91906101000a81548163ffffffff021916908363ffffffff160217905550503373ffffffffffffffffffffffffffffffffffffffff167f48cac28ad4dc618e15f4c2dd5e97751182f166de97b25618318b2112aa951a2f83604051610acb9190611da9565b60405180910390a25050565b610adf610b5d565b600073ffffffffffffffffffffffffffffffffffffffff168173ffffffffffffffffffffffffffffffffffffffff1603610b515760006040517f1e4fbdf7000000000000000000000000000000000000000000000000000000008152600401610b48919061163e565b60405180910390fd5b610b5a81610be4565b50565b610b65610f6f565b73ffffffffffffffffffffffffffffffffffffffff16610b836106f0565b73ffffffffffffffffffffffffffffffffffffffff1614610be257610ba6610f6f565b6040517f118cdaa7000000000000000000000000000000000000000000000000000000008152600401610bd9919061163e565b60405180910390fd5b565b60008060009054906101000a900473ffffffffffffffffffffffffffffffffffffffff169050816000806101000a81548173ffffffffffffffffffffffffffffffffffffffff021916908373ffffffffffffffffffffffffffffffffffffffff1602179055508173ffffffffffffffffffffffffffffffffffffffff168173ffffffffffffffffffffffffffffffffffffffff167f8be0079c531659141344cd1fd0a4f28419497f9722a3daafe3b4186f6b6457e060405160405180910390a35050565b6000601560008373ffffffffffffffffffffffffffffffffffffffff1673ffffffffffffffffffffffffffffffffffffffff168152602001908152602001600020604051806040016040529081600082018054610d049061171b565b80601f0160208091040260200160405190810160405280929190818152602001828054610d309061171b565b8015610d7d5780601f10610d5257610100808354040283529160200191610d7d565b820191906000526020600020905b815481529060010190602001808311610d6057829003601f168201915b50505050508152602001600182015481525050905060005b600a811015610e67578160000151604051602001610db39190611a10565b60405160208183030381529060405280519060200120600182600a8110610ddd57610ddc611dcb565b5b60020201600001604051602001610df49190611e7d565b6040516020818303038152906040528051906020012003610e5a5781600182600a8110610e2457610e23611dcb565b5b600202016000820151816000019081610e3d9190611cab565b5060208201518160010155905050610e53610f77565b5050610f6c565b8080600101915050610d95565b5060005b600a811015610f69578160200151600182600a8110610e8d57610e8c611dcb565b5b60020201600101541015610f5c576000600990505b81811115610f1a5760018082610eb89190611e94565b600a8110610ec957610ec8611dcb565b5b60020201600182600a8110610ee157610ee0611dcb565b5b6002020160008201816000019081610ef99190611ede565b50600182015481600101559050508080610f1290611fc6565b915050610ea2565b5081600182600a8110610f3057610f2f611dcb565b5b600202016000820151816000019081610f499190611cab565b5060208201518160010155905050610f69565b8080600101915050610e6b565b50505b50565b600033905090565b60005b600a81101561114a576000600182610f929190611fef565b90505b600a81101561113c57600182600a8110610fb257610fb1611dcb565b5b6002020160010154600182600a8110610fce57610fcd611dcb565b5b6002020160010154111561112f576000600183600a8110610ff257610ff1611dcb565b5b600202016040518060400160405290816000820180546110119061171b565b80601f016020809104026020016040519081016040528092919081815260200182805461103d9061171b565b801561108a5780601f1061105f5761010080835404028352916020019161108a565b820191906000526020600020905b81548152906001019060200180831161106d57829003601f168201915b505050505081526020016001820154815250509050600182600a81106110b3576110b2611dcb565b5b60020201600184600a81106110cb576110ca611dcb565b5b60020201600082018160000190816110e39190611ede565b506001820154816001015590505080600183600a811061110657611105611dcb565b5b60020201600082015181600001908161111f9190611cab565b5060208201518160010155905050505b8080600101915050610f95565b508080600101915050610f7a565b50565b604051806101400160405280600a905b61116561117b565b81526020019060019003908161115d5790505090565b604051806040016040528060608152602001600081525090565b6000604051905090565b600080fd5b600080fd5b600080fd5b600080fd5b6000601f19601f8301169050919050565b7f4e487b7100000000000000000000000000000000000000000000000000000000600052604160045260246000fd5b6111fc826111b3565b810181811067ffffffffffffffff8211171561121b5761121a6111c4565b5b80604052505050565b600061122e611195565b905061123a82826111f3565b919050565b600067ffffffffffffffff82111561125a576112596111c4565b5b611263826111b3565b9050602081019050919050565b82818337600083830152505050565b600061129261128d8461123f565b611224565b9050828152602081018484840111156112ae576112ad6111ae565b5b6112b9848285611270565b509392505050565b600082601f8301126112d6576112d56111a9565b5b81356112e684826020860161127f565b91505092915050565b6000602082840312156113055761130461119f565b5b600082013567ffffffffffffffff811115611323576113226111a4565b5b61132f848285016112c1565b91505092915050565b60008115159050919050565b61134d81611338565b82525050565b60006020820190506113686000830184611344565b92915050565b6000819050919050565b6113818161136e565b811461138c57600080fd5b50565b60008135905061139e81611378565b92915050565b6000602082840312156113ba576113b961119f565b5b60006113c88482850161138f565b91505092915050565b600081519050919050565b600082825260208201905092915050565b60005b8381101561140b5780820151818401526020810190506113f0565b60008484015250505050565b6000611422826113d1565b61142c81856113dc565b935061143c8185602086016113ed565b611445816111b3565b840191505092915050565b6114598161136e565b82525050565b600060408201905081810360008301526114798185611417565b90506114886020830184611450565b9392505050565b6000600a9050919050565b600081905092915050565b6000819050919050565b600082825260208201905092915050565b60006114cb826113d1565b6114d581856114af565b93506114e58185602086016113ed565b6114ee816111b3565b840191505092915050565b6115028161136e565b82525050565b6000604083016000830151848203600086015261152582826114c0565b915050602083015161153a60208601826114f9565b508091505092915050565b60006115518383611508565b905092915050565b6000602082019050919050565b60006115718261148f565b61157b818561149a565b93508360208202850161158d856114a5565b8060005b858110156115c957848403895281516115aa8582611545565b94506115b583611559565b925060208a01995050600181019050611591565b50829750879550505050505092915050565b600060208201905081810360008301526115f58184611566565b905092915050565b600073ffffffffffffffffffffffffffffffffffffffff82169050919050565b6000611628826115fd565b9050919050565b6116388161161d565b82525050565b6000602082019050611653600083018461162f565b92915050565b6116628161161d565b811461166d57600080fd5b50565b60008135905061167f81611659565b92915050565b60006020828403121561169b5761169a61119f565b5b60006116a984828501611670565b91505092915050565b600063ffffffff82169050919050565b6116cb816116b2565b82525050565b60006020820190506116e660008301846116c2565b92915050565b7f4e487b7100000000000000000000000000000000000000000000000000000000600052602260045260246000fd5b6000600282049050600182168061173357607f821691505b602082108103611746576117456116ec565b5b50919050565b7f4e6f2062616c616e636520746f20776974686472617700000000000000000000600082015250565b60006117826016836113dc565b915061178d8261174c565b602082019050919050565b600060208201905081810360008301526117b181611775565b9050919050565b600081905092915050565b50565b60006117d36000836117b8565b91506117de826117c3565b600082019050919050565b60006117f4826117c6565b9150819050919050565b7f5769746864726177616c206661696c6564000000000000000000000000000000600082015250565b60006118346011836113dc565b915061183f826117fe565b602082019050919050565b6000602082019050818103600083015261186381611827565b9050919050565b600060208201905061187f6000830184611450565b92915050565b7f55736572206e6f74207265676973746572656400000000000000000000000000600082015250565b60006118bb6013836113dc565b91506118c682611885565b602082019050919050565b600060208201905081810360008301526118ea816118ae565b9050919050565b7f4e487b7100000000000000000000000000000000000000000000000000000000600052601160045260246000fd5b600061192b8261136e565b91507fffffffffffffffffffffffffffffffffffffffffffffffffffffffffffffffff820361195d5761195c6118f1565b5b600182019050919050565b7f557365726e616d652063616e6e6f7420626520656d7074790000000000000000600082015250565b600061199e6018836113dc565b91506119a982611968565b602082019050919050565b600060208201905081810360008301526119cd81611991565b9050919050565b600081905092915050565b60006119ea826113d1565b6119f481856119d4565b9350611a048185602086016113ed565b80840191505092915050565b6000611a1c82846119df565b915081905092915050565b7f557365726e616d6520616c72656164792074616b656e00000000000000000000600082015250565b6000611a5d6016836113dc565b9150611a6882611a27565b602082019050919050565b60006020820190508181036000830152611a8c81611a50565b9050919050565b7f5573657220616c72656164792072656769737465726564000000000000000000600082015250565b6000611ac96017836113dc565b9150611ad482611a93565b602082019050919050565b60006020820190508181036000830152611af881611abc565b9050919050565b60008190508160005260206000209050919050565b60006020601f8301049050919050565b600082821b905092915050565b600060088302611b617fffffffffffffffffffffffffffffffffffffffffffffffffffffffffffffffff82611b24565b611b6b8683611b24565b95508019841693508086168417925050509392505050565b6000819050919050565b6000611ba8611ba3611b9e8461136e565b611b83565b61136e565b9050919050565b6000819050919050565b611bc283611b8d565b611bd6611bce82611baf565b848454611b31565b825550505050565b600090565b611beb611bde565b611bf6818484611bb9565b505050565b5b81811015611c1a57611c0f600082611be3565b600181019050611bfc565b5050565b601f821115611c5f57611c3081611aff565b611c3984611b14565b81016020851015611c48578190505b611c5c611c5485611b14565b830182611bfb565b50505b505050565b600082821c905092915050565b6000611c8260001984600802611c64565b1980831691505092915050565b6000611c9b8383611c71565b9150826002028217905092915050565b611cb4826113d1565b67ffffffffffffffff811115611ccd57611ccc6111c4565b5b611cd7825461171b565b611ce2828285611c1e565b600060209050601f831160018114611d155760008415611d03578287015190505b611d0d8582611c8f565b865550611d75565b601f198416611d2386611aff565b60005b82811015611d4b57848901518255600182019150602085019450602081019050611d26565b86831015611d685784890151611d64601f891682611c71565b8355505b6001600288020188555050505b505050505050565b6000611d88826116b2565b915063ffffffff8203611d9e57611d9d6118f1565b5b600182019050919050565b60006020820190508181036000830152611dc38184611417565b905092915050565b7f4e487b7100000000000000000000000000000000000000000000000000000000600052603260045260246000fd5b60008154611e078161171b565b611e1181866119d4565b94506001821660008114611e2c5760018114611e4157611e74565b60ff1983168652811515820286019350611e74565b611e4a85611aff565b60005b83811015611e6c57815481890152600182019150602081019050611e4d565b838801955050505b50505092915050565b6000611e898284611dfa565b915081905092915050565b6000611e9f8261136e565b9150611eaa8361136e565b9250828203905081811115611ec257611ec16118f1565b5b92915050565b600081549050611ed78161171b565b9050919050565b818103611eec575050611fc4565b611ef582611ec8565b67ffffffffffffffff811115611f0e57611f0d6111c4565b5b611f18825461171b565b611f23828285611c1e565b6000601f831160018114611f525760008415611f40578287015490505b611f4a8582611c8f565b865550611fbd565b601f198416611f6087611aff565b9650611f6b86611aff565b60005b82811015611f9357848901548255600182019150600185019450602081019050611f6e565b86831015611fb05784890154611fac601f891682611c71565b8355505b6001600288020188555050505b5050505050505b565b6000611fd18261136e565b915060008203611fe457611fe36118f1565b5b600182039050919050565b6000611ffa8261136e565b91506120058361136e565b925082820190508082111561201d5761201c6118f1565b5b9291505056fea2646970667358221220aabe253b55a2c3706d620b5e0d6f7604de926249d614b4318088e799ba8de8e964736f6c634300081c0033",
          "opcodes": "PUSH1 0x80 PUSH1 0x40 MSTORE CALLVALUE DUP1 ISZERO PUSH2 0x10 JUMPI PUSH1 0x0 DUP1 REVERT JUMPDEST POP CALLER PUSH1 0x0 PUSH20 0xFFFFFFFFFFFFFFFFFFFFFFFFFFFFFFFFFFFFFFFF AND DUP2 PUSH20 0xFFFFFFFFFFFFFFFFFFFFFFFFFFFFFFFFFFFFFFFF AND SUB PUSH2 0x84 JUMPI PUSH1 0x0 PUSH1 0x40 MLOAD PUSH32 0x1E4FBDF700000000000000000000000000000000000000000000000000000000 DUP2 MSTORE PUSH1 0x4 ADD PUSH2 0x7B SWAP2 SWAP1 PUSH2 0x19E JUMP JUMPDEST PUSH1 0x40 MLOAD DUP1 SWAP2 SUB SWAP1 REVERT JUMPDEST PUSH2 0x93 DUP2 PUSH2 0x99 PUSH1 0x20 SHL PUSH1 0x20 SHR JUMP JUMPDEST POP PUSH2 0x1B9 JUMP JUMPDEST PUSH1 0x0 DUP1 PUSH1 0x0 SWAP1 SLOAD SWAP1 PUSH2 0x100 EXP SWAP1 DIV PUSH20 0xFFFFFFFFFFFFFFFFFFFFFFFFFFFFFFFFFFFFFFFF AND SWAP1 POP DUP2 PUSH1 0x0 DUP1 PUSH2 0x100 EXP DUP2 SLOAD DUP2 PUSH20 0xFFFFFFFFFFFFFFFFFFFFFFFFFFFFFFFFFFFFFFFF MUL NOT AND SWAP1 DUP4 PUSH20 0xFFFFFFFFFFFFFFFFFFFFFFFFFFFFFFFFFFFFFFFF AND MUL OR SWAP1 SSTORE POP DUP2 PUSH20 0xFFFFFFFFFFFFFFFFFFFFFFFFFFFFFFFFFFFFFFFF AND DUP2 PUSH20 0xFFFFFFFFFFFFFFFFFFFFFFFFFFFFFFFFFFFFFFFF AND PUSH32 0x8BE0079C531659141344CD1FD0A4F28419497F9722A3DAAFE3B4186F6B6457E0 PUSH1 0x40 MLOAD PUSH1 0x40 MLOAD DUP1 SWAP2 SUB SWAP1 LOG3 POP POP JUMP JUMPDEST PUSH1 0x0 PUSH20 0xFFFFFFFFFFFFFFFFFFFFFFFFFFFFFFFFFFFFFFFF DUP3 AND SWAP1 POP SWAP2 SWAP1 POP JUMP JUMPDEST PUSH1 0x0 PUSH2 0x188 DUP3 PUSH2 0x15D JUMP JUMPDEST SWAP1 POP SWAP2 SWAP1 POP JUMP JUMPDEST PUSH2 0x198 DUP2 PUSH2 0x17D JUMP JUMPDEST DUP3 MSTORE POP POP JUMP JUMPDEST PUSH1 0x0 PUSH1 0x20 DUP3 ADD SWAP1 POP PUSH2 0x1B3 PUSH1 0x0 DUP4 ADD DUP5 PUSH2 0x18F JUMP JUMPDEST SWAP3 SWAP2 POP POP JUMP JUMPDEST PUSH2 0x2059 DUP1 PUSH2 0x1C8 PUSH1 0x0 CODECOPY PUSH1 0x0 RETURN INVALID PUSH1 0x80 PUSH1 0x40 MSTORE CALLVALUE DUP1 ISZERO PUSH2 0x10 JUMPI PUSH1 0x0 DUP1 REVERT JUMPDEST POP PUSH1 0x4 CALLDATASIZE LT PUSH2 0xB4 JUMPI PUSH1 0x0 CALLDATALOAD PUSH1 0xE0 SHR DUP1 PUSH4 0x8DA5CB5B GT PUSH2 0x71 JUMPI DUP1 PUSH4 0x8DA5CB5B EQ PUSH2 0x156 JUMPI DUP1 PUSH4 0xA87430BA EQ PUSH2 0x174 JUMPI DUP1 PUSH4 0xBFF1F9E1 EQ PUSH2 0x1A5 JUMPI DUP1 PUSH4 0xC3C5A547 EQ PUSH2 0x1C3 JUMPI DUP1 PUSH4 0xF2C298BE EQ PUSH2 0x1F3 JUMPI DUP1 PUSH4 0xF2FDE38B EQ PUSH2 0x20F JUMPI PUSH2 0xB4 JUMP JUMPDEST DUP1 PUSH4 0x176C5919 EQ PUSH2 0xB9 JUMPI DUP1 PUSH4 0x2BB43CCB EQ PUSH2 0xE9 JUMPI DUP1 PUSH4 0x3CCFD60B EQ PUSH2 0x11A JUMPI DUP1 PUSH4 0x6D763A6E EQ PUSH2 0x124 JUMPI DUP1 PUSH4 0x715018A6 EQ PUSH2 0x142 JUMPI DUP1 PUSH4 0x7D55923D EQ PUSH2 0x14C JUMPI JUMPDEST PUSH1 0x0 DUP1 REVERT JUMPDEST PUSH2 0xD3 PUSH1 0x4 DUP1 CALLDATASIZE SUB DUP2 ADD SWAP1 PUSH2 0xCE SWAP2 SWAP1 PUSH2 0x12EF JUMP JUMPDEST PUSH2 0x22B JUMP JUMPDEST PUSH1 0x40 MLOAD PUSH2 0xE0 SWAP2 SWAP1 PUSH2 0x1353 JUMP JUMPDEST PUSH1 0x40 MLOAD DUP1 SWAP2 SUB SWAP1 RETURN JUMPDEST PUSH2 0x103 PUSH1 0x4 DUP1 CALLDATASIZE SUB DUP2 ADD SWAP1 PUSH2 0xFE SWAP2 SWAP1 PUSH2 0x13A4 JUMP JUMPDEST PUSH2 0x261 JUMP JUMPDEST PUSH1 0x40 MLOAD PUSH2 0x111 SWAP3 SWAP2 SWAP1 PUSH2 0x145F JUMP JUMPDEST PUSH1 0x40 MLOAD DUP1 SWAP2 SUB SWAP1 RETURN JUMPDEST PUSH2 0x122 PUSH2 0x313 JUMP JUMPDEST STOP JUMPDEST PUSH2 0x12C PUSH2 0x46F JUMP JUMPDEST PUSH1 0x40 MLOAD PUSH2 0x139 SWAP2 SWAP1 PUSH2 0x15DB JUMP JUMPDEST PUSH1 0x40 MLOAD DUP1 SWAP2 SUB SWAP1 RETURN JUMPDEST PUSH2 0x14A PUSH2 0x55D JUMP JUMPDEST STOP JUMPDEST PUSH2 0x154 PUSH2 0x571 JUMP JUMPDEST STOP JUMPDEST PUSH2 0x15E PUSH2 0x6F0 JUMP JUMPDEST PUSH1 0x40 MLOAD PUSH2 0x16B SWAP2 SWAP1 PUSH2 0x163E JUMP JUMPDEST PUSH1 0x40 MLOAD DUP1 SWAP2 SUB SWAP1 RETURN JUMPDEST PUSH2 0x18E PUSH1 0x4 DUP1 CALLDATASIZE SUB DUP2 ADD SWAP1 PUSH2 0x189 SWAP2 SWAP1 PUSH2 0x1685 JUMP JUMPDEST PUSH2 0x719 JUMP JUMPDEST PUSH1 0x40 MLOAD PUSH2 0x19C SWAP3 SWAP2 SWAP1 PUSH2 0x145F JUMP JUMPDEST PUSH1 0x40 MLOAD DUP1 SWAP2 SUB SWAP1 RETURN JUMPDEST PUSH2 0x1AD PUSH2 0x7C5 JUMP JUMPDEST PUSH1 0x40 MLOAD PUSH2 0x1BA SWAP2 SWAP1 PUSH2 0x16D1 JUMP JUMPDEST PUSH1 0x40 MLOAD DUP1 SWAP2 SUB SWAP1 RETURN JUMPDEST PUSH2 0x1DD PUSH1 0x4 DUP1 CALLDATASIZE SUB DUP2 ADD SWAP1 PUSH2 0x1D8 SWAP2 SWAP1 PUSH2 0x1685 JUMP JUMPDEST PUSH2 0x7DB JUMP JUMPDEST PUSH1 0x40 MLOAD PUSH2 0x1EA SWAP2 SWAP1 PUSH2 0x1353 JUMP JUMPDEST PUSH1 0x40 MLOAD DUP1 SWAP2 SUB SWAP1 RETURN JUMPDEST PUSH2 0x20D PUSH1 0x4 DUP1 CALLDATASIZE SUB DUP2 ADD SWAP1 PUSH2 0x208 SWAP2 SWAP1 PUSH2 0x12EF JUMP JUMPDEST PUSH2 0x7FB JUMP JUMPDEST STOP JUMPDEST PUSH2 0x229 PUSH1 0x4 DUP1 CALLDATASIZE SUB DUP2 ADD SWAP1 PUSH2 0x224 SWAP2 SWAP1 PUSH2 0x1685 JUMP JUMPDEST PUSH2 0xAD7 JUMP JUMPDEST STOP JUMPDEST PUSH1 0x17 DUP2 DUP1 MLOAD PUSH1 0x20 DUP2 ADD DUP3 ADD DUP1 MLOAD DUP5 DUP3 MSTORE PUSH1 0x20 DUP4 ADD PUSH1 0x20 DUP6 ADD KECCAK256 DUP2 DUP4 MSTORE DUP1 SWAP6 POP POP POP POP POP POP PUSH1 0x0 SWAP2 POP SLOAD SWAP1 PUSH2 0x100 EXP SWAP1 DIV PUSH1 0xFF AND DUP2 JUMP JUMPDEST PUSH1 0x1 DUP2 PUSH1 0xA DUP2 LT PUSH2 0x271 JUMPI PUSH1 0x0 DUP1 REVERT JUMPDEST PUSH1 0x2 MUL ADD PUSH1 0x0 SWAP2 POP SWAP1 POP DUP1 PUSH1 0x0 ADD DUP1 SLOAD PUSH2 0x28A SWAP1 PUSH2 0x171B JUMP JUMPDEST DUP1 PUSH1 0x1F ADD PUSH1 0x20 DUP1 SWAP2 DIV MUL PUSH1 0x20 ADD PUSH1 0x40 MLOAD SWAP1 DUP2 ADD PUSH1 0x40 MSTORE DUP1 SWAP3 SWAP2 SWAP1 DUP2 DUP2 MSTORE PUSH1 0x20 ADD DUP3 DUP1 SLOAD PUSH2 0x2B6 SWAP1 PUSH2 0x171B JUMP JUMPDEST DUP1 ISZERO PUSH2 0x303 JUMPI DUP1 PUSH1 0x1F LT PUSH2 0x2D8 JUMPI PUSH2 0x100 DUP1 DUP4 SLOAD DIV MUL DUP4 MSTORE SWAP2 PUSH1 0x20 ADD SWAP2 PUSH2 0x303 JUMP JUMPDEST DUP3 ADD SWAP2 SWAP1 PUSH1 0x0 MSTORE PUSH1 0x20 PUSH1 0x0 KECCAK256 SWAP1 JUMPDEST DUP2 SLOAD DUP2 MSTORE SWAP1 PUSH1 0x1 ADD SWAP1 PUSH1 0x20 ADD DUP1 DUP4 GT PUSH2 0x2E6 JUMPI DUP3 SWAP1 SUB PUSH1 0x1F AND DUP3 ADD SWAP2 JUMPDEST POP POP POP POP POP SWAP1 DUP1 PUSH1 0x1 ADD SLOAD SWAP1 POP DUP3 JUMP JUMPDEST PUSH2 0x31B PUSH2 0xB5D JUMP JUMPDEST PUSH1 0x0 SELFBALANCE SWAP1 POP PUSH1 0x0 DUP2 GT PUSH2 0x363 JUMPI PUSH1 0x40 MLOAD PUSH32 0x8C379A000000000000000000000000000000000000000000000000000000000 DUP2 MSTORE PUSH1 0x4 ADD PUSH2 0x35A SWAP1 PUSH2 0x1798 JUMP JUMPDEST PUSH1 0x40 MLOAD DUP1 SWAP2 SUB SWAP1 REVERT JUMPDEST PUSH1 0x0 PUSH2 0x36D PUSH2 0x6F0 JUMP JUMPDEST PUSH20 0xFFFFFFFFFFFFFFFFFFFFFFFFFFFFFFFFFFFFFFFF AND DUP3 PUSH1 0x40 MLOAD PUSH2 0x390 SWAP1 PUSH2 0x17E9 JUMP JUMPDEST PUSH1 0x0 PUSH1 0x40 MLOAD DUP1 DUP4 SUB DUP2 DUP6 DUP8 GAS CALL SWAP3 POP POP POP RETURNDATASIZE DUP1 PUSH1 0x0 DUP2 EQ PUSH2 0x3CD JUMPI PUSH1 0x40 MLOAD SWAP2 POP PUSH1 0x1F NOT PUSH1 0x3F RETURNDATASIZE ADD AND DUP3 ADD PUSH1 0x40 MSTORE RETURNDATASIZE DUP3 MSTORE RETURNDATASIZE PUSH1 0x0 PUSH1 0x20 DUP5 ADD RETURNDATACOPY PUSH2 0x3D2 JUMP JUMPDEST PUSH1 0x60 SWAP2 POP JUMPDEST POP POP SWAP1 POP DUP1 PUSH2 0x416 JUMPI PUSH1 0x40 MLOAD PUSH32 0x8C379A000000000000000000000000000000000000000000000000000000000 DUP2 MSTORE PUSH1 0x4 ADD PUSH2 0x40D SWAP1 PUSH2 0x184A JUMP JUMPDEST PUSH1 0x40 MLOAD DUP1 SWAP2 SUB SWAP1 REVERT JUMPDEST PUSH2 0x41E PUSH2 0x6F0 JUMP JUMPDEST PUSH20 0xFFFFFFFFFFFFFFFFFFFFFFFFFFFFFFFFFFFFFFFF AND PUSH32 0x884EDAD9CE6FA2440D8A54CC123490EB96D2768479D49FF9C7366125A9424364 DUP4 PUSH1 0x40 MLOAD PUSH2 0x463 SWAP2 SWAP1 PUSH2 0x186A JUMP JUMPDEST PUSH1 0x40 MLOAD DUP1 SWAP2 SUB SWAP1 LOG2 POP POP JUMP JUMPDEST PUSH2 0x477 PUSH2 0x114D JUMP JUMPDEST PUSH1 0x1 PUSH1 0xA DUP1 PUSH1 0x20 MUL PUSH1 0x40 MLOAD SWAP1 DUP2 ADD PUSH1 0x40 MSTORE DUP1 SWAP3 SWAP2 SWAP1 PUSH1 0x0 SWAP1 JUMPDEST DUP3 DUP3 LT ISZERO PUSH2 0x554 JUMPI DUP4 DUP3 PUSH1 0x2 MUL ADD PUSH1 0x40 MLOAD DUP1 PUSH1 0x40 ADD PUSH1 0x40 MSTORE SWAP1 DUP2 PUSH1 0x0 DUP3 ADD DUP1 SLOAD PUSH2 0x4B9 SWAP1 PUSH2 0x171B JUMP JUMPDEST DUP1 PUSH1 0x1F ADD PUSH1 0x20 DUP1 SWAP2 DIV MUL PUSH1 0x20 ADD PUSH1 0x40 MLOAD SWAP1 DUP2 ADD PUSH1 0x40 MSTORE DUP1 SWAP3 SWAP2 SWAP1 DUP2 DUP2 MSTORE PUSH1 0x20 ADD DUP3 DUP1 SLOAD PUSH2 0x4E5 SWAP1 PUSH2 0x171B JUMP JUMPDEST DUP1 ISZERO PUSH2 0x532 JUMPI DUP1 PUSH1 0x1F LT PUSH2 0x507 JUMPI PUSH2 0x100 DUP1 DUP4 SLOAD DIV MUL DUP4 MSTORE SWAP2 PUSH1 0x20 ADD SWAP2 PUSH2 0x532 JUMP JUMPDEST DUP3 ADD SWAP2 SWAP1 PUSH1 0x0 MSTORE PUSH1 0x20 PUSH1 0x0 KECCAK256 SWAP1 JUMPDEST DUP2 SLOAD DUP2 MSTORE SWAP1 PUSH1 0x1 ADD SWAP1 PUSH1 0x20 ADD DUP1 DUP4 GT PUSH2 0x515 JUMPI DUP3 SWAP1 SUB PUSH1 0x1F AND DUP3 ADD SWAP2 JUMPDEST POP POP POP POP POP DUP2 MSTORE PUSH1 0x20 ADD PUSH1 0x1 DUP3 ADD SLOAD DUP2 MSTORE POP POP DUP2 MSTORE PUSH1 0x20 ADD SWAP1 PUSH1 0x1 ADD SWAP1 PUSH2 0x490 JUMP JUMPDEST POP POP POP POP SWAP1 POP SWAP1 JUMP JUMPDEST PUSH2 0x565 PUSH2 0xB5D JUMP JUMPDEST PUSH2 0x56F PUSH1 0x0 PUSH2 0xBE4 JUMP JUMPDEST JUMP JUMPDEST PUSH1 0x16 PUSH1 0x0 CALLER PUSH20 0xFFFFFFFFFFFFFFFFFFFFFFFFFFFFFFFFFFFFFFFF AND PUSH20 0xFFFFFFFFFFFFFFFFFFFFFFFFFFFFFFFFFFFFFFFF AND DUP2 MSTORE PUSH1 0x20 ADD SWAP1 DUP2 MSTORE PUSH1 0x20 ADD PUSH1 0x0 KECCAK256 PUSH1 0x0 SWAP1 SLOAD SWAP1 PUSH2 0x100 EXP SWAP1 DIV PUSH1 0xFF AND PUSH2 0x5FD JUMPI PUSH1 0x40 MLOAD PUSH32 0x8C379A000000000000000000000000000000000000000000000000000000000 DUP2 MSTORE PUSH1 0x4 ADD PUSH2 0x5F4 SWAP1 PUSH2 0x18D1 JUMP JUMPDEST PUSH1 0x40 MLOAD DUP1 SWAP2 SUB SWAP1 REVERT JUMPDEST PUSH1 0x15 PUSH1 0x0 CALLER PUSH20 0xFFFFFFFFFFFFFFFFFFFFFFFFFFFFFFFFFFFFFFFF AND PUSH20 0xFFFFFFFFFFFFFFFFFFFFFFFFFFFFFFFFFFFFFFFF AND DUP2 MSTORE PUSH1 0x20 ADD SWAP1 DUP2 MSTORE PUSH1 0x20 ADD PUSH1 0x0 KECCAK256 PUSH1 0x1 ADD PUSH1 0x0 DUP2 SLOAD DUP1 SWAP3 SWAP2 SWAP1 PUSH2 0x650 SWAP1 PUSH2 0x1920 JUMP JUMPDEST SWAP2 SWAP1 POP SSTORE POP PUSH2 0x65E CALLER PUSH2 0xCA8 JUMP JUMPDEST CALLER PUSH20 0xFFFFFFFFFFFFFFFFFFFFFFFFFFFFFFFFFFFFFFFF AND PUSH32 0x9CB0084F66100232B6CDCEE6915499FBFB0CD080317C9488BD71880F8CDB91DC PUSH1 0x15 PUSH1 0x0 CALLER PUSH20 0xFFFFFFFFFFFFFFFFFFFFFFFFFFFFFFFFFFFFFFFF AND PUSH20 0xFFFFFFFFFFFFFFFFFFFFFFFFFFFFFFFFFFFFFFFF AND DUP2 MSTORE PUSH1 0x20 ADD SWAP1 DUP2 MSTORE PUSH1 0x20 ADD PUSH1 0x0 KECCAK256 PUSH1 0x1 ADD SLOAD PUSH1 0x40 MLOAD PUSH2 0x6E6 SWAP2 SWAP1 PUSH2 0x186A JUMP JUMPDEST PUSH1 0x40 MLOAD DUP1 SWAP2 SUB SWAP1 LOG2 JUMP JUMPDEST PUSH1 0x0 DUP1 PUSH1 0x0 SWAP1 SLOAD SWAP1 PUSH2 0x100 EXP SWAP1 DIV PUSH20 0xFFFFFFFFFFFFFFFFFFFFFFFFFFFFFFFFFFFFFFFF AND SWAP1 POP SWAP1 JUMP JUMPDEST PUSH1 0x15 PUSH1 0x20 MSTORE DUP1 PUSH1 0x0 MSTORE PUSH1 0x40 PUSH1 0x0 KECCAK256 PUSH1 0x0 SWAP2 POP SWAP1 POP DUP1 PUSH1 0x0 ADD DUP1 SLOAD PUSH2 0x73C SWAP1 PUSH2 0x171B JUMP JUMPDEST DUP1 PUSH1 0x1F ADD PUSH1 0x20 DUP1 SWAP2 DIV MUL PUSH1 0x20 ADD PUSH1 0x40 MLOAD SWAP1 DUP2 ADD PUSH1 0x40 MSTORE DUP1 SWAP3 SWAP2 SWAP1 DUP2 DUP2 MSTORE PUSH1 0x20 ADD DUP3 DUP1 SLOAD PUSH2 0x768 SWAP1 PUSH2 0x171B JUMP JUMPDEST DUP1 ISZERO PUSH2 0x7B5 JUMPI DUP1 PUSH1 0x1F LT PUSH2 0x78A JUMPI PUSH2 0x100 DUP1 DUP4 SLOAD DIV MUL DUP4 MSTORE SWAP2 PUSH1 0x20 ADD SWAP2 PUSH2 0x7B5 JUMP JUMPDEST DUP3 ADD SWAP2 SWAP1 PUSH1 0x0 MSTORE PUSH1 0x20 PUSH1 0x0 KECCAK256 SWAP1 JUMPDEST DUP2 SLOAD DUP2 MSTORE SWAP1 PUSH1 0x1 ADD SWAP1 PUSH1 0x20 ADD DUP1 DUP4 GT PUSH2 0x798 JUMPI DUP3 SWAP1 SUB PUSH1 0x1F AND DUP3 ADD SWAP2 JUMPDEST POP POP POP POP POP SWAP1 DUP1 PUSH1 0x1 ADD SLOAD SWAP1 POP DUP3 JUMP JUMPDEST PUSH1 0x0 PUSH1 0x14 SWAP1 SLOAD SWAP1 PUSH2 0x100 EXP SWAP1 DIV PUSH4 0xFFFFFFFF AND DUP2 JUMP JUMPDEST PUSH1 0x16 PUSH1 0x20 MSTORE DUP1 PUSH1 0x0 MSTORE PUSH1 0x40 PUSH1 0x0 KECCAK256 PUSH1 0x0 SWAP2 POP SLOAD SWAP1 PUSH2 0x100 EXP SWAP1 DIV PUSH1 0xFF AND DUP2 JUMP JUMPDEST PUSH1 0x0 DUP2 MLOAD GT PUSH2 0x83F JUMPI PUSH1 0x40 MLOAD PUSH32 0x8C379A000000000000000000000000000000000000000000000000000000000 DUP2 MSTORE PUSH1 0x4 ADD PUSH2 0x836 SWAP1 PUSH2 0x19B4 JUMP JUMPDEST PUSH1 0x40 MLOAD DUP1 SWAP2 SUB SWAP1 REVERT JUMPDEST PUSH1 0x17 DUP2 PUSH1 0x40 MLOAD PUSH2 0x84F SWAP2 SWAP1 PUSH2 0x1A10 JUMP JUMPDEST SWAP1 DUP2 MSTORE PUSH1 0x20 ADD PUSH1 0x40 MLOAD DUP1 SWAP2 SUB SWAP1 KECCAK256 PUSH1 0x0 SWAP1 SLOAD SWAP1 PUSH2 0x100 EXP SWAP1 DIV PUSH1 0xFF AND ISZERO PUSH2 0x8AB JUMPI PUSH1 0x40 MLOAD PUSH32 0x8C379A000000000000000000000000000000000000000000000000000000000 DUP2 MSTORE PUSH1 0x4 ADD PUSH2 0x8A2 SWAP1 PUSH2 0x1A73 JUMP JUMPDEST PUSH1 0x40 MLOAD DUP1 SWAP2 SUB SWAP1 REVERT JUMPDEST PUSH1 0x16 PUSH1 0x0 CALLER PUSH20 0xFFFFFFFFFFFFFFFFFFFFFFFFFFFFFFFFFFFFFFFF AND PUSH20 0xFFFFFFFFFFFFFFFFFFFFFFFFFFFFFFFFFFFFFFFF AND DUP2 MSTORE PUSH1 0x20 ADD SWAP1 DUP2 MSTORE PUSH1 0x20 ADD PUSH1 0x0 KECCAK256 PUSH1 0x0 SWAP1 SLOAD SWAP1 PUSH2 0x100 EXP SWAP1 DIV PUSH1 0xFF AND ISZERO PUSH2 0x938 JUMPI PUSH1 0x40 MLOAD PUSH32 0x8C379A000000000000000000000000000000000000000000000000000000000 DUP2 MSTORE PUSH1 0x4 ADD PUSH2 0x92F SWAP1 PUSH2 0x1ADF JUMP JUMPDEST PUSH1 0x40 MLOAD DUP1 SWAP2 SUB SWAP1 REVERT JUMPDEST PUSH1 0x0 PUSH1 0x40 MLOAD DUP1 PUSH1 0x40 ADD PUSH1 0x40 MSTORE DUP1 DUP4 DUP2 MSTORE PUSH1 0x20 ADD PUSH1 0x0 DUP2 MSTORE POP SWAP1 POP DUP1 PUSH1 0x15 PUSH1 0x0 CALLER PUSH20 0xFFFFFFFFFFFFFFFFFFFFFFFFFFFFFFFFFFFFFFFF AND PUSH20 0xFFFFFFFFFFFFFFFFFFFFFFFFFFFFFFFFFFFFFFFF AND DUP2 MSTORE PUSH1 0x20 ADD SWAP1 DUP2 MSTORE PUSH1 0x20 ADD PUSH1 0x0 KECCAK256 PUSH1 0x0 DUP3 ADD MLOAD DUP2 PUSH1 0x0 ADD SWAP1 DUP2 PUSH2 0x9A7 SWAP2 SWAP1 PUSH2 0x1CAB JUMP JUMPDEST POP PUSH1 0x20 DUP3 ADD MLOAD DUP2 PUSH1 0x1 ADD SSTORE SWAP1 POP POP PUSH1 0x1 PUSH1 0x16 PUSH1 0x0 CALLER PUSH20 0xFFFFFFFFFFFFFFFFFFFFFFFFFFFFFFFFFFFFFFFF AND PUSH20 0xFFFFFFFFFFFFFFFFFFFFFFFFFFFFFFFFFFFFFFFF AND DUP2 MSTORE PUSH1 0x20 ADD SWAP1 DUP2 MSTORE PUSH1 0x20 ADD PUSH1 0x0 KECCAK256 PUSH1 0x0 PUSH2 0x100 EXP DUP2 SLOAD DUP2 PUSH1 0xFF MUL NOT AND SWAP1 DUP4 ISZERO ISZERO MUL OR SWAP1 SSTORE POP PUSH1 0x1 PUSH1 0x17 DUP4 PUSH1 0x40 MLOAD PUSH2 0xA1F SWAP2 SWAP1 PUSH2 0x1A10 JUMP JUMPDEST SWAP1 DUP2 MSTORE PUSH1 0x20 ADD PUSH1 0x40 MLOAD DUP1 SWAP2 SUB SWAP1 KECCAK256 PUSH1 0x0 PUSH2 0x100 EXP DUP2 SLOAD DUP2 PUSH1 0xFF MUL NOT AND SWAP1 DUP4 ISZERO ISZERO MUL OR SWAP1 SSTORE POP PUSH1 0x0 PUSH1 0x14 DUP2 DUP2 SWAP1 SLOAD SWAP1 PUSH2 0x100 EXP SWAP1 DIV PUSH4 0xFFFFFFFF AND DUP1 SWAP3 SWAP2 SWAP1 PUSH2 0xA66 SWAP1 PUSH2 0x1D7D JUMP JUMPDEST SWAP2 SWAP1 PUSH2 0x100 EXP DUP2 SLOAD DUP2 PUSH4 0xFFFFFFFF MUL NOT AND SWAP1 DUP4 PUSH4 0xFFFFFFFF AND MUL OR SWAP1 SSTORE POP POP CALLER PUSH20 0xFFFFFFFFFFFFFFFFFFFFFFFFFFFFFFFFFFFFFFFF AND PUSH32 0x48CAC28AD4DC618E15F4C2DD5E97751182F166DE97B25618318B2112AA951A2F DUP4 PUSH1 0x40 MLOAD PUSH2 0xACB SWAP2 SWAP1 PUSH2 0x1DA9 JUMP JUMPDEST PUSH1 0x40 MLOAD DUP1 SWAP2 SUB SWAP1 LOG2 POP POP JUMP JUMPDEST PUSH2 0xADF PUSH2 0xB5D JUMP JUMPDEST PUSH1 0x0 PUSH20 0xFFFFFFFFFFFFFFFFFFFFFFFFFFFFFFFFFFFFFFFF AND DUP2 PUSH20 0xFFFFFFFFFFFFFFFFFFFFFFFFFFFFFFFFFFFFFFFF AND SUB PUSH2 0xB51 JUMPI PUSH1 0x0 PUSH1 0x40 MLOAD PUSH32 0x1E4FBDF700000000000000000000000000000000000000000000000000000000 DUP2 MSTORE PUSH1 0x4 ADD PUSH2 0xB48 SWAP2 SWAP1 PUSH2 0x163E JUMP JUMPDEST PUSH1 0x40 MLOAD DUP1 SWAP2 SUB SWAP1 REVERT JUMPDEST PUSH2 0xB5A DUP2 PUSH2 0xBE4 JUMP JUMPDEST POP JUMP JUMPDEST PUSH2 0xB65 PUSH2 0xF6F JUMP JUMPDEST PUSH20 0xFFFFFFFFFFFFFFFFFFFFFFFFFFFFFFFFFFFFFFFF AND PUSH2 0xB83 PUSH2 0x6F0 JUMP JUMPDEST PUSH20 0xFFFFFFFFFFFFFFFFFFFFFFFFFFFFFFFFFFFFFFFF AND EQ PUSH2 0xBE2 JUMPI PUSH2 0xBA6 PUSH2 0xF6F JUMP JUMPDEST PUSH1 0x40 MLOAD PUSH32 0x118CDAA700000000000000000000000000000000000000000000000000000000 DUP2 MSTORE PUSH1 0x4 ADD PUSH2 0xBD9 SWAP2 SWAP1 PUSH2 0x163E JUMP JUMPDEST PUSH1 0x40 MLOAD DUP1 SWAP2 SUB SWAP1 REVERT JUMPDEST JUMP JUMPDEST PUSH1 0x0 DUP1 PUSH1 0x0 SWAP1 SLOAD SWAP1 PUSH2 0x100 EXP SWAP1 DIV PUSH20 0xFFFFFFFFFFFFFFFFFFFFFFFFFFFFFFFFFFFFFFFF AND SWAP1 POP DUP2 PUSH1 0x0 DUP1 PUSH2 0x100 EXP DUP2 SLOAD DUP2 PUSH20 0xFFFFFFFFFFFFFFFFFFFFFFFFFFFFFFFFFFFFFFFF MUL NOT AND SWAP1 DUP4 PUSH20 0xFFFFFFFFFFFFFFFFFFFFFFFFFFFFFFFFFFFFFFFF AND MUL OR SWAP1 SSTORE POP DUP2 PUSH20 0xFFFFFFFFFFFFFFFFFFFFFFFFFFFFFFFFFFFFFFFF AND DUP2 PUSH20 0xFFFFFFFFFFFFFFFFFFFFFFFFFFFFFFFFFFFFFFFF AND PUSH32 0x8BE0079C531659141344CD1FD0A4F28419497F9722A3DAAFE3B4186F6B6457E0 PUSH1 0x40 MLOAD PUSH1 0x40 MLOAD DUP1 SWAP2 SUB SWAP1 LOG3 POP POP JUMP JUMPDEST PUSH1 0x0 PUSH1 0x15 PUSH1 0x0 DUP4 PUSH20 0xFFFFFFFFFFFFFFFFFFFFFFFFFFFFFFFFFFFFFFFF AND PUSH20 0xFFFFFFFFFFFFFFFFFFFFFFFFFFFFFFFFFFFFFFFF AND DUP2 MSTORE PUSH1 0x20 ADD SWAP1 DUP2 MSTORE PUSH1 0x20 ADD PUSH1 0x0 KECCAK256 PUSH1 0x40 MLOAD DUP1 PUSH1 0x40 ADD PUSH1 0x40 MSTORE SWAP1 DUP2 PUSH1 0x0 DUP3 ADD DUP1 SLOAD PUSH2 0xD04 SWAP1 PUSH2 0x171B JUMP JUMPDEST DUP1 PUSH1 0x1F ADD PUSH1 0x20 DUP1 SWAP2 DIV MUL PUSH1 0x20 ADD PUSH1 0x40 MLOAD SWAP1 DUP2 ADD PUSH1 0x40 MSTORE DUP1 SWAP3 SWAP2 SWAP1 DUP2 DUP2 MSTORE PUSH1 0x20 ADD DUP3 DUP1 SLOAD PUSH2 0xD30 SWAP1 PUSH2 0x171B JUMP JUMPDEST DUP1 ISZERO PUSH2 0xD7D JUMPI DUP1 PUSH1 0x1F LT PUSH2 0xD52 JUMPI PUSH2 0x100 DUP1 DUP4 SLOAD DIV MUL DUP4 MSTORE SWAP2 PUSH1 0x20 ADD SWAP2 PUSH2 0xD7D JUMP JUMPDEST DUP3 ADD SWAP2 SWAP1 PUSH1 0x0 MSTORE PUSH1 0x20 PUSH1 0x0 KECCAK256 SWAP1 JUMPDEST DUP2 SLOAD DUP2 MSTORE SWAP1 PUSH1 0x1 ADD SWAP1 PUSH1 0x20 ADD DUP1 DUP4 GT PUSH2 0xD60 JUMPI DUP3 SWAP1 SUB PUSH1 0x1F AND DUP3 ADD SWAP2 JUMPDEST POP POP POP POP POP DUP2 MSTORE PUSH1 0x20 ADD PUSH1 0x1 DUP3 ADD SLOAD DUP2 MSTORE POP POP SWAP1 POP PUSH1 0x0 JUMPDEST PUSH1 0xA DUP2 LT ISZERO PUSH2 0xE67 JUMPI DUP2 PUSH1 0x0 ADD MLOAD PUSH1 0x40 MLOAD PUSH1 0x20 ADD PUSH2 0xDB3 SWAP2 SWAP1 PUSH2 0x1A10 JUMP JUMPDEST PUSH1 0x40 MLOAD PUSH1 0x20 DUP2 DUP4 SUB SUB DUP2 MSTORE SWAP1 PUSH1 0x40 MSTORE DUP1 MLOAD SWAP1 PUSH1 0x20 ADD KECCAK256 PUSH1 0x1 DUP3 PUSH1 0xA DUP2 LT PUSH2 0xDDD JUMPI PUSH2 0xDDC PUSH2 0x1DCB JUMP JUMPDEST JUMPDEST PUSH1 0x2 MUL ADD PUSH1 0x0 ADD PUSH1 0x40 MLOAD PUSH1 0x20 ADD PUSH2 0xDF4 SWAP2 SWAP1 PUSH2 0x1E7D JUMP JUMPDEST PUSH1 0x40 MLOAD PUSH1 0x20 DUP2 DUP4 SUB SUB DUP2 MSTORE SWAP1 PUSH1 0x40 MSTORE DUP1 MLOAD SWAP1 PUSH1 0x20 ADD KECCAK256 SUB PUSH2 0xE5A JUMPI DUP2 PUSH1 0x1 DUP3 PUSH1 0xA DUP2 LT PUSH2 0xE24 JUMPI PUSH2 0xE23 PUSH2 0x1DCB JUMP JUMPDEST JUMPDEST PUSH1 0x2 MUL ADD PUSH1 0x0 DUP3 ADD MLOAD DUP2 PUSH1 0x0 ADD SWAP1 DUP2 PUSH2 0xE3D SWAP2 SWAP1 PUSH2 0x1CAB JUMP JUMPDEST POP PUSH1 0x20 DUP3 ADD MLOAD DUP2 PUSH1 0x1 ADD SSTORE SWAP1 POP POP PUSH2 0xE53 PUSH2 0xF77 JUMP JUMPDEST POP POP PUSH2 0xF6C JUMP JUMPDEST DUP1 DUP1 PUSH1 0x1 ADD SWAP2 POP POP PUSH2 0xD95 JUMP JUMPDEST POP PUSH1 0x0 JUMPDEST PUSH1 0xA DUP2 LT ISZERO PUSH2 0xF69 JUMPI DUP2 PUSH1 0x20 ADD MLOAD PUSH1 0x1 DUP3 PUSH1 0xA DUP2 LT PUSH2 0xE8D JUMPI PUSH2 0xE8C PUSH2 0x1DCB JUMP JUMPDEST JUMPDEST PUSH1 0x2 MUL ADD PUSH1 0x1 ADD SLOAD LT ISZERO PUSH2 0xF5C JUMPI PUSH1 0x0 PUSH1 0x9 SWAP1 POP JUMPDEST DUP2 DUP2 GT ISZERO PUSH2 0xF1A JUMPI PUSH1 0x1 DUP1 DUP3 PUSH2 0xEB8 SWAP2 SWAP1 PUSH2 0x1E94 JUMP JUMPDEST PUSH1 0xA DUP2 LT PUSH2 0xEC9 JUMPI PUSH2 0xEC8 PUSH2 0x1DCB JUMP JUMPDEST JUMPDEST PUSH1 0x2 MUL ADD PUSH1 0x1 DUP3 PUSH1 0xA DUP2 LT PUSH2 0xEE1 JUMPI PUSH2 0xEE0 PUSH2 0x1DCB JUMP JUMPDEST JUMPDEST PUSH1 0x2 MUL ADD PUSH1 0x0 DUP3 ADD DUP2 PUSH1 0x0 ADD SWAP1 DUP2 PUSH2 0xEF9 SWAP2 SWAP1 PUSH2 0x1EDE JUMP JUMPDEST POP PUSH1 0x1 DUP3 ADD SLOAD DUP2 PUSH1 0x1 ADD SSTORE SWAP1 POP POP DUP1 DUP1 PUSH2 0xF12 SWAP1 PUSH2 0x1FC6 JUMP JUMPDEST SWAP2 POP POP PUSH2 0xEA2 JUMP JUMPDEST POP DUP2 PUSH1 0x1 DUP3 PUSH1 0xA DUP2 LT PUSH2 0xF30 JUMPI PUSH2 0xF2F PUSH2 0x1DCB JUMP JUMPDEST JUMPDEST PUSH1 0x2 MUL ADD PUSH1 0x0 DUP3 ADD MLOAD DUP2 PUSH1 0x0 ADD SWAP1 DUP2 PUSH2 0xF49 SWAP2 SWAP1 PUSH2 0x1CAB JUMP JUMPDEST POP PUSH1 0x20 DUP3 ADD MLOAD DUP2 PUSH1 0x1 ADD SSTORE SWAP1 POP POP PUSH2 0xF69 JUMP JUMPDEST DUP1 DUP1 PUSH1 0x1 ADD SWAP2 POP POP PUSH2 0xE6B JUMP JUMPDEST POP POP JUMPDEST POP JUMP JUMPDEST PUSH1 0x0 CALLER SWAP1 POP SWAP1 JUMP JUMPDEST PUSH1 0x0 JUMPDEST PUSH1 0xA DUP2 LT ISZERO PUSH2 0x114A JUMPI PUSH1 0x0 PUSH1 0x1 DUP3 PUSH2 0xF92 SWAP2 SWAP1 PUSH2 0x1FEF JUMP JUMPDEST SWAP1 POP JUMPDEST PUSH1 0xA DUP2 LT ISZERO PUSH2 0x113C JUMPI PUSH1 0x1 DUP3 PUSH1 0xA DUP2 LT PUSH2 0xFB2 JUMPI PUSH2 0xFB1 PUSH2 0x1DCB JUMP JUMPDEST JUMPDEST PUSH1 0x2 MUL ADD PUSH1 0x1 ADD SLOAD PUSH1 0x1 DUP3 PUSH1 0xA DUP2 LT PUSH2 0xFCE JUMPI PUSH2 0xFCD PUSH2 0x1DCB JUMP JUMPDEST JUMPDEST PUSH1 0x2 MUL ADD PUSH1 0x1 ADD SLOAD GT ISZERO PUSH2 0x112F JUMPI PUSH1 0x0 PUSH1 0x1 DUP4 PUSH1 0xA DUP2 LT PUSH2 0xFF2 JUMPI PUSH2 0xFF1 PUSH2 0x1DCB JUMP JUMPDEST JUMPDEST PUSH1 0x2 MUL ADD PUSH1 0x40 MLOAD DUP1 PUSH1 0x40 ADD PUSH1 0x40 MSTORE SWAP1 DUP2 PUSH1 0x0 DUP3 ADD DUP1 SLOAD PUSH2 0x1011 SWAP1 PUSH2 0x171B JUMP JUMPDEST DUP1 PUSH1 0x1F ADD PUSH1 0x20 DUP1 SWAP2 DIV MUL PUSH1 0x20 ADD PUSH1 0x40 MLOAD SWAP1 DUP2 ADD PUSH1 0x40 MSTORE DUP1 SWAP3 SWAP2 SWAP1 DUP2 DUP2 MSTORE PUSH1 0x20 ADD DUP3 DUP1 SLOAD PUSH2 0x103D SWAP1 PUSH2 0x171B JUMP JUMPDEST DUP1 ISZERO PUSH2 0x108A JUMPI DUP1 PUSH1 0x1F LT PUSH2 0x105F JUMPI PUSH2 0x100 DUP1 DUP4 SLOAD DIV MUL DUP4 MSTORE SWAP2 PUSH1 0x20 ADD SWAP2 PUSH2 0x108A JUMP JUMPDEST DUP3 ADD SWAP2 SWAP1 PUSH1 0x0 MSTORE PUSH1 0x20 PUSH1 0x0 KECCAK256 SWAP1 JUMPDEST DUP2 SLOAD DUP2 MSTORE SWAP1 PUSH1 0x1 ADD SWAP1 PUSH1 0x20 ADD DUP1 DUP4 GT PUSH2 0x106D JUMPI DUP3 SWAP1 SUB PUSH1 0x1F AND DUP3 ADD SWAP2 JUMPDEST POP POP POP POP POP DUP2 MSTORE PUSH1 0x20 ADD PUSH1 0x1 DUP3 ADD SLOAD DUP2 MSTORE POP POP SWAP1 POP PUSH1 0x1 DUP3 PUSH1 0xA DUP2 LT PUSH2 0x10B3 JUMPI PUSH2 0x10B2 PUSH2 0x1DCB JUMP JUMPDEST JUMPDEST PUSH1 0x2 MUL ADD PUSH1 0x1 DUP5 PUSH1 0xA DUP2 LT PUSH2 0x10CB JUMPI PUSH2 0x10CA PUSH2 0x1DCB JUMP JUMPDEST JUMPDEST PUSH1 0x2 MUL ADD PUSH1 0x0 DUP3 ADD DUP2 PUSH1 0x0 ADD SWAP1 DUP2 PUSH2 0x10E3 SWAP2 SWAP1 PUSH2 0x1EDE JUMP JUMPDEST POP PUSH1 0x1 DUP3 ADD SLOAD DUP2 PUSH1 0x1 ADD SSTORE SWAP1 POP POP DUP1 PUSH1 0x1 DUP4 PUSH1 0xA DUP2 LT PUSH2 0x1106 JUMPI PUSH2 0x1105 PUSH2 0x1DCB JUMP JUMPDEST JUMPDEST PUSH1 0x2 MUL ADD PUSH1 0x0 DUP3 ADD MLOAD DUP2 PUSH1 0x0 ADD SWAP1 DUP2 PUSH2 0x111F SWAP2 SWAP1 PUSH2 0x1CAB JUMP JUMPDEST POP PUSH1 0x20 DUP3 ADD MLOAD DUP2 PUSH1 0x1 ADD SSTORE SWAP1 POP POP POP JUMPDEST DUP1 DUP1 PUSH1 0x1 ADD SWAP2 POP POP PUSH2 0xF95 JUMP JUMPDEST POP DUP1 DUP1 PUSH1 0x1 ADD SWAP2 POP POP PUSH2 0xF7A JUMP JUMPDEST POP JUMP JUMPDEST PUSH1 0x40 MLOAD DUP1 PUSH2 0x140 ADD PUSH1 0x40 MSTORE DUP1 PUSH1 0xA SWAP1 JUMPDEST PUSH2 0x1165 PUSH2 0x117B JUMP JUMPDEST DUP2 MSTORE PUSH1 0x20 ADD SWAP1 PUSH1 0x1 SWAP1 SUB SWAP1 DUP2 PUSH2 0x115D JUMPI SWAP1 POP POP SWAP1 JUMP JUMPDEST PUSH1 0x40 MLOAD DUP1 PUSH1 0x40 ADD PUSH1 0x40 MSTORE DUP1 PUSH1 0x60 DUP2 MSTORE PUSH1 0x20 ADD PUSH1 0x0 DUP2 MSTORE POP SWAP1 JUMP JUMPDEST PUSH1 0x0 PUSH1 0x40 MLOAD SWAP1 POP SWAP1 JUMP JUMPDEST PUSH1 0x0 DUP1 REVERT JUMPDEST PUSH1 0x0 DUP1 REVERT JUMPDEST PUSH1 0x0 DUP1 REVERT JUMPDEST PUSH1 0x0 DUP1 REVERT JUMPDEST PUSH1 0x0 PUSH1 0x1F NOT PUSH1 0x1F DUP4 ADD AND SWAP1 POP SWAP2 SWAP1 POP JUMP JUMPDEST PUSH32 0x4E487B7100000000000000000000000000000000000000000000000000000000 PUSH1 0x0 MSTORE PUSH1 0x41 PUSH1 0x4 MSTORE PUSH1 0x24 PUSH1 0x0 REVERT JUMPDEST PUSH2 0x11FC DUP3 PUSH2 0x11B3 JUMP JUMPDEST DUP2 ADD DUP2 DUP2 LT PUSH8 0xFFFFFFFFFFFFFFFF DUP3 GT OR ISZERO PUSH2 0x121B JUMPI PUSH2 0x121A PUSH2 0x11C4 JUMP JUMPDEST JUMPDEST DUP1 PUSH1 0x40 MSTORE POP POP POP JUMP JUMPDEST PUSH1 0x0 PUSH2 0x122E PUSH2 0x1195 JUMP JUMPDEST SWAP1 POP PUSH2 0x123A DUP3 DUP3 PUSH2 0x11F3 JUMP JUMPDEST SWAP2 SWAP1 POP JUMP JUMPDEST PUSH1 0x0 PUSH8 0xFFFFFFFFFFFFFFFF DUP3 GT ISZERO PUSH2 0x125A JUMPI PUSH2 0x1259 PUSH2 0x11C4 JUMP JUMPDEST JUMPDEST PUSH2 0x1263 DUP3 PUSH2 0x11B3 JUMP JUMPDEST SWAP1 POP PUSH1 0x20 DUP2 ADD SWAP1 POP SWAP2 SWAP1 POP JUMP JUMPDEST DUP3 DUP2 DUP4 CALLDATACOPY PUSH1 0x0 DUP4 DUP4 ADD MSTORE POP POP POP JUMP JUMPDEST PUSH1 0x0 PUSH2 0x1292 PUSH2 0x128D DUP5 PUSH2 0x123F JUMP JUMPDEST PUSH2 0x1224 JUMP JUMPDEST SWAP1 POP DUP3 DUP2 MSTORE PUSH1 0x20 DUP2 ADD DUP5 DUP5 DUP5 ADD GT ISZERO PUSH2 0x12AE JUMPI PUSH2 0x12AD PUSH2 0x11AE JUMP JUMPDEST JUMPDEST PUSH2 0x12B9 DUP5 DUP3 DUP6 PUSH2 0x1270 JUMP JUMPDEST POP SWAP4 SWAP3 POP POP POP JUMP JUMPDEST PUSH1 0x0 DUP3 PUSH1 0x1F DUP4 ADD SLT PUSH2 0x12D6 JUMPI PUSH2 0x12D5 PUSH2 0x11A9 JUMP JUMPDEST JUMPDEST DUP2 CALLDATALOAD PUSH2 0x12E6 DUP5 DUP3 PUSH1 0x20 DUP7 ADD PUSH2 0x127F JUMP JUMPDEST SWAP2 POP POP SWAP3 SWAP2 POP POP JUMP JUMPDEST PUSH1 0x0 PUSH1 0x20 DUP3 DUP5 SUB SLT ISZERO PUSH2 0x1305 JUMPI PUSH2 0x1304 PUSH2 0x119F JUMP JUMPDEST JUMPDEST PUSH1 0x0 DUP3 ADD CALLDATALOAD PUSH8 0xFFFFFFFFFFFFFFFF DUP2 GT ISZERO PUSH2 0x1323 JUMPI PUSH2 0x1322 PUSH2 0x11A4 JUMP JUMPDEST JUMPDEST PUSH2 0x132F DUP5 DUP3 DUP6 ADD PUSH2 0x12C1 JUMP JUMPDEST SWAP2 POP POP SWAP3 SWAP2 POP POP JUMP JUMPDEST PUSH1 0x0 DUP2 ISZERO ISZERO SWAP1 POP SWAP2 SWAP1 POP JUMP JUMPDEST PUSH2 0x134D DUP2 PUSH2 0x1338 JUMP JUMPDEST DUP3 MSTORE POP POP JUMP JUMPDEST PUSH1 0x0 PUSH1 0x20 DUP3 ADD SWAP1 POP PUSH2 0x1368 PUSH1 0x0 DUP4 ADD DUP5 PUSH2 0x1344 JUMP JUMPDEST SWAP3 SWAP2 POP POP JUMP JUMPDEST PUSH1 0x0 DUP2 SWAP1 POP SWAP2 SWAP1 POP JUMP JUMPDEST PUSH2 0x1381 DUP2 PUSH2 0x136E JUMP JUMPDEST DUP2 EQ PUSH2 0x138C JUMPI PUSH1 0x0 DUP1 REVERT JUMPDEST POP JUMP JUMPDEST PUSH1 0x0 DUP2 CALLDATALOAD SWAP1 POP PUSH2 0x139E DUP2 PUSH2 0x1378 JUMP JUMPDEST SWAP3 SWAP2 POP POP JUMP JUMPDEST PUSH1 0x0 PUSH1 0x20 DUP3 DUP5 SUB SLT ISZERO PUSH2 0x13BA JUMPI PUSH2 0x13B9 PUSH2 0x119F JUMP JUMPDEST JUMPDEST PUSH1 0x0 PUSH2 0x13C8 DUP5 DUP3 DUP6 ADD PUSH2 0x138F JUMP JUMPDEST SWAP2 POP POP SWAP3 SWAP2 POP POP JUMP JUMPDEST PUSH1 0x0 DUP2 MLOAD SWAP1 POP SWAP2 SWAP1 POP JUMP JUMPDEST PUSH1 0x0 DUP3 DUP3 MSTORE PUSH1 0x20 DUP3 ADD SWAP1 POP SWAP3 SWAP2 POP POP JUMP JUMPDEST PUSH1 0x0 JUMPDEST DUP4 DUP2 LT ISZERO PUSH2 0x140B JUMPI DUP1 DUP3 ADD MLOAD DUP2 DUP5 ADD MSTORE PUSH1 0x20 DUP2 ADD SWAP1 POP PUSH2 0x13F0 JUMP JUMPDEST PUSH1 0x0 DUP5 DUP5 ADD MSTORE POP POP POP POP JUMP JUMPDEST PUSH1 0x0 PUSH2 0x1422 DUP3 PUSH2 0x13D1 JUMP JUMPDEST PUSH2 0x142C DUP2 DUP6 PUSH2 0x13DC JUMP JUMPDEST SWAP4 POP PUSH2 0x143C DUP2 DUP6 PUSH1 0x20 DUP7 ADD PUSH2 0x13ED JUMP JUMPDEST PUSH2 0x1445 DUP2 PUSH2 0x11B3 JUMP JUMPDEST DUP5 ADD SWAP2 POP POP SWAP3 SWAP2 POP POP JUMP JUMPDEST PUSH2 0x1459 DUP2 PUSH2 0x136E JUMP JUMPDEST DUP3 MSTORE POP POP JUMP JUMPDEST PUSH1 0x0 PUSH1 0x40 DUP3 ADD SWAP1 POP DUP2 DUP2 SUB PUSH1 0x0 DUP4 ADD MSTORE PUSH2 0x1479 DUP2 DUP6 PUSH2 0x1417 JUMP JUMPDEST SWAP1 POP PUSH2 0x1488 PUSH1 0x20 DUP4 ADD DUP5 PUSH2 0x1450 JUMP JUMPDEST SWAP4 SWAP3 POP POP POP JUMP JUMPDEST PUSH1 0x0 PUSH1 0xA SWAP1 POP SWAP2 SWAP1 POP JUMP JUMPDEST PUSH1 0x0 DUP2 SWAP1 POP SWAP3 SWAP2 POP POP JUMP JUMPDEST PUSH1 0x0 DUP2 SWAP1 POP SWAP2 SWAP1 POP JUMP JUMPDEST PUSH1 0x0 DUP3 DUP3 MSTORE PUSH1 0x20 DUP3 ADD SWAP1 POP SWAP3 SWAP2 POP POP JUMP JUMPDEST PUSH1 0x0 PUSH2 0x14CB DUP3 PUSH2 0x13D1 JUMP JUMPDEST PUSH2 0x14D5 DUP2 DUP6 PUSH2 0x14AF JUMP JUMPDEST SWAP4 POP PUSH2 0x14E5 DUP2 DUP6 PUSH1 0x20 DUP7 ADD PUSH2 0x13ED JUMP JUMPDEST PUSH2 0x14EE DUP2 PUSH2 0x11B3 JUMP JUMPDEST DUP5 ADD SWAP2 POP POP SWAP3 SWAP2 POP POP JUMP JUMPDEST PUSH2 0x1502 DUP2 PUSH2 0x136E JUMP JUMPDEST DUP3 MSTORE POP POP JUMP JUMPDEST PUSH1 0x0 PUSH1 0x40 DUP4 ADD PUSH1 0x0 DUP4 ADD MLOAD DUP5 DUP3 SUB PUSH1 0x0 DUP7 ADD MSTORE PUSH2 0x1525 DUP3 DUP3 PUSH2 0x14C0 JUMP JUMPDEST SWAP2 POP POP PUSH1 0x20 DUP4 ADD MLOAD PUSH2 0x153A PUSH1 0x20 DUP7 ADD DUP3 PUSH2 0x14F9 JUMP JUMPDEST POP DUP1 SWAP2 POP POP SWAP3 SWAP2 POP POP JUMP JUMPDEST PUSH1 0x0 PUSH2 0x1551 DUP4 DUP4 PUSH2 0x1508 JUMP JUMPDEST SWAP1 POP SWAP3 SWAP2 POP POP JUMP JUMPDEST PUSH1 0x0 PUSH1 0x20 DUP3 ADD SWAP1 POP SWAP2 SWAP1 POP JUMP JUMPDEST PUSH1 0x0 PUSH2 0x1571 DUP3 PUSH2 0x148F JUMP JUMPDEST PUSH2 0x157B DUP2 DUP6 PUSH2 0x149A JUMP JUMPDEST SWAP4 POP DUP4 PUSH1 0x20 DUP3 MUL DUP6 ADD PUSH2 0x158D DUP6 PUSH2 0x14A5 JUMP JUMPDEST DUP1 PUSH1 0x0 JUMPDEST DUP6 DUP2 LT ISZERO PUSH2 0x15C9 JUMPI DUP5 DUP5 SUB DUP10 MSTORE DUP2 MLOAD PUSH2 0x15AA DUP6 DUP3 PUSH2 0x1545 JUMP JUMPDEST SWAP5 POP PUSH2 0x15B5 DUP4 PUSH2 0x1559 JUMP JUMPDEST SWAP3 POP PUSH1 0x20 DUP11 ADD SWAP10 POP POP PUSH1 0x1 DUP2 ADD SWAP1 POP PUSH2 0x1591 JUMP JUMPDEST POP DUP3 SWAP8 POP DUP8 SWAP6 POP POP POP POP POP POP SWAP3 SWAP2 POP POP JUMP JUMPDEST PUSH1 0x0 PUSH1 0x20 DUP3 ADD SWAP1 POP DUP2 DUP2 SUB PUSH1 0x0 DUP4 ADD MSTORE PUSH2 0x15F5 DUP2 DUP5 PUSH2 0x1566 JUMP JUMPDEST SWAP1 POP SWAP3 SWAP2 POP POP JUMP JUMPDEST PUSH1 0x0 PUSH20 0xFFFFFFFFFFFFFFFFFFFFFFFFFFFFFFFFFFFFFFFF DUP3 AND SWAP1 POP SWAP2 SWAP1 POP JUMP JUMPDEST PUSH1 0x0 PUSH2 0x1628 DUP3 PUSH2 0x15FD JUMP JUMPDEST SWAP1 POP SWAP2 SWAP1 POP JUMP JUMPDEST PUSH2 0x1638 DUP2 PUSH2 0x161D JUMP JUMPDEST DUP3 MSTORE POP POP JUMP JUMPDEST PUSH1 0x0 PUSH1 0x20 DUP3 ADD SWAP1 POP PUSH2 0x1653 PUSH1 0x0 DUP4 ADD DUP5 PUSH2 0x162F JUMP JUMPDEST SWAP3 SWAP2 POP POP JUMP JUMPDEST PUSH2 0x1662 DUP2 PUSH2 0x161D JUMP JUMPDEST DUP2 EQ PUSH2 0x166D JUMPI PUSH1 0x0 DUP1 REVERT JUMPDEST POP JUMP JUMPDEST PUSH1 0x0 DUP2 CALLDATALOAD SWAP1 POP PUSH2 0x167F DUP2 PUSH2 0x1659 JUMP JUMPDEST SWAP3 SWAP2 POP POP JUMP JUMPDEST PUSH1 0x0 PUSH1 0x20 DUP3 DUP5 SUB SLT ISZERO PUSH2 0x169B JUMPI PUSH2 0x169A PUSH2 0x119F JUMP JUMPDEST JUMPDEST PUSH1 0x0 PUSH2 0x16A9 DUP5 DUP3 DUP6 ADD PUSH2 0x1670 JUMP JUMPDEST SWAP2 POP POP SWAP3 SWAP2 POP POP JUMP JUMPDEST PUSH1 0x0 PUSH4 0xFFFFFFFF DUP3 AND SWAP1 POP SWAP2 SWAP1 POP JUMP JUMPDEST PUSH2 0x16CB DUP2 PUSH2 0x16B2 JUMP JUMPDEST DUP3 MSTORE POP POP JUMP JUMPDEST PUSH1 0x0 PUSH1 0x20 DUP3 ADD SWAP1 POP PUSH2 0x16E6 PUSH1 0x0 DUP4 ADD DUP5 PUSH2 0x16C2 JUMP JUMPDEST SWAP3 SWAP2 POP POP JUMP JUMPDEST PUSH32 0x4E487B7100000000000000000000000000000000000000000000000000000000 PUSH1 0x0 MSTORE PUSH1 0x22 PUSH1 0x4 MSTORE PUSH1 0x24 PUSH1 0x0 REVERT JUMPDEST PUSH1 0x0 PUSH1 0x2 DUP3 DIV SWAP1 POP PUSH1 0x1 DUP3 AND DUP1 PUSH2 0x1733 JUMPI PUSH1 0x7F DUP3 AND SWAP2 POP JUMPDEST PUSH1 0x20 DUP3 LT DUP2 SUB PUSH2 0x1746 JUMPI PUSH2 0x1745 PUSH2 0x16EC JUMP JUMPDEST JUMPDEST POP SWAP2 SWAP1 POP JUMP JUMPDEST PUSH32 0x4E6F2062616C616E636520746F20776974686472617700000000000000000000 PUSH1 0x0 DUP3 ADD MSTORE POP JUMP JUMPDEST PUSH1 0x0 PUSH2 0x1782 PUSH1 0x16 DUP4 PUSH2 0x13DC JUMP JUMPDEST SWAP2 POP PUSH2 0x178D DUP3 PUSH2 0x174C JUMP JUMPDEST PUSH1 0x20 DUP3 ADD SWAP1 POP SWAP2 SWAP1 POP JUMP JUMPDEST PUSH1 0x0 PUSH1 0x20 DUP3 ADD SWAP1 POP DUP2 DUP2 SUB PUSH1 0x0 DUP4 ADD MSTORE PUSH2 0x17B1 DUP2 PUSH2 0x1775 JUMP JUMPDEST SWAP1 POP SWAP2 SWAP1 POP JUMP JUMPDEST PUSH1 0x0 DUP2 SWAP1 POP SWAP3 SWAP2 POP POP JUMP JUMPDEST POP JUMP JUMPDEST PUSH1 0x0 PUSH2 0x17D3 PUSH1 0x0 DUP4 PUSH2 0x17B8 JUMP JUMPDEST SWAP2 POP PUSH2 0x17DE DUP3 PUSH2 0x17C3 JUMP JUMPDEST PUSH1 0x0 DUP3 ADD SWAP1 POP SWAP2 SWAP1 POP JUMP JUMPDEST PUSH1 0x0 PUSH2 0x17F4 DUP3 PUSH2 0x17C6 JUMP JUMPDEST SWAP2 POP DUP2 SWAP1 POP SWAP2 SWAP1 POP JUMP JUMPDEST PUSH32 0x5769746864726177616C206661696C6564000000000000000000000000000000 PUSH1 0x0 DUP3 ADD MSTORE POP JUMP JUMPDEST PUSH1 0x0 PUSH2 0x1834 PUSH1 0x11 DUP4 PUSH2 0x13DC JUMP JUMPDEST SWAP2 POP PUSH2 0x183F DUP3 PUSH2 0x17FE JUMP JUMPDEST PUSH1 0x20 DUP3 ADD SWAP1 POP SWAP2 SWAP1 POP JUMP JUMPDEST PUSH1 0x0 PUSH1 0x20 DUP3 ADD SWAP1 POP DUP2 DUP2 SUB PUSH1 0x0 DUP4 ADD MSTORE PUSH2 0x1863 DUP2 PUSH2 0x1827 JUMP JUMPDEST SWAP1 POP SWAP2 SWAP1 POP JUMP JUMPDEST PUSH1 0x0 PUSH1 0x20 DUP3 ADD SWAP1 POP PUSH2 0x187F PUSH1 0x0 DUP4 ADD DUP5 PUSH2 0x1450 JUMP JUMPDEST SWAP3 SWAP2 POP POP JUMP JUMPDEST PUSH32 0x55736572206E6F74207265676973746572656400000000000000000000000000 PUSH1 0x0 DUP3 ADD MSTORE POP JUMP JUMPDEST PUSH1 0x0 PUSH2 0x18BB PUSH1 0x13 DUP4 PUSH2 0x13DC JUMP JUMPDEST SWAP2 POP PUSH2 0x18C6 DUP3 PUSH2 0x1885 JUMP JUMPDEST PUSH1 0x20 DUP3 ADD SWAP1 POP SWAP2 SWAP1 POP JUMP JUMPDEST PUSH1 0x0 PUSH1 0x20 DUP3 ADD SWAP1 POP DUP2 DUP2 SUB PUSH1 0x0 DUP4 ADD MSTORE PUSH2 0x18EA DUP2 PUSH2 0x18AE JUMP JUMPDEST SWAP1 POP SWAP2 SWAP1 POP JUMP JUMPDEST PUSH32 0x4E487B7100000000000000000000000000000000000000000000000000000000 PUSH1 0x0 MSTORE PUSH1 0x11 PUSH1 0x4 MSTORE PUSH1 0x24 PUSH1 0x0 REVERT JUMPDEST PUSH1 0x0 PUSH2 0x192B DUP3 PUSH2 0x136E JUMP JUMPDEST SWAP2 POP PUSH32 0xFFFFFFFFFFFFFFFFFFFFFFFFFFFFFFFFFFFFFFFFFFFFFFFFFFFFFFFFFFFFFFFF DUP3 SUB PUSH2 0x195D JUMPI PUSH2 0x195C PUSH2 0x18F1 JUMP JUMPDEST JUMPDEST PUSH1 0x1 DUP3 ADD SWAP1 POP SWAP2 SWAP1 POP JUMP JUMPDEST PUSH32 0x557365726E616D652063616E6E6F7420626520656D7074790000000000000000 PUSH1 0x0 DUP3 ADD MSTORE POP JUMP JUMPDEST PUSH1 0x0 PUSH2 0x199E PUSH1 0x18 DUP4 PUSH2 0x13DC JUMP JUMPDEST SWAP2 POP PUSH2 0x19A9 DUP3 PUSH2 0x1968 JUMP JUMPDEST PUSH1 0x20 DUP3 ADD SWAP1 POP SWAP2 SWAP1 POP JUMP JUMPDEST PUSH1 0x0 PUSH1 0x20 DUP3 ADD SWAP1 POP DUP2 DUP2 SUB PUSH1 0x0 DUP4 ADD MSTORE PUSH2 0x19CD DUP2 PUSH2 0x1991 JUMP JUMPDEST SWAP1 POP SWAP2 SWAP1 POP JUMP JUMPDEST PUSH1 0x0 DUP2 SWAP1 POP SWAP3 SWAP2 POP POP JUMP JUMPDEST PUSH1 0x0 PUSH2 0x19EA DUP3 PUSH2 0x13D1 JUMP JUMPDEST PUSH2 0x19F4 DUP2 DUP6 PUSH2 0x19D4 JUMP JUMPDEST SWAP4 POP PUSH2 0x1A04 DUP2 DUP6 PUSH1 0x20 DUP7 ADD PUSH2 0x13ED JUMP JUMPDEST DUP1 DUP5 ADD SWAP2 POP POP SWAP3 SWAP2 POP POP JUMP JUMPDEST PUSH1 0x0 PUSH2 0x1A1C DUP3 DUP5 PUSH2 0x19DF JUMP JUMPDEST SWAP2 POP DUP2 SWAP1 POP SWAP3 SWAP2 POP POP JUMP JUMPDEST PUSH32 0x557365726E616D6520616C72656164792074616B656E00000000000000000000 PUSH1 0x0 DUP3 ADD MSTORE POP JUMP JUMPDEST PUSH1 0x0 PUSH2 0x1A5D PUSH1 0x16 DUP4 PUSH2 0x13DC JUMP JUMPDEST SWAP2 POP PUSH2 0x1A68 DUP3 PUSH2 0x1A27 JUMP JUMPDEST PUSH1 0x20 DUP3 ADD SWAP1 POP SWAP2 SWAP1 POP JUMP JUMPDEST PUSH1 0x0 PUSH1 0x20 DUP3 ADD SWAP1 POP DUP2 DUP2 SUB PUSH1 0x0 DUP4 ADD MSTORE PUSH2 0x1A8C DUP2 PUSH2 0x1A50 JUMP JUMPDEST SWAP1 POP SWAP2 SWAP1 POP JUMP JUMPDEST PUSH32 0x5573657220616C72656164792072656769737465726564000000000000000000 PUSH1 0x0 DUP3 ADD MSTORE POP JUMP JUMPDEST PUSH1 0x0 PUSH2 0x1AC9 PUSH1 0x17 DUP4 PUSH2 0x13DC JUMP JUMPDEST SWAP2 POP PUSH2 0x1AD4 DUP3 PUSH2 0x1A93 JUMP JUMPDEST PUSH1 0x20 DUP3 ADD SWAP1 POP SWAP2 SWAP1 POP JUMP JUMPDEST PUSH1 0x0 PUSH1 0x20 DUP3 ADD SWAP1 POP DUP2 DUP2 SUB PUSH1 0x0 DUP4 ADD MSTORE PUSH2 0x1AF8 DUP2 PUSH2 0x1ABC JUMP JUMPDEST SWAP1 POP SWAP2 SWAP1 POP JUMP JUMPDEST PUSH1 0x0 DUP2 SWAP1 POP DUP2 PUSH1 0x0 MSTORE PUSH1 0x20 PUSH1 0x0 KECCAK256 SWAP1 POP SWAP2 SWAP1 POP JUMP JUMPDEST PUSH1 0x0 PUSH1 0x20 PUSH1 0x1F DUP4 ADD DIV SWAP1 POP SWAP2 SWAP1 POP JUMP JUMPDEST PUSH1 0x0 DUP3 DUP3 SHL SWAP1 POP SWAP3 SWAP2 POP POP JUMP JUMPDEST PUSH1 0x0 PUSH1 0x8 DUP4 MUL PUSH2 0x1B61 PUSH32 0xFFFFFFFFFFFFFFFFFFFFFFFFFFFFFFFFFFFFFFFFFFFFFFFFFFFFFFFFFFFFFFFF DUP3 PUSH2 0x1B24 JUMP JUMPDEST PUSH2 0x1B6B DUP7 DUP4 PUSH2 0x1B24 JUMP JUMPDEST SWAP6 POP DUP1 NOT DUP5 AND SWAP4 POP DUP1 DUP7 AND DUP5 OR SWAP3 POP POP POP SWAP4 SWAP3 POP POP POP JUMP JUMPDEST PUSH1 0x0 DUP2 SWAP1 POP SWAP2 SWAP1 POP JUMP JUMPDEST PUSH1 0x0 PUSH2 0x1BA8 PUSH2 0x1BA3 PUSH2 0x1B9E DUP5 PUSH2 0x136E JUMP JUMPDEST PUSH2 0x1B83 JUMP JUMPDEST PUSH2 0x136E JUMP JUMPDEST SWAP1 POP SWAP2 SWAP1 POP JUMP JUMPDEST PUSH1 0x0 DUP2 SWAP1 POP SWAP2 SWAP1 POP JUMP JUMPDEST PUSH2 0x1BC2 DUP4 PUSH2 0x1B8D JUMP JUMPDEST PUSH2 0x1BD6 PUSH2 0x1BCE DUP3 PUSH2 0x1BAF JUMP JUMPDEST DUP5 DUP5 SLOAD PUSH2 0x1B31 JUMP JUMPDEST DUP3 SSTORE POP POP POP POP JUMP JUMPDEST PUSH1 0x0 SWAP1 JUMP JUMPDEST PUSH2 0x1BEB PUSH2 0x1BDE JUMP JUMPDEST PUSH2 0x1BF6 DUP2 DUP5 DUP5 PUSH2 0x1BB9 JUMP JUMPDEST POP POP POP JUMP JUMPDEST JUMPDEST DUP2 DUP2 LT ISZERO PUSH2 0x1C1A JUMPI PUSH2 0x1C0F PUSH1 0x0 DUP3 PUSH2 0x1BE3 JUMP JUMPDEST PUSH1 0x1 DUP2 ADD SWAP1 POP PUSH2 0x1BFC JUMP JUMPDEST POP POP JUMP JUMPDEST PUSH1 0x1F DUP3 GT ISZERO PUSH2 0x1C5F JUMPI PUSH2 0x1C30 DUP2 PUSH2 0x1AFF JUMP JUMPDEST PUSH2 0x1C39 DUP5 PUSH2 0x1B14 JUMP JUMPDEST DUP2 ADD PUSH1 0x20 DUP6 LT ISZERO PUSH2 0x1C48 JUMPI DUP2 SWAP1 POP JUMPDEST PUSH2 0x1C5C PUSH2 0x1C54 DUP6 PUSH2 0x1B14 JUMP JUMPDEST DUP4 ADD DUP3 PUSH2 0x1BFB JUMP JUMPDEST POP POP JUMPDEST POP POP POP JUMP JUMPDEST PUSH1 0x0 DUP3 DUP3 SHR SWAP1 POP SWAP3 SWAP2 POP POP JUMP JUMPDEST PUSH1 0x0 PUSH2 0x1C82 PUSH1 0x0 NOT DUP5 PUSH1 0x8 MUL PUSH2 0x1C64 JUMP JUMPDEST NOT DUP1 DUP4 AND SWAP2 POP POP SWAP3 SWAP2 POP POP JUMP JUMPDEST PUSH1 0x0 PUSH2 0x1C9B DUP4 DUP4 PUSH2 0x1C71 JUMP JUMPDEST SWAP2 POP DUP3 PUSH1 0x2 MUL DUP3 OR SWAP1 POP SWAP3 SWAP2 POP POP JUMP JUMPDEST PUSH2 0x1CB4 DUP3 PUSH2 0x13D1 JUMP JUMPDEST PUSH8 0xFFFFFFFFFFFFFFFF DUP2 GT ISZERO PUSH2 0x1CCD JUMPI PUSH2 0x1CCC PUSH2 0x11C4 JUMP JUMPDEST JUMPDEST PUSH2 0x1CD7 DUP3 SLOAD PUSH2 0x171B JUMP JUMPDEST PUSH2 0x1CE2 DUP3 DUP3 DUP6 PUSH2 0x1C1E JUMP JUMPDEST PUSH1 0x0 PUSH1 0x20 SWAP1 POP PUSH1 0x1F DUP4 GT PUSH1 0x1 DUP2 EQ PUSH2 0x1D15 JUMPI PUSH1 0x0 DUP5 ISZERO PUSH2 0x1D03 JUMPI DUP3 DUP8 ADD MLOAD SWAP1 POP JUMPDEST PUSH2 0x1D0D DUP6 DUP3 PUSH2 0x1C8F JUMP JUMPDEST DUP7 SSTORE POP PUSH2 0x1D75 JUMP JUMPDEST PUSH1 0x1F NOT DUP5 AND PUSH2 0x1D23 DUP7 PUSH2 0x1AFF JUMP JUMPDEST PUSH1 0x0 JUMPDEST DUP3 DUP2 LT ISZERO PUSH2 0x1D4B JUMPI DUP5 DUP10 ADD MLOAD DUP3 SSTORE PUSH1 0x1 DUP3 ADD SWAP2 POP PUSH1 0x20 DUP6 ADD SWAP5 POP PUSH1 0x20 DUP2 ADD SWAP1 POP PUSH2 0x1D26 JUMP JUMPDEST DUP7 DUP4 LT ISZERO PUSH2 0x1D68 JUMPI DUP5 DUP10 ADD MLOAD PUSH2 0x1D64 PUSH1 0x1F DUP10 AND DUP3 PUSH2 0x1C71 JUMP JUMPDEST DUP4 SSTORE POP JUMPDEST PUSH1 0x1 PUSH1 0x2 DUP9 MUL ADD DUP9 SSTORE POP POP POP JUMPDEST POP POP POP POP POP POP JUMP JUMPDEST PUSH1 0x0 PUSH2 0x1D88 DUP3 PUSH2 0x16B2 JUMP JUMPDEST SWAP2 POP PUSH4 0xFFFFFFFF DUP3 SUB PUSH2 0x1D9E JUMPI PUSH2 0x1D9D PUSH2 0x18F1 JUMP JUMPDEST JUMPDEST PUSH1 0x1 DUP3 ADD SWAP1 POP SWAP2 SWAP1 POP JUMP JUMPDEST PUSH1 0x0 PUSH1 0x20 DUP3 ADD SWAP1 POP DUP2 DUP2 SUB PUSH1 0x0 DUP4 ADD MSTORE PUSH2 0x1DC3 DUP2 DUP5 PUSH2 0x1417 JUMP JUMPDEST SWAP1 POP SWAP3 SWAP2 POP POP JUMP JUMPDEST PUSH32 0x4E487B7100000000000000000000000000000000000000000000000000000000 PUSH1 0x0 MSTORE PUSH1 0x32 PUSH1 0x4 MSTORE PUSH1 0x24 PUSH1 0x0 REVERT JUMPDEST PUSH1 0x0 DUP2 SLOAD PUSH2 0x1E07 DUP2 PUSH2 0x171B JUMP JUMPDEST PUSH2 0x1E11 DUP2 DUP7 PUSH2 0x19D4 JUMP JUMPDEST SWAP5 POP PUSH1 0x1 DUP3 AND PUSH1 0x0 DUP2 EQ PUSH2 0x1E2C JUMPI PUSH1 0x1 DUP2 EQ PUSH2 0x1E41 JUMPI PUSH2 0x1E74 JUMP JUMPDEST PUSH1 0xFF NOT DUP4 AND DUP7 MSTORE DUP2 ISZERO ISZERO DUP3 MUL DUP7 ADD SWAP4 POP PUSH2 0x1E74 JUMP JUMPDEST PUSH2 0x1E4A DUP6 PUSH2 0x1AFF JUMP JUMPDEST PUSH1 0x0 JUMPDEST DUP4 DUP2 LT ISZERO PUSH2 0x1E6C JUMPI DUP2 SLOAD DUP2 DUP10 ADD MSTORE PUSH1 0x1 DUP3 ADD SWAP2 POP PUSH1 0x20 DUP2 ADD SWAP1 POP PUSH2 0x1E4D JUMP JUMPDEST DUP4 DUP9 ADD SWAP6 POP POP POP JUMPDEST POP POP POP SWAP3 SWAP2 POP POP JUMP JUMPDEST PUSH1 0x0 PUSH2 0x1E89 DUP3 DUP5 PUSH2 0x1DFA JUMP JUMPDEST SWAP2 POP DUP2 SWAP1 POP SWAP3 SWAP2 POP POP JUMP JUMPDEST PUSH1 0x0 PUSH2 0x1E9F DUP3 PUSH2 0x136E JUMP JUMPDEST SWAP2 POP PUSH2 0x1EAA DUP4 PUSH2 0x136E JUMP JUMPDEST SWAP3 POP DUP3 DUP3 SUB SWAP1 POP DUP2 DUP2 GT ISZERO PUSH2 0x1EC2 JUMPI PUSH2 0x1EC1 PUSH2 0x18F1 JUMP JUMPDEST JUMPDEST SWAP3 SWAP2 POP POP JUMP JUMPDEST PUSH1 0x0 DUP2 SLOAD SWAP1 POP PUSH2 0x1ED7 DUP2 PUSH2 0x171B JUMP JUMPDEST SWAP1 POP SWAP2 SWAP1 POP JUMP JUMPDEST DUP2 DUP2 SUB PUSH2 0x1EEC JUMPI POP POP PUSH2 0x1FC4 JUMP JUMPDEST PUSH2 0x1EF5 DUP3 PUSH2 0x1EC8 JUMP JUMPDEST PUSH8 0xFFFFFFFFFFFFFFFF DUP2 GT ISZERO PUSH2 0x1F0E JUMPI PUSH2 0x1F0D PUSH2 0x11C4 JUMP JUMPDEST JUMPDEST PUSH2 0x1F18 DUP3 SLOAD PUSH2 0x171B JUMP JUMPDEST PUSH2 0x1F23 DUP3 DUP3 DUP6 PUSH2 0x1C1E JUMP JUMPDEST PUSH1 0x0 PUSH1 0x1F DUP4 GT PUSH1 0x1 DUP2 EQ PUSH2 0x1F52 JUMPI PUSH1 0x0 DUP5 ISZERO PUSH2 0x1F40 JUMPI DUP3 DUP8 ADD SLOAD SWAP1 POP JUMPDEST PUSH2 0x1F4A DUP6 DUP3 PUSH2 0x1C8F JUMP JUMPDEST DUP7 SSTORE POP PUSH2 0x1FBD JUMP JUMPDEST PUSH1 0x1F NOT DUP5 AND PUSH2 0x1F60 DUP8 PUSH2 0x1AFF JUMP JUMPDEST SWAP7 POP PUSH2 0x1F6B DUP7 PUSH2 0x1AFF JUMP JUMPDEST PUSH1 0x0 JUMPDEST DUP3 DUP2 LT ISZERO PUSH2 0x1F93 JUMPI DUP5 DUP10 ADD SLOAD DUP3 SSTORE PUSH1 0x1 DUP3 ADD SWAP2 POP PUSH1 0x1 DUP6 ADD SWAP5 POP PUSH1 0x20 DUP2 ADD SWAP1 POP PUSH2 0x1F6E JUMP JUMPDEST DUP7 DUP4 LT ISZERO PUSH2 0x1FB0 JUMPI DUP5 DUP10 ADD SLOAD PUSH2 0x1FAC PUSH1 0x1F DUP10 AND DUP3 PUSH2 0x1C71 JUMP JUMPDEST DUP4 SSTORE POP JUMPDEST PUSH1 0x1 PUSH1 0x2 DUP9 MUL ADD DUP9 SSTORE POP POP POP JUMPDEST POP POP POP POP POP POP JUMPDEST JUMP JUMPDEST PUSH1 0x0 PUSH2 0x1FD1 DUP3 PUSH2 0x136E JUMP JUMPDEST SWAP2 POP PUSH1 0x0 DUP3 SUB PUSH2 0x1FE4 JUMPI PUSH2 0x1FE3 PUSH2 0x18F1 JUMP JUMPDEST JUMPDEST PUSH1 0x1 DUP3 SUB SWAP1 POP SWAP2 SWAP1 POP JUMP JUMPDEST PUSH1 0x0 PUSH2 0x1FFA DUP3 PUSH2 0x136E JUMP JUMPDEST SWAP2 POP PUSH2 0x2005 DUP4 PUSH2 0x136E JUMP JUMPDEST SWAP3 POP DUP3 DUP3 ADD SWAP1 POP DUP1 DUP3 GT ISZERO PUSH2 0x201D JUMPI PUSH2 0x201C PUSH2 0x18F1 JUMP JUMPDEST JUMPDEST SWAP3 SWAP2 POP POP JUMP INVALID LOG2 PUSH5 0x6970667358 0x22 SLT KECCAK256 0xAA 0xBE 0x25 EXTCODESIZE SSTORE LOG2 0xC3 PUSH17 0x6D620B5E0D6F7604DE926249D614B43180 DUP9 0xE7 SWAP10 0xBA DUP14 0xE8 0xE9 PUSH5 0x736F6C6343 STOP ADDMOD SHR STOP CALLER "
        },
        "methodIdentifiers": {
          "click()": "7d55923d",
          "getLeaderboard()": "6d763a6e",
          "isRegistered(address)": "c3c5a547",
          "isUsernameTaken(string)": "176c5919",
          "owner()": "8da5cb5b",
          "register(string)": "f2c298be",
          "renounceOwnership()": "715018a6",
          "top10Users(uint256)": "2bb43ccb",
          "totalUsers()": "bff1f9e1",
          "transferOwnership(address)": "f2fde38b",
          "users(address)": "a87430ba",
          "withdraw()": "3ccfd60b"
        }
      }
    }
  }
}