{
  "contracts/Clicker.sol": {
    "Clicker": {
      "abi": [
        {
          "inputs": [],
          "stateMutability": "nonpayable",
          "type": "constructor"
        },
        {
          "inputs": [
            {
              "internalType": "address",
              "name": "owner",
              "type": "address"
            }
          ],
          "name": "OwnableInvalidOwner",
          "type": "error"
        },
        {
          "inputs": [
            {
              "internalType": "address",
              "name": "account",
              "type": "address"
            }
          ],
          "name": "OwnableUnauthorizedAccount",
          "type": "error"
        },
        {
          "anonymous": false,
          "inputs": [
            {
              "indexed": true,
              "internalType": "address",
              "name": "user",
              "type": "address"
            },
            {
              "indexed": false,
              "internalType": "uint256",
              "name": "clicks",
              "type": "uint256"
            }
          ],
          "name": "Click",
          "type": "event"
        },
        {
          "anonymous": false,
          "inputs": [
            {
              "indexed": true,
              "internalType": "address",
              "name": "previousOwner",
              "type": "address"
            },
            {
              "indexed": true,
              "internalType": "address",
              "name": "newOwner",
              "type": "address"
            }
          ],
          "name": "OwnershipTransferred",
          "type": "event"
        },
        {
          "anonymous": false,
          "inputs": [
            {
              "indexed": true,
              "internalType": "address",
              "name": "user",
              "type": "address"
            },
            {
              "indexed": false,
              "internalType": "string",
              "name": "username",
              "type": "string"
            }
          ],
          "name": "UserRegistered",
          "type": "event"
        },
        {
          "anonymous": false,
          "inputs": [
            {
              "indexed": true,
              "internalType": "uint256",
              "name": "timestamp",
              "type": "uint256"
            },
            {
              "indexed": false,
              "internalType": "uint256",
              "name": "totalAmount",
              "type": "uint256"
            }
          ],
          "name": "Withdraw",
          "type": "event"
        },
        {
          "inputs": [],
          "name": "click",
          "outputs": [],
          "stateMutability": "payable",
          "type": "function"
        },
        {
          "inputs": [
            {
              "internalType": "string",
              "name": "",
              "type": "string"
            }
          ],
          "name": "getAddressByUsername",
          "outputs": [
            {
              "internalType": "address",
              "name": "",
              "type": "address"
            }
          ],
          "stateMutability": "view",
          "type": "function"
        },
        {
          "inputs": [],
          "name": "getLeaderboard",
          "outputs": [
            {
              "components": [
                {
                  "internalType": "string",
                  "name": "username",
                  "type": "string"
                },
                {
                  "internalType": "uint256",
                  "name": "clicks",
                  "type": "uint256"
                },
                {
                  "internalType": "uint16",
                  "name": "multiplier",
                  "type": "uint16"
                },
                {
                  "internalType": "uint16",
                  "name": "totalReferrals",
                  "type": "uint16"
                }
              ],
              "internalType": "struct Clicker.UserInfo[50]",
              "name": "",
              "type": "tuple[50]"
            }
          ],
          "stateMutability": "view",
          "type": "function"
        },
        {
          "inputs": [
            {
              "internalType": "address",
              "name": "",
              "type": "address"
            }
          ],
          "name": "getRegisteredStatusByAddress",
          "outputs": [
            {
              "internalType": "bool",
              "name": "",
              "type": "bool"
            }
          ],
          "stateMutability": "view",
          "type": "function"
        },
        {
          "inputs": [
            {
              "internalType": "string",
              "name": "",
              "type": "string"
            }
          ],
          "name": "getRegisteredStatusByUsername",
          "outputs": [
            {
              "internalType": "bool",
              "name": "",
              "type": "bool"
            }
          ],
          "stateMutability": "view",
          "type": "function"
        },
        {
          "inputs": [
            {
              "internalType": "uint16",
              "name": "page",
              "type": "uint16"
            },
            {
              "internalType": "uint16",
              "name": "pageSize",
              "type": "uint16"
            }
          ],
          "name": "getWithdrawalHistory",
          "outputs": [
            {
              "internalType": "uint16",
              "name": "",
              "type": "uint16"
            },
            {
              "components": [
                {
                  "components": [
                    {
                      "internalType": "string",
                      "name": "username",
                      "type": "string"
                    },
                    {
                      "internalType": "uint256",
                      "name": "clicks",
                      "type": "uint256"
                    },
                    {
                      "internalType": "uint16",
                      "name": "multiplier",
                      "type": "uint16"
                    },
                    {
                      "internalType": "uint16",
                      "name": "totalReferrals",
                      "type": "uint16"
                    }
                  ],
                  "internalType": "struct Clicker.UserInfo[50]",
                  "name": "winners",
                  "type": "tuple[50]"
                },
                {
                  "internalType": "uint256",
                  "name": "timestamp",
                  "type": "uint256"
                },
                {
                  "internalType": "uint256",
                  "name": "totalAmount",
                  "type": "uint256"
                }
              ],
              "internalType": "struct Clicker.WithdrawalHistory[]",
              "name": "",
              "type": "tuple[]"
            }
          ],
          "stateMutability": "view",
          "type": "function"
        },
        {
          "inputs": [
            {
              "internalType": "uint16",
              "name": "startRow",
              "type": "uint16"
            },
            {
              "internalType": "uint16",
              "name": "endRow",
              "type": "uint16"
            }
          ],
          "name": "getWithdrawalHistory2",
          "outputs": [
            {
              "internalType": "uint16",
              "name": "",
              "type": "uint16"
            },
            {
              "components": [
                {
                  "components": [
                    {
                      "internalType": "string",
                      "name": "username",
                      "type": "string"
                    },
                    {
                      "internalType": "uint256",
                      "name": "clicks",
                      "type": "uint256"
                    },
                    {
                      "internalType": "uint16",
                      "name": "multiplier",
                      "type": "uint16"
                    },
                    {
                      "internalType": "uint16",
                      "name": "totalReferrals",
                      "type": "uint16"
                    }
                  ],
                  "internalType": "struct Clicker.UserInfo[50]",
                  "name": "winners",
                  "type": "tuple[50]"
                },
                {
                  "internalType": "uint256",
                  "name": "timestamp",
                  "type": "uint256"
                },
                {
                  "internalType": "uint256",
                  "name": "totalAmount",
                  "type": "uint256"
                }
              ],
              "internalType": "struct Clicker.WithdrawalHistory[]",
              "name": "",
              "type": "tuple[]"
            }
          ],
          "stateMutability": "view",
          "type": "function"
        },
        {
          "inputs": [],
          "name": "increaseMultiplier",
          "outputs": [],
          "stateMutability": "payable",
          "type": "function"
        },
        {
          "inputs": [
            {
              "internalType": "string",
              "name": "",
              "type": "string"
            }
          ],
          "name": "isUsernameTaken",
          "outputs": [
            {
              "internalType": "bool",
              "name": "",
              "type": "bool"
            }
          ],
          "stateMutability": "view",
          "type": "function"
        },
        {
          "inputs": [],
          "name": "lastWithdraw",
          "outputs": [
            {
              "internalType": "uint256",
              "name": "",
              "type": "uint256"
            }
          ],
          "stateMutability": "view",
          "type": "function"
        },
        {
          "inputs": [],
          "name": "owner",
          "outputs": [
            {
              "internalType": "address",
              "name": "",
              "type": "address"
            }
          ],
          "stateMutability": "view",
          "type": "function"
        },
        {
          "inputs": [
            {
              "internalType": "string",
              "name": "_username",
              "type": "string"
            },
            {
              "internalType": "string",
              "name": "_referrerUsername",
              "type": "string"
            }
          ],
          "name": "register",
          "outputs": [],
          "stateMutability": "nonpayable",
          "type": "function"
        },
        {
          "inputs": [],
          "name": "renounceOwnership",
          "outputs": [],
          "stateMutability": "nonpayable",
          "type": "function"
        },
        {
          "inputs": [
            {
              "internalType": "uint256",
              "name": "",
              "type": "uint256"
            }
          ],
          "name": "top50Users",
          "outputs": [
            {
              "internalType": "string",
              "name": "username",
              "type": "string"
            },
            {
              "internalType": "uint256",
              "name": "clicks",
              "type": "uint256"
            },
            {
              "internalType": "uint16",
              "name": "multiplier",
              "type": "uint16"
            },
            {
              "internalType": "uint16",
              "name": "totalReferrals",
              "type": "uint16"
            }
          ],
          "stateMutability": "view",
          "type": "function"
        },
        {
          "inputs": [],
          "name": "totalUsers",
          "outputs": [
            {
              "internalType": "uint32",
              "name": "",
              "type": "uint32"
            }
          ],
          "stateMutability": "view",
          "type": "function"
        },
        {
          "inputs": [
            {
              "internalType": "address",
              "name": "newOwner",
              "type": "address"
            }
          ],
          "name": "transferOwnership",
          "outputs": [],
          "stateMutability": "nonpayable",
          "type": "function"
        },
        {
          "inputs": [
            {
              "internalType": "address",
              "name": "",
              "type": "address"
            }
          ],
          "name": "users",
          "outputs": [
            {
              "internalType": "string",
              "name": "username",
              "type": "string"
            },
            {
              "internalType": "uint256",
              "name": "clicks",
              "type": "uint256"
            },
            {
              "internalType": "uint16",
              "name": "multiplier",
              "type": "uint16"
            },
            {
              "internalType": "uint16",
              "name": "totalReferrals",
              "type": "uint16"
            }
          ],
          "stateMutability": "view",
          "type": "function"
        },
        {
          "inputs": [],
          "name": "withdraw",
          "outputs": [],
          "stateMutability": "nonpayable",
          "type": "function"
        },
        {
          "inputs": [
            {
              "internalType": "uint256",
              "name": "",
              "type": "uint256"
            }
          ],
          "name": "withdrawalHistory",
          "outputs": [
            {
              "internalType": "uint256",
              "name": "timestamp",
              "type": "uint256"
            },
            {
              "internalType": "uint256",
              "name": "totalAmount",
              "type": "uint256"
            }
          ],
          "stateMutability": "view",
          "type": "function"
        }
      ],
      "evm": {
        "bytecode": {
          "linkReferences": {},
          "object": "60806040523461002257610011610027565b604051612f2461017f8239612f2490f35b600080fd5b61003033610074565b565b61004261003f61003f9290565b90565b6001600160a01b031690565b61003f90610032565b61006090610042565b9052565b6020810192916100309190610057565b600061007f8161004e565b61008881610042565b61009184610042565b146100a157505061003090610127565b631e4fbdf760e01b825281906100ba9060048301610064565b0390fd5b61003f90610042565b61003f90546100be565b61003f90610042906001600160a01b031682565b61003f906100d1565b61003f906100e5565b9061010761003f610123926100ee565b82546001600160a01b0319166001600160a01b03919091161790565b9055565b61014d61014761013760006100c7565b6101428460006100f7565b6100ee565b916100ee565b907f8be0079c531659141344cd1fd0a4f28419497f9722a3daafe3b4186f6b6457e061017860405190565b600090a356fe6080604052600436101561001257600080fd5b60003560e01c80631682d25714610142578063176c59191461013d5780633ccfd60b146101385780633ffbd47f146101335780636322961d1461012e5780636d763a6e14610129578063715018a61461012457806371a726ca1461011f5780637d55923d1461011a5780638bef3e75146101155780638da5cb5b146101105780639201107d1461010b5780639c440e09146101065780639cbbd55b14610101578063a87430ba146100fc578063b52eea74146100f7578063bff1f9e1146100f2578063d800b9bd146100ed5763f2fde38b0361015457610b73565b610b45565b610ab7565b610a62565b610a25565b6109fd565b6109e2565b61094f565b610924565b61090b565b6108f8565b6108c7565b6106a3565b61067c565b6105fe565b610597565b610531565b6104f9565b610353565b61ffff81165b0361015457565b600080fd5b9050359061016682610147565b565b91906040838203126101545761018b9060206101848286610159565b9401610159565b90565b9052565b60005b8381106101a55750506000910152565b8181015183820152602001610195565b6101d66101df6020936101e9936101ca815190565b80835293849260200190565b95869101610192565b601f01601f191690565b0190565b9061018b9060608061020e60808401600087015185820360008701526101b5565b9461021e60208201516020860152565b60408181015161ffff1690850152015161ffff16910152565b9061018b916101ed565b610640820191603290600090805b83831061025e57505050505090565b9091929394602061028161027a83856001950387528951610237565b9760200190565b930193019193929061024f565b9061018b906040806102af6060840160008701518582036000870152610241565b946102bf60208201516020860152565b0151910152565b9061018b9161028e565b906102e66102dc835190565b8083529160200190565b90816102f86020830284019460200190565b926000915b83831061030c57505050505090565b9091929394602061032861027a838560019503875289516102c6565b93019301919392906102fd565b61ffff909116815261018b91604082019160208184039101526102d0565b346101545761036c610366366004610168565b90610e94565b9061038261037960405190565b92839283610335565b0390f35b634e487b7160e01b600052604160045260246000fd5b90601f01601f1916810190811067ffffffffffffffff8211176103be57604052565b610386565b906101666103d060405190565b928361039c565b67ffffffffffffffff81116103be57602090601f01601f19160190565b90826000939282370152565b90929192610415610410826103d7565b6103c3565b9381855281830111610154576101669160208501906103f4565b9080601f830112156101545781602061018b93359101610400565b9060208282031261015457813567ffffffffffffffff81116101545761018b920161042f565b6101e961048892602092610482815190565b94859290565b93849101610192565b6104a16101e99160209493610470565b918252565b6104bb6104b260405190565b92839283610491565b03902090565b61018b916104a6565b61018b916008021c5b60ff1690565b9061018b91546104ca565b60006104f461018b92609c6104c1565b6104d9565b346101545761038261051461050f36600461044a565b6104e4565b60405191829182901515815260200190565b600091031261015457565b3461015457610541366004610526565b610549612086565b604051005b91909160408184031261015457803567ffffffffffffffff8111610154578361057891830161042f565b92602082013567ffffffffffffffff81116101545761018b920161042f565b34610154576105496105aa36600461054e565b906122f9565b61018b916008021c5b6001600160a01b031690565b9061018b91546105b0565b60006105e061018b92609b6104c1565b6105c5565b61018e906105b9565b60208101929161016691906105e5565b346101545761038261061961061436600461044a565b6105d0565b604051918291826105ee565b610640820191603290600090805b83831061064257505050505090565b9091929394602061065e61027a83856001950387528951610237565b9301930191939290610633565b602080825261018b92910190610625565b346101545761068c366004610526565b6103826106976125a3565b6040519182918261066b565b34610154576106b3366004610526565b6105496125ee565b8061014d565b90503590610166826106bb565b906020828203126101545761018b916106c1565b634e487b7160e01b600052603260045260246000fd5b603282101561070e576003905b91020190600090565b6106e2565b634e487b7160e01b600052602260045260246000fd5b9060016002830492168015610749575b602083101461074457565b610713565b91607f1691610739565b8054600093929161077061076683610729565b8085529360200190565b91600181169081156107c2575060011461078957505050565b61079c9192939450600052602060002090565b916000925b8184106107ae5750500190565b8054848401526020909301926001016107a1565b92949550505060ff1916825215156020020190565b9061018b91610753565b906101666107fb926107f260405190565b938480926107d7565b038361039c565b61018b9081565b61018b9054610802565b61018b905b61ffff1690565b61018b9054610813565b61018b9060101c610818565b61018b9054610829565b600290603281101561015457610854916106f8565b509061085f826107e1565b9161086c60018201610809565b9161018b600261087d81850161081f565b9301610835565b6108bd610166946108b26108aa60609599989699608086019086820360008801526101b5565b986020850152565b61ffff166040830152565b019061ffff169052565b34610154576103826108e26108dd3660046106ce565b61083f565b906108ef94929460405190565b94859485610884565b610903366004610526565b610549612691565b346101545761036c61091e366004610168565b906127fc565b3461015457610934366004610526565b6103826106196128df565b60006104f461018b92609a6104c1565b346101545761038261051461096536600461044a565b61093f565b61014d816105b9565b905035906101668261096a565b906020828203126101545761018b91610973565b61018b906105b9906001600160a01b031682565b61018b90610994565b61018b906109a8565b906109c4906109b1565b600052602052604060002090565b60006104f461018b9260996109ba565b34610154576103826105146109f8366004610980565b6109d2565b610a08366004610526565b61054961295b565b610a1b9060986109ba565b9061085f826107e1565b34610154576103826108e2610a3b366004610980565b610a10565b61018b916008021c81565b9061018b9154610a40565b61018b60006001610a4b565b3461015457610a72366004610526565b610382610a7d610a56565b6040515b9182918290815260200190565b61018b916008021c5b63ffffffff1690565b9061018b9154610a8e565b61018b60146000610aa0565b3461015457610ac7366004610526565b610382610ad2610aab565b6040519182918263ffffffff909116815260200190565b805482101561070e57610705609891600052602060002090565b609d5481101561015457610b1890609d610ae9565b509061018b6097610b2b60968501610809565b9301610809565b9081526040810192916101669160200152565b3461015457610b5d610b583660046106ce565b610b03565b90610382610b6a60405190565b92839283610b32565b3461015457610549610b86366004610980565b612a99565b61081861018b61018b9290565b15610b9f57565b60405162461bcd60e51b815260206004820152602360248201527f537461727420726f77206d757374206265206c657373207468616e20656e6420604482015262726f7760e81b606482015280608481015b0390fd5b634e487b7160e01b600052601160045260246000fd5b610c1c9061ffff165b9161ffff1690565b90039061ffff8211610c2a57565b610bf5565b61018b61018b61018b9261ffff1690565b67ffffffffffffffff81116103be5760208091020190565b906104a161041083610c40565b61018b60606103c3565b67ffffffffffffffff81116103be5760200290565b61041061018b91610c6f565b61018b60806103c3565b610ca2610c90565b906060825260208080808501600081520160005b8152016000905250565b61018b610c9a565b60005b828110610cd757505050565b602090610ce2610cc0565b8184015201610ccb565b90610166610d02610cfc84610c84565b93610c6f565b83610cc8565b61018b6032610cec565b610d1a610c65565b90610d23610d08565b82526020808084016000610cb6565b61018b610d12565b60005b828110610d4957505050565b602090610d54610d32565b8184015201610d3d565b90610166610d74610d6e84610c58565b93610c40565b601f190160208401610d3a565b600161018b910161ffff1690565b90610d98825190565b81101561070e576020809102010190565b90610166610e006002610dba610c90565b94610dcb610dc7826107e1565b8752565b610de1610dda60018301610809565b6020880152565b610dfa610def83830161081f565b61ffff166040880152565b01610835565b61ffff166060840152565b61018b90610da9565b906032610e2081610c84565b92600090845b838310610e335750505050565b60036020600192610e4385610e0b565b815201920192019190610e26565b90610166610e846097610e62610c65565b94610e6f610dc782610e14565b610e7e610dda60968301610809565b01610809565b6040840152565b61018b90610e51565b609d610ea7610ea2609d5490565b610b8b565b93610ebb61ffff851661ffff851610610b98565b83610ec961ffff8716610c14565b11610f5d575b610ee9610ee4610edf8587610c0b565b610c2f565b610d5e565b94835b61ffff86165b61ffff82161015610f5457610f4d81610f47610f41610f14610ef29589610ae9565b50610f28610f228b86610c0b565b91610e8b565b610f3b8d610f3584610c2f565b90610d8f565b52610c2f565b8a610d8f565b50610d81565b9050610eec565b50949350915050565b849350610ecf565b610f6d612aa2565b6101666119ca565b91908203918211610c2a57565b61018b61018b61018b9290565b15610f9657565b60405162461bcd60e51b81526020600482015260146024820152734e65656420746f2077616974203620686f75727360601b6044820152606490fd5b634e487b7160e01b600052601260045260246000fd5b90610ff2565b9190565b908115610ffd570490565b610fd2565b61018b90610e14565b61018b9054610729565b8054600093929161102c61102883610729565b9390565b916001811690811561107d575060011461104557505050565b6110589192939450600052602060002090565b6000905b8382106110695750500190565b60018160209254848601520191019061105c565b60ff191683525050811515909102019150565b6104a16101e99160209493611015565b6104bb6110ac60405190565b92839283611090565b61018b916110a0565b61018b906105b9565b61018b90546110be565b81810292918115918404141715610c2a57565b906104a1610410836103d7565b3d1561110b576111003d6110e4565b903d6000602084013e565b606090565b1561111757565b60405162461bcd60e51b815260206004820152601a60248201527f5472616e73666572206661696c656420666f722072616e6b20310000000000006044820152606490fd5b1561116357565b60405162461bcd60e51b815260206004820152601a60248201527f5472616e73666572206661696c656420666f722072616e6b20320000000000006044820152606490fd5b156111af57565b60405162461bcd60e51b815260206004820152601a60248201527f5472616e73666572206661696c656420666f722072616e6b20330000000000006044820152606490fd5b156111fb57565b60405162461bcd60e51b815260206004820152601a60248201527f5472616e73666572206661696c656420666f722072616e6b20340000000000006044820152606490fd5b1561124757565b60405162461bcd60e51b815260206004820152601a60248201527f5472616e73666572206661696c656420666f722072616e6b20350000000000006044820152606490fd5b1561129357565b60405162461bcd60e51b815260206004820152601d60248201527f5472616e73666572206661696c656420666f722072616e6b20362d31300000006044820152606490fd5b156112df57565b60405162461bcd60e51b815260206004820152601e60248201527f5472616e73666572206661696c656420666f722072616e6b2031312d323000006044820152606490fd5b1561132b57565b60405162461bcd60e51b815260206004820152601e60248201527f5472616e73666572206661696c656420666f722072616e6b2032312d333000006044820152606490fd5b1561137757565b60405162461bcd60e51b815260206004820152601e60248201527f5472616e73666572206661696c656420666f722072616e6b2033312d353000006044820152606490fd5b156113c357565b60405162461bcd60e51b815260206004820152601560248201527413dddb995c881d1c985b9cd9995c8819985a5b1959605a1b6044820152606490fd5b634e487b7160e01b600052600060045260246000fd5b61018b9060036110d1565b9061143490600019906020036008021c90565b8154169055565b9160001960089290920291821b911b5b9181191691161790565b919061146661018b61146e93610f82565b90835461143b565b9055565b61016691600091611455565b818110611489575050565b806114976000600193611472565b0161147e565b600019600883021c1916906002021790565b906000916114cd6114c582600052602060002090565b92835461149d565b905555565b919290602082101561152a57601f84116001146114f45761146e92935061149d565b509061152561016693600161151c61151185600052602060002090565b92601f602091010490565b8201910161147e565b6114af565b5061156a8293611541600194600052602060002090565b6115636020601f860104820192601f861680611572575b50601f602091010490565b019061147e565b600202179055565b61157e90888603611421565b38611558565b929091600160401b82116103be57602011156115cb5760208110156115ac5761146e9161149d565b60019160ff19166115c284600052602060002090565b55600202019055565b60019150600202019055565b9081546115e381610729565b9081831161160c575b8183106115fa575b50505050565b611603936114d2565b388080806115f4565b61161883838387611584565b6115ec565b6000610166916115d7565b90600003611639576101669061161d565b611400565b60009060029061164e8382611628565b61165b8360018301611472565b0155565b90600003611639576101669061163e565b81811061167b575050565b80611689600060039361165f565b01611670565b91909182821061169e57505050565b6116b6610fee6116b061016695611416565b93611416565b9182019101611670565b90600160401b81116103be576101669160329061168f565b9190601f81116116e757505050565b6116f961016693600052602060002090565b906020601f840181900483019310611719575b6020601f90910104611563565b909150819061170c565b9061172c815190565b9067ffffffffffffffff82116103be576117508261174a8554610729565b856116d8565b602090601f831160011461177e5761146e929160009183611773575b505061149d565b01519050388061176c565b601f1983169161179385600052602060002090565b9260005b8181106117d2575091600293918560019694106117b8575b50505002019055565b01516000196008601f8516021c19165b90553880806117af565b91936020600181928787015181550195019201611797565b9061016691611723565b906000199061144b565b9061180e61018b61146e92610f82565b82546117f4565b9061ffff9061144b565b61081861018b61018b9261ffff1690565b9061184061018b61146e9261181f565b8254611815565b9063ffff00009060101b61144b565b9061186661018b61146e9261181f565b8254611847565b906118c7606060026101669461188d611887600087015190565b826117ea565b6118a461189b602087015190565b600183016117fe565b01926118be6118b8604083015161ffff1690565b85611830565b015161ffff1690565b90611856565b906101669161186d565b6118ea610fee60329361018b85856116c0565b6000915b8383106118fb5750505050565b600360208261191361190d6001955190565b866118cd565b019201920191906118ee565b90610166916118d7565b6097611964604061016694611948611942600083015190565b8661191f565b61195f611956602083015190565b609687016117fe565b015190565b91016117fe565b91906116395761016691611929565b90815491600160401b8310156103be578261199d91600161016695018155610ae9565b9061196b565b610166906119b16032611416565b810190611670565b9060000361163957610166906119a3565b6119f46119e06119da6001610809565b42610f75565b6119ee610fee615460610f82565b11610f8f565b6119fd306109b1565b31600290611a13611a0d83610f82565b82610fe8565b91611a1d81611002565b90600091611a3c611a3784611a3281866106f8565b500190565b61100b565b611a48610fee85610f82565b1161203d575b600193611a62611a3785611a3288876106f8565b611a6e610fee86610f82565b11611ffa575b611a85611a3785611a3286806106f8565b611a91610fee86610f82565b11611fb1575b846003611aac611a3787611a326003896106f8565b611ab8610fee88610f82565b11611f6c575b611ad0611a3787611a326004896106f8565b611adc610fee88610f82565b11611f1e575b9085929181611af16005610f82565b905b611e78575b505080611b05600a610f82565b905b611dd6575b5080611b186014610f82565b905b611d44575b5080611b2b601e610f82565b905b611ca4575b505081611bb49392611b8592611b6d611b5d611b4c6128df565b92611b576028610f82565b906110d1565b611b676064610f82565b90610fe8565b60405190818003925af1611b7f6110f1565b506113bc565b609d611b99611b92610c65565b9286840152565b611ba4426020840152565b611baf876040840152565b61197a565b82611bbe83610f82565b905b611c17575b50611bdb9291611bd4916119b9565b42906117fe565b7f56ca301a9219608c91e7bcee90e083c19671d2cdcc96752c7af291cee5f9c8c8611c12611c0842610f82565b92610a8160405190565b0390a2565b611c216032610f82565b811015611c9f57611c5581611c3e611a3786611a328996886106f8565b611c4a610fee87610f82565b11611c5b5760010190565b90611bc0565b611c99611c7e611c79609b88611c71868a6106f8565b5001906110b5565b6110c7565b84611c93611c8b89610f82565b9260986109ba565b016117fe565b60010190565b611bc5565b909192611cb16032610f82565b821015611d3c5790611ccd611a37611ce493611a32848a6106f8565b611cd9610fee89610f82565b11611cee5760010190565b9085929181611b2d565b611c9987808b611d24611d19611d0e611c798d86611c718b609b936106f8565b92611b57602d610f82565b611b67612710610f82565b60405190818003925af1611d366110f1565b50611370565b929190611b32565b90919250611d52601e610f82565b811015611dcd5780611d6e611a3788611a32611d85958a6106f8565b611d7a610fee89610f82565b11611d8f5760010190565b9085929181611b1a565b611c998780611da7611c79609b83611c71888e6106f8565b611db58d611b676064610f82565b60405190818003925af1611dc76110f1565b50611324565b90859291611b1f565b90919250611de46014610f82565b811015611e6f5780611e00611a3788611a32611e17958a6106f8565b611e0c610fee89610f82565b11611e215760010190565b9085929181611b07565b611c9987808b611e57611e4c611e41611c798d86611c718b609b936106f8565b92611b57600f610f82565b611b676103e8610f82565b60405190818003925af1611e696110f1565b506112d8565b90859291611b0c565b9091929350611e87600a610f82565b811015611f155780898888611ea6611a3783611a32611ec198856106f8565b611eb2610fee84610f82565b11611ecc575b50505060010190565b908291879493611af3565b611f0d92611ef5611b5d611eeb611c79869586611c718b609b936106f8565b92611b578a610f82565b60405190818003925af1611f076110f1565b5061128c565b898888611eb8565b86939291611af8565b611f678680611f3e611c7982611f3560048c6106f8565b5001609b6110b5565b611f4f611b5d8d611b576006610f82565b60405190818003925af1611f616110f1565b50611240565b611ae2565b611fac8680611f83611c7982611f3560038c6106f8565b611f94611b5d8d611b576008610f82565b60405190818003925af1611fa66110f1565b506111f4565b611abe565b611ff58480611fc7611c7982611f3589806106f8565b611fdd611b5d611fd7600a610f82565b8c6110d1565b60405190818003925af1611fef6110f1565b506111a8565b611a97565b6120388480612010611c7982611f358b8a6106f8565b612020611b5d611fd7600c610f82565b60405190818003925af16120326110f1565b5061115c565b611a74565b6120818380612053611c7982611f3581896106f8565b612069611b5d612063600f610f82565b8b6110d1565b60405190818003925af161207b6110f1565b50611110565b611a4e565b610166610f65565b1561209557565b60405162461bcd60e51b815260206004820152601860248201527f557365726e616d652063616e6e6f7420626520656d70747900000000000000006044820152606490fd5b61018b906104d3565b61018b90546120da565b156120f457565b60405162461bcd60e51b81526020600482015260166024820152752ab9b2b93730b6b29030b63932b0b23c903a30b5b2b760511b6044820152606490fd5b1561213957565b60405162461bcd60e51b815260206004820152601760248201527f5573657220616c726561647920726567697374657265640000000000000000006044820152606490fd5b61018b91610470565b1561218e57565b60405162461bcd60e51b815260206004820152601f60248201527f557365726e616d652063616e6e6f7420626520276e6f526566657272657227006044820152606490fd5b156121da57565b60405162461bcd60e51b815260206004820152601760248201527f5265666572726572206e6f7420726567697374657265640000000000000000006044820152606490fd5b61222c9061ffff16610c14565b019061ffff8211610c2a57565b9060ff9061144b565b9061225261018b61146e92151590565b8254612239565b906001600160a01b039061144b565b9061227861018b61146e926109b1565b8254612259565b61018b9060a01c610a97565b61018b905461227f565b63ffffffff1663ffffffff8114610c2a5760010190565b9063ffffffff60a01b9060a01b61144b565b610a9761018b61018b9263ffffffff1690565b906122e161018b61146e926122be565b82546122ac565b602080825261018b929101906101b5565b906124d8906124c1612309845190565b9161232260009361231c610fee86610f82565b1161208e565b61234461233f61233b61233688609c6104c1565b6120e3565b1590565b6120ed565b61235d61235861233b6123363360996109ba565b612132565b6123e161236960405190565b612387816020810161237b8a8261217e565b9081038252038261039c565b612399612392825190565b9160200190565b206123da610fee6123a960405190565b6123cb816020810161237b81693737a932b332b93932b960b11b8152600a0190565b6123d6612392825190565b2090565b1415612187565b61247e6001916123f083610b8b565b906123fa60405190565b61240c816020810161237b858261217e565b612417612392825190565b20612427610fee6123a960405190565b03612518575b50612457612439610c90565b916124448988850152565b6108b261245088610f82565b6020850152565b61246e61246386610b8b565b61ffff166060830152565b6124793360986109ba565b6118cd565b6124928161248d3360996109ba565b612242565b6124a18161248d87609a6104c1565b6124b66124af86609b6104c1565b3390612268565b61248d85609c6104c1565b6124d26124cd8261228b565b612295565b906122d1565b7f48cac28ad4dc618e15f4c2dd5e97751182f166de97b25618318b2112aa951a2f611c12612505336109b1565b9261250f60405190565b918291826122e8565b9061257261259d9161253661253161233686609a6104c1565b6121d3565b61256c600261255361254c611c7988609b6104c1565b60986109ba565b01612566836125618361081f565b61221f565b90611830565b8061221f565b916118c7600261259261254c611c7961258a8a610b8b565b95609b6104c1565b019161256183610835565b3861242d565b6125ab610d08565b5061018b6002611002565b6125be612aa2565b6101666125dc565b6105b961018b61018b9290565b61018b906125c6565b6101666125e960006125d3565b612ae4565b6101666125b6565b156125fd57565b60405162461bcd60e51b815260206004820152601e60248201527f596f75206d7573742070617920302e30312054454120746f20636c69636b00006044820152606490fd5b1561264957565b60405162461bcd60e51b8152602060048201526013602482015272155cd95c881b9bdd081c9959da5cdd195c9959606a1b6044820152606490fd5b91908201809211610c2a57565b6126ab6126a4662386f26fc10000610f82565b34146125f6565b6126c16126bc6123363360996109ba565b612642565b61271a6001610e7e609861270a6126e6610edf60026126e033866109ba565b0161081f565b612704856126f433866109ba565b01916126ff83610809565b612684565b906117fe565b61271333612c99565b33906109ba565b7f9cb0084f66100232b6cdcee6915499fbfb0cd080317c9488bd71880f8cdb91dc611c12611c08336109b1565b1561274e57565b60405162461bcd60e51b815260206004820152601b60248201527f50616765206d7573742062652067726561746572207468616e203000000000006044820152606490fd5b6127a09061ffff16610c14565b029061ffff8216918203610c2a57565b156127b757565b60405162461bcd60e51b815260206004820152601b60248201527f5374617274206d757374206265206c657373207468616e20656e6400000000006044820152606490fd5b9190609d9261280d610ea2609d5490565b9161282661281b6000610b8b565b61ffff841611612747565b61284f6128488261284360019561283d6001610b8b565b90610c0b565b612793565b918261221f565b948561285e61ffff8616610c14565b116128d6575b61287761ffff871661ffff8416106127b0565b612887610ee4610edf8489610c0b565b9582845b612899575b50505050509190565b61ffff821661ffff821610156128d15780610f47610f416128bd6128cb9487610ae9565b50610f28610f228986610c0b565b8461288b565b612890565b94508294612864565b61018b60006110c7565b156128f057565b60405162461bcd60e51b815260206004820152603960248201527f596f75206d757374207061792031302c2032352c206f7220353020544541207460448201527f6f20696e63726561736520746865206d756c7469706c696572000000000000006064820152608490fd5b61296c678ac7230489e80000610f82565b3414808115612a2d575b8015612a0e575b612986906128e9565b6129976126bc6123363360996109ba565b156129c4576101666129a9600a610b8b565b61256660026129b93360986109ba565b01916125618361081f565b6129d668015af1d78b58c40000610f82565b34036129e9576101666129a96019610b8b565b6129fb6802b5e3af16b1880000610f82565b3403610166576101666129a96032610b8b565b50612986612a246802b5e3af16b1880000610f82565b3414905061297d565b50612a4068015af1d78b58c40000610f82565b3414612976565b61016690612a53612aa2565b6000612a5e816125d3565b612a67816105b9565b612a70846105b9565b14612a8057505061016690612ae4565b631e4fbdf760e01b82528190610bf190600483016105ee565b61016690612a47565b612aaa6128df565b3390612abe612ab8836105b9565b916105b9565b03612ac65750565b63118cdaa760e01b600090815290612adf9060046105ee565b036000fd5b612b0a612b04612af460006110c7565b612aff846000612268565b6109b1565b916109b1565b907f8be0079c531659141344cd1fd0a4f28419497f9722a3daafe3b4186f6b6457e0612b3560405190565b600090a3565b61018b91611015565b9190611639576101669161186d565b8015610c2a576000190190565b90808214612c3057612b718161100b565b9067ffffffffffffffff82116103be57612b8f8261174a8554610729565b600090601f8311600114612bbc5761146e929160009183612bb157505061149d565b01549050388061176c565b90612bd1601f19841692600052602060002090565b90612be185600052602060002090565b92815b818110612c1857509160029391856001969410612c045750505002019055565b01546000196008601f8516021c19166117c8565b91936001806020928787015481550195019201612be4565b5050565b9061016691612b60565b90808203612c4a575050565b610166916118c7906002908190612c618582612c34565b612c7061189b60018701610809565b019201612c85612c7f8261081f565b84611830565b610835565b91906116395761016691612c3e565b612ca7612cac9160986109ba565b610e0b565b600090612cb96000610f82565b612cc36032610f82565b811015612d5257600283612cd783836106f8565b5001612cf5612ce560405190565b809261237b602083019182612b3b565b612d00612392825190565b20612d27610fee868601516123cb612d1760405190565b809261237b60208301918261217e565b14612d355750600101612cb9565b612d4a935090612d44916106f8565b90612b44565b610166612e11565b509050612d5f6000610f82565b915b612d6b6032610f82565b831015612e0c57600292612d8b6001612d8483876106f8565b5001610809565b612d9c610fee61018b602087015190565b10612dab576001019250612d61565b91612db66031610f82565b83811115612dfc57612df790612df2612de1612ddb612dd56001610f82565b84610f75565b886106f8565b50612dec83896106f8565b90612c8a565b612b53565b612db6565b50909261016692612d44916106f8565b915050565b612e1b6000610f82565b6032612e2681610f82565b821015612c305760019081612e43612e3d82610f82565b85612684565b905b612e5c575b505050612e579060010190565b612e1b565b612e6582610f82565b811015612ee95790612ea383926002612e8285612d8484846106f8565b612e96610fee61018b88612d848c876106f8565b11612eaa575b5060010190565b9091612e45565b80612d4483612ec5612ebf8b612ee3966106f8565b50610e0b565b92612ede612ed383836106f8565b50612dec8d846106f8565b6106f8565b38612e9c565b612e4a56fea2646970667358221220cf92c3464e76d81c66fb91dd140be53706790df99cddf73cc563cae264dfd75e64736f6c634300081c0033",
          "opcodes": "PUSH1 0x80 PUSH1 0x40 MSTORE CALLVALUE PUSH2 0x22 JUMPI PUSH2 0x11 PUSH2 0x27 JUMP JUMPDEST PUSH1 0x40 MLOAD PUSH2 0x2F24 PUSH2 0x17F DUP3 CODECOPY PUSH2 0x2F24 SWAP1 RETURN JUMPDEST PUSH1 0x0 DUP1 REVERT JUMPDEST PUSH2 0x30 CALLER PUSH2 0x74 JUMP JUMPDEST JUMP JUMPDEST PUSH2 0x42 PUSH2 0x3F PUSH2 0x3F SWAP3 SWAP1 JUMP JUMPDEST SWAP1 JUMP JUMPDEST PUSH1 0x1 PUSH1 0x1 PUSH1 0xA0 SHL SUB AND SWAP1 JUMP JUMPDEST PUSH2 0x3F SWAP1 PUSH2 0x32 JUMP JUMPDEST PUSH2 0x60 SWAP1 PUSH2 0x42 JUMP JUMPDEST SWAP1 MSTORE JUMP JUMPDEST PUSH1 0x20 DUP2 ADD SWAP3 SWAP2 PUSH2 0x30 SWAP2 SWAP1 PUSH2 0x57 JUMP JUMPDEST PUSH1 0x0 PUSH2 0x7F DUP2 PUSH2 0x4E JUMP JUMPDEST PUSH2 0x88 DUP2 PUSH2 0x42 JUMP JUMPDEST PUSH2 0x91 DUP5 PUSH2 0x42 JUMP JUMPDEST EQ PUSH2 0xA1 JUMPI POP POP PUSH2 0x30 SWAP1 PUSH2 0x127 JUMP JUMPDEST PUSH4 0x1E4FBDF7 PUSH1 0xE0 SHL DUP3 MSTORE DUP2 SWAP1 PUSH2 0xBA SWAP1 PUSH1 0x4 DUP4 ADD PUSH2 0x64 JUMP JUMPDEST SUB SWAP1 REVERT JUMPDEST PUSH2 0x3F SWAP1 PUSH2 0x42 JUMP JUMPDEST PUSH2 0x3F SWAP1 SLOAD PUSH2 0xBE JUMP JUMPDEST PUSH2 0x3F SWAP1 PUSH2 0x42 SWAP1 PUSH1 0x1 PUSH1 0x1 PUSH1 0xA0 SHL SUB AND DUP3 JUMP JUMPDEST PUSH2 0x3F SWAP1 PUSH2 0xD1 JUMP JUMPDEST PUSH2 0x3F SWAP1 PUSH2 0xE5 JUMP JUMPDEST SWAP1 PUSH2 0x107 PUSH2 0x3F PUSH2 0x123 SWAP3 PUSH2 0xEE JUMP JUMPDEST DUP3 SLOAD PUSH1 0x1 PUSH1 0x1 PUSH1 0xA0 SHL SUB NOT AND PUSH1 0x1 PUSH1 0x1 PUSH1 0xA0 SHL SUB SWAP2 SWAP1 SWAP2 AND OR SWAP1 JUMP JUMPDEST SWAP1 SSTORE JUMP JUMPDEST PUSH2 0x14D PUSH2 0x147 PUSH2 0x137 PUSH1 0x0 PUSH2 0xC7 JUMP JUMPDEST PUSH2 0x142 DUP5 PUSH1 0x0 PUSH2 0xF7 JUMP JUMPDEST PUSH2 0xEE JUMP JUMPDEST SWAP2 PUSH2 0xEE JUMP JUMPDEST SWAP1 PUSH32 0x8BE0079C531659141344CD1FD0A4F28419497F9722A3DAAFE3B4186F6B6457E0 PUSH2 0x178 PUSH1 0x40 MLOAD SWAP1 JUMP JUMPDEST PUSH1 0x0 SWAP1 LOG3 JUMP INVALID PUSH1 0x80 PUSH1 0x40 MSTORE PUSH1 0x4 CALLDATASIZE LT ISZERO PUSH2 0x12 JUMPI PUSH1 0x0 DUP1 REVERT JUMPDEST PUSH1 0x0 CALLDATALOAD PUSH1 0xE0 SHR DUP1 PUSH4 0x1682D257 EQ PUSH2 0x142 JUMPI DUP1 PUSH4 0x176C5919 EQ PUSH2 0x13D JUMPI DUP1 PUSH4 0x3CCFD60B EQ PUSH2 0x138 JUMPI DUP1 PUSH4 0x3FFBD47F EQ PUSH2 0x133 JUMPI DUP1 PUSH4 0x6322961D EQ PUSH2 0x12E JUMPI DUP1 PUSH4 0x6D763A6E EQ PUSH2 0x129 JUMPI DUP1 PUSH4 0x715018A6 EQ PUSH2 0x124 JUMPI DUP1 PUSH4 0x71A726CA EQ PUSH2 0x11F JUMPI DUP1 PUSH4 0x7D55923D EQ PUSH2 0x11A JUMPI DUP1 PUSH4 0x8BEF3E75 EQ PUSH2 0x115 JUMPI DUP1 PUSH4 0x8DA5CB5B EQ PUSH2 0x110 JUMPI DUP1 PUSH4 0x9201107D EQ PUSH2 0x10B JUMPI DUP1 PUSH4 0x9C440E09 EQ PUSH2 0x106 JUMPI DUP1 PUSH4 0x9CBBD55B EQ PUSH2 0x101 JUMPI DUP1 PUSH4 0xA87430BA EQ PUSH2 0xFC JUMPI DUP1 PUSH4 0xB52EEA74 EQ PUSH2 0xF7 JUMPI DUP1 PUSH4 0xBFF1F9E1 EQ PUSH2 0xF2 JUMPI DUP1 PUSH4 0xD800B9BD EQ PUSH2 0xED JUMPI PUSH4 0xF2FDE38B SUB PUSH2 0x154 JUMPI PUSH2 0xB73 JUMP JUMPDEST PUSH2 0xB45 JUMP JUMPDEST PUSH2 0xAB7 JUMP JUMPDEST PUSH2 0xA62 JUMP JUMPDEST PUSH2 0xA25 JUMP JUMPDEST PUSH2 0x9FD JUMP JUMPDEST PUSH2 0x9E2 JUMP JUMPDEST PUSH2 0x94F JUMP JUMPDEST PUSH2 0x924 JUMP JUMPDEST PUSH2 0x90B JUMP JUMPDEST PUSH2 0x8F8 JUMP JUMPDEST PUSH2 0x8C7 JUMP JUMPDEST PUSH2 0x6A3 JUMP JUMPDEST PUSH2 0x67C JUMP JUMPDEST PUSH2 0x5FE JUMP JUMPDEST PUSH2 0x597 JUMP JUMPDEST PUSH2 0x531 JUMP JUMPDEST PUSH2 0x4F9 JUMP JUMPDEST PUSH2 0x353 JUMP JUMPDEST PUSH2 0xFFFF DUP2 AND JUMPDEST SUB PUSH2 0x154 JUMPI JUMP JUMPDEST PUSH1 0x0 DUP1 REVERT JUMPDEST SWAP1 POP CALLDATALOAD SWAP1 PUSH2 0x166 DUP3 PUSH2 0x147 JUMP JUMPDEST JUMP JUMPDEST SWAP2 SWAP1 PUSH1 0x40 DUP4 DUP3 SUB SLT PUSH2 0x154 JUMPI PUSH2 0x18B SWAP1 PUSH1 0x20 PUSH2 0x184 DUP3 DUP7 PUSH2 0x159 JUMP JUMPDEST SWAP5 ADD PUSH2 0x159 JUMP JUMPDEST SWAP1 JUMP JUMPDEST SWAP1 MSTORE JUMP JUMPDEST PUSH1 0x0 JUMPDEST DUP4 DUP2 LT PUSH2 0x1A5 JUMPI POP POP PUSH1 0x0 SWAP2 ADD MSTORE JUMP JUMPDEST DUP2 DUP2 ADD MLOAD DUP4 DUP3 ADD MSTORE PUSH1 0x20 ADD PUSH2 0x195 JUMP JUMPDEST PUSH2 0x1D6 PUSH2 0x1DF PUSH1 0x20 SWAP4 PUSH2 0x1E9 SWAP4 PUSH2 0x1CA DUP2 MLOAD SWAP1 JUMP JUMPDEST DUP1 DUP4 MSTORE SWAP4 DUP5 SWAP3 PUSH1 0x20 ADD SWAP1 JUMP JUMPDEST SWAP6 DUP7 SWAP2 ADD PUSH2 0x192 JUMP JUMPDEST PUSH1 0x1F ADD PUSH1 0x1F NOT AND SWAP1 JUMP JUMPDEST ADD SWAP1 JUMP JUMPDEST SWAP1 PUSH2 0x18B SWAP1 PUSH1 0x60 DUP1 PUSH2 0x20E PUSH1 0x80 DUP5 ADD PUSH1 0x0 DUP8 ADD MLOAD DUP6 DUP3 SUB PUSH1 0x0 DUP8 ADD MSTORE PUSH2 0x1B5 JUMP JUMPDEST SWAP5 PUSH2 0x21E PUSH1 0x20 DUP3 ADD MLOAD PUSH1 0x20 DUP7 ADD MSTORE JUMP JUMPDEST PUSH1 0x40 DUP2 DUP2 ADD MLOAD PUSH2 0xFFFF AND SWAP1 DUP6 ADD MSTORE ADD MLOAD PUSH2 0xFFFF AND SWAP2 ADD MSTORE JUMP JUMPDEST SWAP1 PUSH2 0x18B SWAP2 PUSH2 0x1ED JUMP JUMPDEST PUSH2 0x640 DUP3 ADD SWAP2 PUSH1 0x32 SWAP1 PUSH1 0x0 SWAP1 DUP1 JUMPDEST DUP4 DUP4 LT PUSH2 0x25E JUMPI POP POP POP POP POP SWAP1 JUMP JUMPDEST SWAP1 SWAP2 SWAP3 SWAP4 SWAP5 PUSH1 0x20 PUSH2 0x281 PUSH2 0x27A DUP4 DUP6 PUSH1 0x1 SWAP6 SUB DUP8 MSTORE DUP10 MLOAD PUSH2 0x237 JUMP JUMPDEST SWAP8 PUSH1 0x20 ADD SWAP1 JUMP JUMPDEST SWAP4 ADD SWAP4 ADD SWAP2 SWAP4 SWAP3 SWAP1 PUSH2 0x24F JUMP JUMPDEST SWAP1 PUSH2 0x18B SWAP1 PUSH1 0x40 DUP1 PUSH2 0x2AF PUSH1 0x60 DUP5 ADD PUSH1 0x0 DUP8 ADD MLOAD DUP6 DUP3 SUB PUSH1 0x0 DUP8 ADD MSTORE PUSH2 0x241 JUMP JUMPDEST SWAP5 PUSH2 0x2BF PUSH1 0x20 DUP3 ADD MLOAD PUSH1 0x20 DUP7 ADD MSTORE JUMP JUMPDEST ADD MLOAD SWAP2 ADD MSTORE JUMP JUMPDEST SWAP1 PUSH2 0x18B SWAP2 PUSH2 0x28E JUMP JUMPDEST SWAP1 PUSH2 0x2E6 PUSH2 0x2DC DUP4 MLOAD SWAP1 JUMP JUMPDEST DUP1 DUP4 MSTORE SWAP2 PUSH1 0x20 ADD SWAP1 JUMP JUMPDEST SWAP1 DUP2 PUSH2 0x2F8 PUSH1 0x20 DUP4 MUL DUP5 ADD SWAP5 PUSH1 0x20 ADD SWAP1 JUMP JUMPDEST SWAP3 PUSH1 0x0 SWAP2 JUMPDEST DUP4 DUP4 LT PUSH2 0x30C JUMPI POP POP POP POP POP SWAP1 JUMP JUMPDEST SWAP1 SWAP2 SWAP3 SWAP4 SWAP5 PUSH1 0x20 PUSH2 0x328 PUSH2 0x27A DUP4 DUP6 PUSH1 0x1 SWAP6 SUB DUP8 MSTORE DUP10 MLOAD PUSH2 0x2C6 JUMP JUMPDEST SWAP4 ADD SWAP4 ADD SWAP2 SWAP4 SWAP3 SWAP1 PUSH2 0x2FD JUMP JUMPDEST PUSH2 0xFFFF SWAP1 SWAP2 AND DUP2 MSTORE PUSH2 0x18B SWAP2 PUSH1 0x40 DUP3 ADD SWAP2 PUSH1 0x20 DUP2 DUP5 SUB SWAP2 ADD MSTORE PUSH2 0x2D0 JUMP JUMPDEST CALLVALUE PUSH2 0x154 JUMPI PUSH2 0x36C PUSH2 0x366 CALLDATASIZE PUSH1 0x4 PUSH2 0x168 JUMP JUMPDEST SWAP1 PUSH2 0xE94 JUMP JUMPDEST SWAP1 PUSH2 0x382 PUSH2 0x379 PUSH1 0x40 MLOAD SWAP1 JUMP JUMPDEST SWAP3 DUP4 SWAP3 DUP4 PUSH2 0x335 JUMP JUMPDEST SUB SWAP1 RETURN JUMPDEST PUSH4 0x4E487B71 PUSH1 0xE0 SHL PUSH1 0x0 MSTORE PUSH1 0x41 PUSH1 0x4 MSTORE PUSH1 0x24 PUSH1 0x0 REVERT JUMPDEST SWAP1 PUSH1 0x1F ADD PUSH1 0x1F NOT AND DUP2 ADD SWAP1 DUP2 LT PUSH8 0xFFFFFFFFFFFFFFFF DUP3 GT OR PUSH2 0x3BE JUMPI PUSH1 0x40 MSTORE JUMP JUMPDEST PUSH2 0x386 JUMP JUMPDEST SWAP1 PUSH2 0x166 PUSH2 0x3D0 PUSH1 0x40 MLOAD SWAP1 JUMP JUMPDEST SWAP3 DUP4 PUSH2 0x39C JUMP JUMPDEST PUSH8 0xFFFFFFFFFFFFFFFF DUP2 GT PUSH2 0x3BE JUMPI PUSH1 0x20 SWAP1 PUSH1 0x1F ADD PUSH1 0x1F NOT AND ADD SWAP1 JUMP JUMPDEST SWAP1 DUP3 PUSH1 0x0 SWAP4 SWAP3 DUP3 CALLDATACOPY ADD MSTORE JUMP JUMPDEST SWAP1 SWAP3 SWAP2 SWAP3 PUSH2 0x415 PUSH2 0x410 DUP3 PUSH2 0x3D7 JUMP JUMPDEST PUSH2 0x3C3 JUMP JUMPDEST SWAP4 DUP2 DUP6 MSTORE DUP2 DUP4 ADD GT PUSH2 0x154 JUMPI PUSH2 0x166 SWAP2 PUSH1 0x20 DUP6 ADD SWAP1 PUSH2 0x3F4 JUMP JUMPDEST SWAP1 DUP1 PUSH1 0x1F DUP4 ADD SLT ISZERO PUSH2 0x154 JUMPI DUP2 PUSH1 0x20 PUSH2 0x18B SWAP4 CALLDATALOAD SWAP2 ADD PUSH2 0x400 JUMP JUMPDEST SWAP1 PUSH1 0x20 DUP3 DUP3 SUB SLT PUSH2 0x154 JUMPI DUP2 CALLDATALOAD PUSH8 0xFFFFFFFFFFFFFFFF DUP2 GT PUSH2 0x154 JUMPI PUSH2 0x18B SWAP3 ADD PUSH2 0x42F JUMP JUMPDEST PUSH2 0x1E9 PUSH2 0x488 SWAP3 PUSH1 0x20 SWAP3 PUSH2 0x482 DUP2 MLOAD SWAP1 JUMP JUMPDEST SWAP5 DUP6 SWAP3 SWAP1 JUMP JUMPDEST SWAP4 DUP5 SWAP2 ADD PUSH2 0x192 JUMP JUMPDEST PUSH2 0x4A1 PUSH2 0x1E9 SWAP2 PUSH1 0x20 SWAP5 SWAP4 PUSH2 0x470 JUMP JUMPDEST SWAP2 DUP3 MSTORE JUMP JUMPDEST PUSH2 0x4BB PUSH2 0x4B2 PUSH1 0x40 MLOAD SWAP1 JUMP JUMPDEST SWAP3 DUP4 SWAP3 DUP4 PUSH2 0x491 JUMP JUMPDEST SUB SWAP1 KECCAK256 SWAP1 JUMP JUMPDEST PUSH2 0x18B SWAP2 PUSH2 0x4A6 JUMP JUMPDEST PUSH2 0x18B SWAP2 PUSH1 0x8 MUL SHR JUMPDEST PUSH1 0xFF AND SWAP1 JUMP JUMPDEST SWAP1 PUSH2 0x18B SWAP2 SLOAD PUSH2 0x4CA JUMP JUMPDEST PUSH1 0x0 PUSH2 0x4F4 PUSH2 0x18B SWAP3 PUSH1 0x9C PUSH2 0x4C1 JUMP JUMPDEST PUSH2 0x4D9 JUMP JUMPDEST CALLVALUE PUSH2 0x154 JUMPI PUSH2 0x382 PUSH2 0x514 PUSH2 0x50F CALLDATASIZE PUSH1 0x4 PUSH2 0x44A JUMP JUMPDEST PUSH2 0x4E4 JUMP JUMPDEST PUSH1 0x40 MLOAD SWAP2 DUP3 SWAP2 DUP3 SWAP1 ISZERO ISZERO DUP2 MSTORE PUSH1 0x20 ADD SWAP1 JUMP JUMPDEST PUSH1 0x0 SWAP2 SUB SLT PUSH2 0x154 JUMPI JUMP JUMPDEST CALLVALUE PUSH2 0x154 JUMPI PUSH2 0x541 CALLDATASIZE PUSH1 0x4 PUSH2 0x526 JUMP JUMPDEST PUSH2 0x549 PUSH2 0x2086 JUMP JUMPDEST PUSH1 0x40 MLOAD STOP JUMPDEST SWAP2 SWAP1 SWAP2 PUSH1 0x40 DUP2 DUP5 SUB SLT PUSH2 0x154 JUMPI DUP1 CALLDATALOAD PUSH8 0xFFFFFFFFFFFFFFFF DUP2 GT PUSH2 0x154 JUMPI DUP4 PUSH2 0x578 SWAP2 DUP4 ADD PUSH2 0x42F JUMP JUMPDEST SWAP3 PUSH1 0x20 DUP3 ADD CALLDATALOAD PUSH8 0xFFFFFFFFFFFFFFFF DUP2 GT PUSH2 0x154 JUMPI PUSH2 0x18B SWAP3 ADD PUSH2 0x42F JUMP JUMPDEST CALLVALUE PUSH2 0x154 JUMPI PUSH2 0x549 PUSH2 0x5AA CALLDATASIZE PUSH1 0x4 PUSH2 0x54E JUMP JUMPDEST SWAP1 PUSH2 0x22F9 JUMP JUMPDEST PUSH2 0x18B SWAP2 PUSH1 0x8 MUL SHR JUMPDEST PUSH1 0x1 PUSH1 0x1 PUSH1 0xA0 SHL SUB AND SWAP1 JUMP JUMPDEST SWAP1 PUSH2 0x18B SWAP2 SLOAD PUSH2 0x5B0 JUMP JUMPDEST PUSH1 0x0 PUSH2 0x5E0 PUSH2 0x18B SWAP3 PUSH1 0x9B PUSH2 0x4C1 JUMP JUMPDEST PUSH2 0x5C5 JUMP JUMPDEST PUSH2 0x18E SWAP1 PUSH2 0x5B9 JUMP JUMPDEST PUSH1 0x20 DUP2 ADD SWAP3 SWAP2 PUSH2 0x166 SWAP2 SWAP1 PUSH2 0x5E5 JUMP JUMPDEST CALLVALUE PUSH2 0x154 JUMPI PUSH2 0x382 PUSH2 0x619 PUSH2 0x614 CALLDATASIZE PUSH1 0x4 PUSH2 0x44A JUMP JUMPDEST PUSH2 0x5D0 JUMP JUMPDEST PUSH1 0x40 MLOAD SWAP2 DUP3 SWAP2 DUP3 PUSH2 0x5EE JUMP JUMPDEST PUSH2 0x640 DUP3 ADD SWAP2 PUSH1 0x32 SWAP1 PUSH1 0x0 SWAP1 DUP1 JUMPDEST DUP4 DUP4 LT PUSH2 0x642 JUMPI POP POP POP POP POP SWAP1 JUMP JUMPDEST SWAP1 SWAP2 SWAP3 SWAP4 SWAP5 PUSH1 0x20 PUSH2 0x65E PUSH2 0x27A DUP4 DUP6 PUSH1 0x1 SWAP6 SUB DUP8 MSTORE DUP10 MLOAD PUSH2 0x237 JUMP JUMPDEST SWAP4 ADD SWAP4 ADD SWAP2 SWAP4 SWAP3 SWAP1 PUSH2 0x633 JUMP JUMPDEST PUSH1 0x20 DUP1 DUP3 MSTORE PUSH2 0x18B SWAP3 SWAP2 ADD SWAP1 PUSH2 0x625 JUMP JUMPDEST CALLVALUE PUSH2 0x154 JUMPI PUSH2 0x68C CALLDATASIZE PUSH1 0x4 PUSH2 0x526 JUMP JUMPDEST PUSH2 0x382 PUSH2 0x697 PUSH2 0x25A3 JUMP JUMPDEST PUSH1 0x40 MLOAD SWAP2 DUP3 SWAP2 DUP3 PUSH2 0x66B JUMP JUMPDEST CALLVALUE PUSH2 0x154 JUMPI PUSH2 0x6B3 CALLDATASIZE PUSH1 0x4 PUSH2 0x526 JUMP JUMPDEST PUSH2 0x549 PUSH2 0x25EE JUMP JUMPDEST DUP1 PUSH2 0x14D JUMP JUMPDEST SWAP1 POP CALLDATALOAD SWAP1 PUSH2 0x166 DUP3 PUSH2 0x6BB JUMP JUMPDEST SWAP1 PUSH1 0x20 DUP3 DUP3 SUB SLT PUSH2 0x154 JUMPI PUSH2 0x18B SWAP2 PUSH2 0x6C1 JUMP JUMPDEST PUSH4 0x4E487B71 PUSH1 0xE0 SHL PUSH1 0x0 MSTORE PUSH1 0x32 PUSH1 0x4 MSTORE PUSH1 0x24 PUSH1 0x0 REVERT JUMPDEST PUSH1 0x32 DUP3 LT ISZERO PUSH2 0x70E JUMPI PUSH1 0x3 SWAP1 JUMPDEST SWAP2 MUL ADD SWAP1 PUSH1 0x0 SWAP1 JUMP JUMPDEST PUSH2 0x6E2 JUMP JUMPDEST PUSH4 0x4E487B71 PUSH1 0xE0 SHL PUSH1 0x0 MSTORE PUSH1 0x22 PUSH1 0x4 MSTORE PUSH1 0x24 PUSH1 0x0 REVERT JUMPDEST SWAP1 PUSH1 0x1 PUSH1 0x2 DUP4 DIV SWAP3 AND DUP1 ISZERO PUSH2 0x749 JUMPI JUMPDEST PUSH1 0x20 DUP4 LT EQ PUSH2 0x744 JUMPI JUMP JUMPDEST PUSH2 0x713 JUMP JUMPDEST SWAP2 PUSH1 0x7F AND SWAP2 PUSH2 0x739 JUMP JUMPDEST DUP1 SLOAD PUSH1 0x0 SWAP4 SWAP3 SWAP2 PUSH2 0x770 PUSH2 0x766 DUP4 PUSH2 0x729 JUMP JUMPDEST DUP1 DUP6 MSTORE SWAP4 PUSH1 0x20 ADD SWAP1 JUMP JUMPDEST SWAP2 PUSH1 0x1 DUP2 AND SWAP1 DUP2 ISZERO PUSH2 0x7C2 JUMPI POP PUSH1 0x1 EQ PUSH2 0x789 JUMPI POP POP POP JUMP JUMPDEST PUSH2 0x79C SWAP2 SWAP3 SWAP4 SWAP5 POP PUSH1 0x0 MSTORE PUSH1 0x20 PUSH1 0x0 KECCAK256 SWAP1 JUMP JUMPDEST SWAP2 PUSH1 0x0 SWAP3 JUMPDEST DUP2 DUP5 LT PUSH2 0x7AE JUMPI POP POP ADD SWAP1 JUMP JUMPDEST DUP1 SLOAD DUP5 DUP5 ADD MSTORE PUSH1 0x20 SWAP1 SWAP4 ADD SWAP3 PUSH1 0x1 ADD PUSH2 0x7A1 JUMP JUMPDEST SWAP3 SWAP5 SWAP6 POP POP POP PUSH1 0xFF NOT AND DUP3 MSTORE ISZERO ISZERO PUSH1 0x20 MUL ADD SWAP1 JUMP JUMPDEST SWAP1 PUSH2 0x18B SWAP2 PUSH2 0x753 JUMP JUMPDEST SWAP1 PUSH2 0x166 PUSH2 0x7FB SWAP3 PUSH2 0x7F2 PUSH1 0x40 MLOAD SWAP1 JUMP JUMPDEST SWAP4 DUP5 DUP1 SWAP3 PUSH2 0x7D7 JUMP JUMPDEST SUB DUP4 PUSH2 0x39C JUMP JUMPDEST PUSH2 0x18B SWAP1 DUP2 JUMP JUMPDEST PUSH2 0x18B SWAP1 SLOAD PUSH2 0x802 JUMP JUMPDEST PUSH2 0x18B SWAP1 JUMPDEST PUSH2 0xFFFF AND SWAP1 JUMP JUMPDEST PUSH2 0x18B SWAP1 SLOAD PUSH2 0x813 JUMP JUMPDEST PUSH2 0x18B SWAP1 PUSH1 0x10 SHR PUSH2 0x818 JUMP JUMPDEST PUSH2 0x18B SWAP1 SLOAD PUSH2 0x829 JUMP JUMPDEST PUSH1 0x2 SWAP1 PUSH1 0x32 DUP2 LT ISZERO PUSH2 0x154 JUMPI PUSH2 0x854 SWAP2 PUSH2 0x6F8 JUMP JUMPDEST POP SWAP1 PUSH2 0x85F DUP3 PUSH2 0x7E1 JUMP JUMPDEST SWAP2 PUSH2 0x86C PUSH1 0x1 DUP3 ADD PUSH2 0x809 JUMP JUMPDEST SWAP2 PUSH2 0x18B PUSH1 0x2 PUSH2 0x87D DUP2 DUP6 ADD PUSH2 0x81F JUMP JUMPDEST SWAP4 ADD PUSH2 0x835 JUMP JUMPDEST PUSH2 0x8BD PUSH2 0x166 SWAP5 PUSH2 0x8B2 PUSH2 0x8AA PUSH1 0x60 SWAP6 SWAP10 SWAP9 SWAP7 SWAP10 PUSH1 0x80 DUP7 ADD SWAP1 DUP7 DUP3 SUB PUSH1 0x0 DUP9 ADD MSTORE PUSH2 0x1B5 JUMP JUMPDEST SWAP9 PUSH1 0x20 DUP6 ADD MSTORE JUMP JUMPDEST PUSH2 0xFFFF AND PUSH1 0x40 DUP4 ADD MSTORE JUMP JUMPDEST ADD SWAP1 PUSH2 0xFFFF AND SWAP1 MSTORE JUMP JUMPDEST CALLVALUE PUSH2 0x154 JUMPI PUSH2 0x382 PUSH2 0x8E2 PUSH2 0x8DD CALLDATASIZE PUSH1 0x4 PUSH2 0x6CE JUMP JUMPDEST PUSH2 0x83F JUMP JUMPDEST SWAP1 PUSH2 0x8EF SWAP5 SWAP3 SWAP5 PUSH1 0x40 MLOAD SWAP1 JUMP JUMPDEST SWAP5 DUP6 SWAP5 DUP6 PUSH2 0x884 JUMP JUMPDEST PUSH2 0x903 CALLDATASIZE PUSH1 0x4 PUSH2 0x526 JUMP JUMPDEST PUSH2 0x549 PUSH2 0x2691 JUMP JUMPDEST CALLVALUE PUSH2 0x154 JUMPI PUSH2 0x36C PUSH2 0x91E CALLDATASIZE PUSH1 0x4 PUSH2 0x168 JUMP JUMPDEST SWAP1 PUSH2 0x27FC JUMP JUMPDEST CALLVALUE PUSH2 0x154 JUMPI PUSH2 0x934 CALLDATASIZE PUSH1 0x4 PUSH2 0x526 JUMP JUMPDEST PUSH2 0x382 PUSH2 0x619 PUSH2 0x28DF JUMP JUMPDEST PUSH1 0x0 PUSH2 0x4F4 PUSH2 0x18B SWAP3 PUSH1 0x9A PUSH2 0x4C1 JUMP JUMPDEST CALLVALUE PUSH2 0x154 JUMPI PUSH2 0x382 PUSH2 0x514 PUSH2 0x965 CALLDATASIZE PUSH1 0x4 PUSH2 0x44A JUMP JUMPDEST PUSH2 0x93F JUMP JUMPDEST PUSH2 0x14D DUP2 PUSH2 0x5B9 JUMP JUMPDEST SWAP1 POP CALLDATALOAD SWAP1 PUSH2 0x166 DUP3 PUSH2 0x96A JUMP JUMPDEST SWAP1 PUSH1 0x20 DUP3 DUP3 SUB SLT PUSH2 0x154 JUMPI PUSH2 0x18B SWAP2 PUSH2 0x973 JUMP JUMPDEST PUSH2 0x18B SWAP1 PUSH2 0x5B9 SWAP1 PUSH1 0x1 PUSH1 0x1 PUSH1 0xA0 SHL SUB AND DUP3 JUMP JUMPDEST PUSH2 0x18B SWAP1 PUSH2 0x994 JUMP JUMPDEST PUSH2 0x18B SWAP1 PUSH2 0x9A8 JUMP JUMPDEST SWAP1 PUSH2 0x9C4 SWAP1 PUSH2 0x9B1 JUMP JUMPDEST PUSH1 0x0 MSTORE PUSH1 0x20 MSTORE PUSH1 0x40 PUSH1 0x0 KECCAK256 SWAP1 JUMP JUMPDEST PUSH1 0x0 PUSH2 0x4F4 PUSH2 0x18B SWAP3 PUSH1 0x99 PUSH2 0x9BA JUMP JUMPDEST CALLVALUE PUSH2 0x154 JUMPI PUSH2 0x382 PUSH2 0x514 PUSH2 0x9F8 CALLDATASIZE PUSH1 0x4 PUSH2 0x980 JUMP JUMPDEST PUSH2 0x9D2 JUMP JUMPDEST PUSH2 0xA08 CALLDATASIZE PUSH1 0x4 PUSH2 0x526 JUMP JUMPDEST PUSH2 0x549 PUSH2 0x295B JUMP JUMPDEST PUSH2 0xA1B SWAP1 PUSH1 0x98 PUSH2 0x9BA JUMP JUMPDEST SWAP1 PUSH2 0x85F DUP3 PUSH2 0x7E1 JUMP JUMPDEST CALLVALUE PUSH2 0x154 JUMPI PUSH2 0x382 PUSH2 0x8E2 PUSH2 0xA3B CALLDATASIZE PUSH1 0x4 PUSH2 0x980 JUMP JUMPDEST PUSH2 0xA10 JUMP JUMPDEST PUSH2 0x18B SWAP2 PUSH1 0x8 MUL SHR DUP2 JUMP JUMPDEST SWAP1 PUSH2 0x18B SWAP2 SLOAD PUSH2 0xA40 JUMP JUMPDEST PUSH2 0x18B PUSH1 0x0 PUSH1 0x1 PUSH2 0xA4B JUMP JUMPDEST CALLVALUE PUSH2 0x154 JUMPI PUSH2 0xA72 CALLDATASIZE PUSH1 0x4 PUSH2 0x526 JUMP JUMPDEST PUSH2 0x382 PUSH2 0xA7D PUSH2 0xA56 JUMP JUMPDEST PUSH1 0x40 MLOAD JUMPDEST SWAP2 DUP3 SWAP2 DUP3 SWAP1 DUP2 MSTORE PUSH1 0x20 ADD SWAP1 JUMP JUMPDEST PUSH2 0x18B SWAP2 PUSH1 0x8 MUL SHR JUMPDEST PUSH4 0xFFFFFFFF AND SWAP1 JUMP JUMPDEST SWAP1 PUSH2 0x18B SWAP2 SLOAD PUSH2 0xA8E JUMP JUMPDEST PUSH2 0x18B PUSH1 0x14 PUSH1 0x0 PUSH2 0xAA0 JUMP JUMPDEST CALLVALUE PUSH2 0x154 JUMPI PUSH2 0xAC7 CALLDATASIZE PUSH1 0x4 PUSH2 0x526 JUMP JUMPDEST PUSH2 0x382 PUSH2 0xAD2 PUSH2 0xAAB JUMP JUMPDEST PUSH1 0x40 MLOAD SWAP2 DUP3 SWAP2 DUP3 PUSH4 0xFFFFFFFF SWAP1 SWAP2 AND DUP2 MSTORE PUSH1 0x20 ADD SWAP1 JUMP JUMPDEST DUP1 SLOAD DUP3 LT ISZERO PUSH2 0x70E JUMPI PUSH2 0x705 PUSH1 0x98 SWAP2 PUSH1 0x0 MSTORE PUSH1 0x20 PUSH1 0x0 KECCAK256 SWAP1 JUMP JUMPDEST PUSH1 0x9D SLOAD DUP2 LT ISZERO PUSH2 0x154 JUMPI PUSH2 0xB18 SWAP1 PUSH1 0x9D PUSH2 0xAE9 JUMP JUMPDEST POP SWAP1 PUSH2 0x18B PUSH1 0x97 PUSH2 0xB2B PUSH1 0x96 DUP6 ADD PUSH2 0x809 JUMP JUMPDEST SWAP4 ADD PUSH2 0x809 JUMP JUMPDEST SWAP1 DUP2 MSTORE PUSH1 0x40 DUP2 ADD SWAP3 SWAP2 PUSH2 0x166 SWAP2 PUSH1 0x20 ADD MSTORE JUMP JUMPDEST CALLVALUE PUSH2 0x154 JUMPI PUSH2 0xB5D PUSH2 0xB58 CALLDATASIZE PUSH1 0x4 PUSH2 0x6CE JUMP JUMPDEST PUSH2 0xB03 JUMP JUMPDEST SWAP1 PUSH2 0x382 PUSH2 0xB6A PUSH1 0x40 MLOAD SWAP1 JUMP JUMPDEST SWAP3 DUP4 SWAP3 DUP4 PUSH2 0xB32 JUMP JUMPDEST CALLVALUE PUSH2 0x154 JUMPI PUSH2 0x549 PUSH2 0xB86 CALLDATASIZE PUSH1 0x4 PUSH2 0x980 JUMP JUMPDEST PUSH2 0x2A99 JUMP JUMPDEST PUSH2 0x818 PUSH2 0x18B PUSH2 0x18B SWAP3 SWAP1 JUMP JUMPDEST ISZERO PUSH2 0xB9F JUMPI JUMP JUMPDEST PUSH1 0x40 MLOAD PUSH3 0x461BCD PUSH1 0xE5 SHL DUP2 MSTORE PUSH1 0x20 PUSH1 0x4 DUP3 ADD MSTORE PUSH1 0x23 PUSH1 0x24 DUP3 ADD MSTORE PUSH32 0x537461727420726F77206D757374206265206C657373207468616E20656E6420 PUSH1 0x44 DUP3 ADD MSTORE PUSH3 0x726F77 PUSH1 0xE8 SHL PUSH1 0x64 DUP3 ADD MSTORE DUP1 PUSH1 0x84 DUP2 ADD JUMPDEST SUB SWAP1 REVERT JUMPDEST PUSH4 0x4E487B71 PUSH1 0xE0 SHL PUSH1 0x0 MSTORE PUSH1 0x11 PUSH1 0x4 MSTORE PUSH1 0x24 PUSH1 0x0 REVERT JUMPDEST PUSH2 0xC1C SWAP1 PUSH2 0xFFFF AND JUMPDEST SWAP2 PUSH2 0xFFFF AND SWAP1 JUMP JUMPDEST SWAP1 SUB SWAP1 PUSH2 0xFFFF DUP3 GT PUSH2 0xC2A JUMPI JUMP JUMPDEST PUSH2 0xBF5 JUMP JUMPDEST PUSH2 0x18B PUSH2 0x18B PUSH2 0x18B SWAP3 PUSH2 0xFFFF AND SWAP1 JUMP JUMPDEST PUSH8 0xFFFFFFFFFFFFFFFF DUP2 GT PUSH2 0x3BE JUMPI PUSH1 0x20 DUP1 SWAP2 MUL ADD SWAP1 JUMP JUMPDEST SWAP1 PUSH2 0x4A1 PUSH2 0x410 DUP4 PUSH2 0xC40 JUMP JUMPDEST PUSH2 0x18B PUSH1 0x60 PUSH2 0x3C3 JUMP JUMPDEST PUSH8 0xFFFFFFFFFFFFFFFF DUP2 GT PUSH2 0x3BE JUMPI PUSH1 0x20 MUL SWAP1 JUMP JUMPDEST PUSH2 0x410 PUSH2 0x18B SWAP2 PUSH2 0xC6F JUMP JUMPDEST PUSH2 0x18B PUSH1 0x80 PUSH2 0x3C3 JUMP JUMPDEST PUSH2 0xCA2 PUSH2 0xC90 JUMP JUMPDEST SWAP1 PUSH1 0x60 DUP3 MSTORE PUSH1 0x20 DUP1 DUP1 DUP1 DUP6 ADD PUSH1 0x0 DUP2 MSTORE ADD PUSH1 0x0 JUMPDEST DUP2 MSTORE ADD PUSH1 0x0 SWAP1 MSTORE POP JUMP JUMPDEST PUSH2 0x18B PUSH2 0xC9A JUMP JUMPDEST PUSH1 0x0 JUMPDEST DUP3 DUP2 LT PUSH2 0xCD7 JUMPI POP POP POP JUMP JUMPDEST PUSH1 0x20 SWAP1 PUSH2 0xCE2 PUSH2 0xCC0 JUMP JUMPDEST DUP2 DUP5 ADD MSTORE ADD PUSH2 0xCCB JUMP JUMPDEST SWAP1 PUSH2 0x166 PUSH2 0xD02 PUSH2 0xCFC DUP5 PUSH2 0xC84 JUMP JUMPDEST SWAP4 PUSH2 0xC6F JUMP JUMPDEST DUP4 PUSH2 0xCC8 JUMP JUMPDEST PUSH2 0x18B PUSH1 0x32 PUSH2 0xCEC JUMP JUMPDEST PUSH2 0xD1A PUSH2 0xC65 JUMP JUMPDEST SWAP1 PUSH2 0xD23 PUSH2 0xD08 JUMP JUMPDEST DUP3 MSTORE PUSH1 0x20 DUP1 DUP1 DUP5 ADD PUSH1 0x0 PUSH2 0xCB6 JUMP JUMPDEST PUSH2 0x18B PUSH2 0xD12 JUMP JUMPDEST PUSH1 0x0 JUMPDEST DUP3 DUP2 LT PUSH2 0xD49 JUMPI POP POP POP JUMP JUMPDEST PUSH1 0x20 SWAP1 PUSH2 0xD54 PUSH2 0xD32 JUMP JUMPDEST DUP2 DUP5 ADD MSTORE ADD PUSH2 0xD3D JUMP JUMPDEST SWAP1 PUSH2 0x166 PUSH2 0xD74 PUSH2 0xD6E DUP5 PUSH2 0xC58 JUMP JUMPDEST SWAP4 PUSH2 0xC40 JUMP JUMPDEST PUSH1 0x1F NOT ADD PUSH1 0x20 DUP5 ADD PUSH2 0xD3A JUMP JUMPDEST PUSH1 0x1 PUSH2 0x18B SWAP2 ADD PUSH2 0xFFFF AND SWAP1 JUMP JUMPDEST SWAP1 PUSH2 0xD98 DUP3 MLOAD SWAP1 JUMP JUMPDEST DUP2 LT ISZERO PUSH2 0x70E JUMPI PUSH1 0x20 DUP1 SWAP2 MUL ADD ADD SWAP1 JUMP JUMPDEST SWAP1 PUSH2 0x166 PUSH2 0xE00 PUSH1 0x2 PUSH2 0xDBA PUSH2 0xC90 JUMP JUMPDEST SWAP5 PUSH2 0xDCB PUSH2 0xDC7 DUP3 PUSH2 0x7E1 JUMP JUMPDEST DUP8 MSTORE JUMP JUMPDEST PUSH2 0xDE1 PUSH2 0xDDA PUSH1 0x1 DUP4 ADD PUSH2 0x809 JUMP JUMPDEST PUSH1 0x20 DUP9 ADD MSTORE JUMP JUMPDEST PUSH2 0xDFA PUSH2 0xDEF DUP4 DUP4 ADD PUSH2 0x81F JUMP JUMPDEST PUSH2 0xFFFF AND PUSH1 0x40 DUP9 ADD MSTORE JUMP JUMPDEST ADD PUSH2 0x835 JUMP JUMPDEST PUSH2 0xFFFF AND PUSH1 0x60 DUP5 ADD MSTORE JUMP JUMPDEST PUSH2 0x18B SWAP1 PUSH2 0xDA9 JUMP JUMPDEST SWAP1 PUSH1 0x32 PUSH2 0xE20 DUP2 PUSH2 0xC84 JUMP JUMPDEST SWAP3 PUSH1 0x0 SWAP1 DUP5 JUMPDEST DUP4 DUP4 LT PUSH2 0xE33 JUMPI POP POP POP POP JUMP JUMPDEST PUSH1 0x3 PUSH1 0x20 PUSH1 0x1 SWAP3 PUSH2 0xE43 DUP6 PUSH2 0xE0B JUMP JUMPDEST DUP2 MSTORE ADD SWAP3 ADD SWAP3 ADD SWAP2 SWAP1 PUSH2 0xE26 JUMP JUMPDEST SWAP1 PUSH2 0x166 PUSH2 0xE84 PUSH1 0x97 PUSH2 0xE62 PUSH2 0xC65 JUMP JUMPDEST SWAP5 PUSH2 0xE6F PUSH2 0xDC7 DUP3 PUSH2 0xE14 JUMP JUMPDEST PUSH2 0xE7E PUSH2 0xDDA PUSH1 0x96 DUP4 ADD PUSH2 0x809 JUMP JUMPDEST ADD PUSH2 0x809 JUMP JUMPDEST PUSH1 0x40 DUP5 ADD MSTORE JUMP JUMPDEST PUSH2 0x18B SWAP1 PUSH2 0xE51 JUMP JUMPDEST PUSH1 0x9D PUSH2 0xEA7 PUSH2 0xEA2 PUSH1 0x9D SLOAD SWAP1 JUMP JUMPDEST PUSH2 0xB8B JUMP JUMPDEST SWAP4 PUSH2 0xEBB PUSH2 0xFFFF DUP6 AND PUSH2 0xFFFF DUP6 AND LT PUSH2 0xB98 JUMP JUMPDEST DUP4 PUSH2 0xEC9 PUSH2 0xFFFF DUP8 AND PUSH2 0xC14 JUMP JUMPDEST GT PUSH2 0xF5D JUMPI JUMPDEST PUSH2 0xEE9 PUSH2 0xEE4 PUSH2 0xEDF DUP6 DUP8 PUSH2 0xC0B JUMP JUMPDEST PUSH2 0xC2F JUMP JUMPDEST PUSH2 0xD5E JUMP JUMPDEST SWAP5 DUP4 JUMPDEST PUSH2 0xFFFF DUP7 AND JUMPDEST PUSH2 0xFFFF DUP3 AND LT ISZERO PUSH2 0xF54 JUMPI PUSH2 0xF4D DUP2 PUSH2 0xF47 PUSH2 0xF41 PUSH2 0xF14 PUSH2 0xEF2 SWAP6 DUP10 PUSH2 0xAE9 JUMP JUMPDEST POP PUSH2 0xF28 PUSH2 0xF22 DUP12 DUP7 PUSH2 0xC0B JUMP JUMPDEST SWAP2 PUSH2 0xE8B JUMP JUMPDEST PUSH2 0xF3B DUP14 PUSH2 0xF35 DUP5 PUSH2 0xC2F JUMP JUMPDEST SWAP1 PUSH2 0xD8F JUMP JUMPDEST MSTORE PUSH2 0xC2F JUMP JUMPDEST DUP11 PUSH2 0xD8F JUMP JUMPDEST POP PUSH2 0xD81 JUMP JUMPDEST SWAP1 POP PUSH2 0xEEC JUMP JUMPDEST POP SWAP5 SWAP4 POP SWAP2 POP POP JUMP JUMPDEST DUP5 SWAP4 POP PUSH2 0xECF JUMP JUMPDEST PUSH2 0xF6D PUSH2 0x2AA2 JUMP JUMPDEST PUSH2 0x166 PUSH2 0x19CA JUMP JUMPDEST SWAP2 SWAP1 DUP3 SUB SWAP2 DUP3 GT PUSH2 0xC2A JUMPI JUMP JUMPDEST PUSH2 0x18B PUSH2 0x18B PUSH2 0x18B SWAP3 SWAP1 JUMP JUMPDEST ISZERO PUSH2 0xF96 JUMPI JUMP JUMPDEST PUSH1 0x40 MLOAD PUSH3 0x461BCD PUSH1 0xE5 SHL DUP2 MSTORE PUSH1 0x20 PUSH1 0x4 DUP3 ADD MSTORE PUSH1 0x14 PUSH1 0x24 DUP3 ADD MSTORE PUSH20 0x4E65656420746F2077616974203620686F757273 PUSH1 0x60 SHL PUSH1 0x44 DUP3 ADD MSTORE PUSH1 0x64 SWAP1 REVERT JUMPDEST PUSH4 0x4E487B71 PUSH1 0xE0 SHL PUSH1 0x0 MSTORE PUSH1 0x12 PUSH1 0x4 MSTORE PUSH1 0x24 PUSH1 0x0 REVERT JUMPDEST SWAP1 PUSH2 0xFF2 JUMP JUMPDEST SWAP2 SWAP1 JUMP JUMPDEST SWAP1 DUP2 ISZERO PUSH2 0xFFD JUMPI DIV SWAP1 JUMP JUMPDEST PUSH2 0xFD2 JUMP JUMPDEST PUSH2 0x18B SWAP1 PUSH2 0xE14 JUMP JUMPDEST PUSH2 0x18B SWAP1 SLOAD PUSH2 0x729 JUMP JUMPDEST DUP1 SLOAD PUSH1 0x0 SWAP4 SWAP3 SWAP2 PUSH2 0x102C PUSH2 0x1028 DUP4 PUSH2 0x729 JUMP JUMPDEST SWAP4 SWAP1 JUMP JUMPDEST SWAP2 PUSH1 0x1 DUP2 AND SWAP1 DUP2 ISZERO PUSH2 0x107D JUMPI POP PUSH1 0x1 EQ PUSH2 0x1045 JUMPI POP POP POP JUMP JUMPDEST PUSH2 0x1058 SWAP2 SWAP3 SWAP4 SWAP5 POP PUSH1 0x0 MSTORE PUSH1 0x20 PUSH1 0x0 KECCAK256 SWAP1 JUMP JUMPDEST PUSH1 0x0 SWAP1 JUMPDEST DUP4 DUP3 LT PUSH2 0x1069 JUMPI POP POP ADD SWAP1 JUMP JUMPDEST PUSH1 0x1 DUP2 PUSH1 0x20 SWAP3 SLOAD DUP5 DUP7 ADD MSTORE ADD SWAP2 ADD SWAP1 PUSH2 0x105C JUMP JUMPDEST PUSH1 0xFF NOT AND DUP4 MSTORE POP POP DUP2 ISZERO ISZERO SWAP1 SWAP2 MUL ADD SWAP2 POP JUMP JUMPDEST PUSH2 0x4A1 PUSH2 0x1E9 SWAP2 PUSH1 0x20 SWAP5 SWAP4 PUSH2 0x1015 JUMP JUMPDEST PUSH2 0x4BB PUSH2 0x10AC PUSH1 0x40 MLOAD SWAP1 JUMP JUMPDEST SWAP3 DUP4 SWAP3 DUP4 PUSH2 0x1090 JUMP JUMPDEST PUSH2 0x18B SWAP2 PUSH2 0x10A0 JUMP JUMPDEST PUSH2 0x18B SWAP1 PUSH2 0x5B9 JUMP JUMPDEST PUSH2 0x18B SWAP1 SLOAD PUSH2 0x10BE JUMP JUMPDEST DUP2 DUP2 MUL SWAP3 SWAP2 DUP2 ISZERO SWAP2 DUP5 DIV EQ OR ISZERO PUSH2 0xC2A JUMPI JUMP JUMPDEST SWAP1 PUSH2 0x4A1 PUSH2 0x410 DUP4 PUSH2 0x3D7 JUMP JUMPDEST RETURNDATASIZE ISZERO PUSH2 0x110B JUMPI PUSH2 0x1100 RETURNDATASIZE PUSH2 0x10E4 JUMP JUMPDEST SWAP1 RETURNDATASIZE PUSH1 0x0 PUSH1 0x20 DUP5 ADD RETURNDATACOPY JUMP JUMPDEST PUSH1 0x60 SWAP1 JUMP JUMPDEST ISZERO PUSH2 0x1117 JUMPI JUMP JUMPDEST PUSH1 0x40 MLOAD PUSH3 0x461BCD PUSH1 0xE5 SHL DUP2 MSTORE PUSH1 0x20 PUSH1 0x4 DUP3 ADD MSTORE PUSH1 0x1A PUSH1 0x24 DUP3 ADD MSTORE PUSH32 0x5472616E73666572206661696C656420666F722072616E6B2031000000000000 PUSH1 0x44 DUP3 ADD MSTORE PUSH1 0x64 SWAP1 REVERT JUMPDEST ISZERO PUSH2 0x1163 JUMPI JUMP JUMPDEST PUSH1 0x40 MLOAD PUSH3 0x461BCD PUSH1 0xE5 SHL DUP2 MSTORE PUSH1 0x20 PUSH1 0x4 DUP3 ADD MSTORE PUSH1 0x1A PUSH1 0x24 DUP3 ADD MSTORE PUSH32 0x5472616E73666572206661696C656420666F722072616E6B2032000000000000 PUSH1 0x44 DUP3 ADD MSTORE PUSH1 0x64 SWAP1 REVERT JUMPDEST ISZERO PUSH2 0x11AF JUMPI JUMP JUMPDEST PUSH1 0x40 MLOAD PUSH3 0x461BCD PUSH1 0xE5 SHL DUP2 MSTORE PUSH1 0x20 PUSH1 0x4 DUP3 ADD MSTORE PUSH1 0x1A PUSH1 0x24 DUP3 ADD MSTORE PUSH32 0x5472616E73666572206661696C656420666F722072616E6B2033000000000000 PUSH1 0x44 DUP3 ADD MSTORE PUSH1 0x64 SWAP1 REVERT JUMPDEST ISZERO PUSH2 0x11FB JUMPI JUMP JUMPDEST PUSH1 0x40 MLOAD PUSH3 0x461BCD PUSH1 0xE5 SHL DUP2 MSTORE PUSH1 0x20 PUSH1 0x4 DUP3 ADD MSTORE PUSH1 0x1A PUSH1 0x24 DUP3 ADD MSTORE PUSH32 0x5472616E73666572206661696C656420666F722072616E6B2034000000000000 PUSH1 0x44 DUP3 ADD MSTORE PUSH1 0x64 SWAP1 REVERT JUMPDEST ISZERO PUSH2 0x1247 JUMPI JUMP JUMPDEST PUSH1 0x40 MLOAD PUSH3 0x461BCD PUSH1 0xE5 SHL DUP2 MSTORE PUSH1 0x20 PUSH1 0x4 DUP3 ADD MSTORE PUSH1 0x1A PUSH1 0x24 DUP3 ADD MSTORE PUSH32 0x5472616E73666572206661696C656420666F722072616E6B2035000000000000 PUSH1 0x44 DUP3 ADD MSTORE PUSH1 0x64 SWAP1 REVERT JUMPDEST ISZERO PUSH2 0x1293 JUMPI JUMP JUMPDEST PUSH1 0x40 MLOAD PUSH3 0x461BCD PUSH1 0xE5 SHL DUP2 MSTORE PUSH1 0x20 PUSH1 0x4 DUP3 ADD MSTORE PUSH1 0x1D PUSH1 0x24 DUP3 ADD MSTORE PUSH32 0x5472616E73666572206661696C656420666F722072616E6B20362D3130000000 PUSH1 0x44 DUP3 ADD MSTORE PUSH1 0x64 SWAP1 REVERT JUMPDEST ISZERO PUSH2 0x12DF JUMPI JUMP JUMPDEST PUSH1 0x40 MLOAD PUSH3 0x461BCD PUSH1 0xE5 SHL DUP2 MSTORE PUSH1 0x20 PUSH1 0x4 DUP3 ADD MSTORE PUSH1 0x1E PUSH1 0x24 DUP3 ADD MSTORE PUSH32 0x5472616E73666572206661696C656420666F722072616E6B2031312D32300000 PUSH1 0x44 DUP3 ADD MSTORE PUSH1 0x64 SWAP1 REVERT JUMPDEST ISZERO PUSH2 0x132B JUMPI JUMP JUMPDEST PUSH1 0x40 MLOAD PUSH3 0x461BCD PUSH1 0xE5 SHL DUP2 MSTORE PUSH1 0x20 PUSH1 0x4 DUP3 ADD MSTORE PUSH1 0x1E PUSH1 0x24 DUP3 ADD MSTORE PUSH32 0x5472616E73666572206661696C656420666F722072616E6B2032312D33300000 PUSH1 0x44 DUP3 ADD MSTORE PUSH1 0x64 SWAP1 REVERT JUMPDEST ISZERO PUSH2 0x1377 JUMPI JUMP JUMPDEST PUSH1 0x40 MLOAD PUSH3 0x461BCD PUSH1 0xE5 SHL DUP2 MSTORE PUSH1 0x20 PUSH1 0x4 DUP3 ADD MSTORE PUSH1 0x1E PUSH1 0x24 DUP3 ADD MSTORE PUSH32 0x5472616E73666572206661696C656420666F722072616E6B2033312D35300000 PUSH1 0x44 DUP3 ADD MSTORE PUSH1 0x64 SWAP1 REVERT JUMPDEST ISZERO PUSH2 0x13C3 JUMPI JUMP JUMPDEST PUSH1 0x40 MLOAD PUSH3 0x461BCD PUSH1 0xE5 SHL DUP2 MSTORE PUSH1 0x20 PUSH1 0x4 DUP3 ADD MSTORE PUSH1 0x15 PUSH1 0x24 DUP3 ADD MSTORE PUSH21 0x13DDDB995C881D1C985B9CD9995C8819985A5B1959 PUSH1 0x5A SHL PUSH1 0x44 DUP3 ADD MSTORE PUSH1 0x64 SWAP1 REVERT JUMPDEST PUSH4 0x4E487B71 PUSH1 0xE0 SHL PUSH1 0x0 MSTORE PUSH1 0x0 PUSH1 0x4 MSTORE PUSH1 0x24 PUSH1 0x0 REVERT JUMPDEST PUSH2 0x18B SWAP1 PUSH1 0x3 PUSH2 0x10D1 JUMP JUMPDEST SWAP1 PUSH2 0x1434 SWAP1 PUSH1 0x0 NOT SWAP1 PUSH1 0x20 SUB PUSH1 0x8 MUL SHR SWAP1 JUMP JUMPDEST DUP2 SLOAD AND SWAP1 SSTORE JUMP JUMPDEST SWAP2 PUSH1 0x0 NOT PUSH1 0x8 SWAP3 SWAP1 SWAP3 MUL SWAP2 DUP3 SHL SWAP2 SHL JUMPDEST SWAP2 DUP2 NOT AND SWAP2 AND OR SWAP1 JUMP JUMPDEST SWAP2 SWAP1 PUSH2 0x1466 PUSH2 0x18B PUSH2 0x146E SWAP4 PUSH2 0xF82 JUMP JUMPDEST SWAP1 DUP4 SLOAD PUSH2 0x143B JUMP JUMPDEST SWAP1 SSTORE JUMP JUMPDEST PUSH2 0x166 SWAP2 PUSH1 0x0 SWAP2 PUSH2 0x1455 JUMP JUMPDEST DUP2 DUP2 LT PUSH2 0x1489 JUMPI POP POP JUMP JUMPDEST DUP1 PUSH2 0x1497 PUSH1 0x0 PUSH1 0x1 SWAP4 PUSH2 0x1472 JUMP JUMPDEST ADD PUSH2 0x147E JUMP JUMPDEST PUSH1 0x0 NOT PUSH1 0x8 DUP4 MUL SHR NOT AND SWAP1 PUSH1 0x2 MUL OR SWAP1 JUMP JUMPDEST SWAP1 PUSH1 0x0 SWAP2 PUSH2 0x14CD PUSH2 0x14C5 DUP3 PUSH1 0x0 MSTORE PUSH1 0x20 PUSH1 0x0 KECCAK256 SWAP1 JUMP JUMPDEST SWAP3 DUP4 SLOAD PUSH2 0x149D JUMP JUMPDEST SWAP1 SSTORE SSTORE JUMP JUMPDEST SWAP2 SWAP3 SWAP1 PUSH1 0x20 DUP3 LT ISZERO PUSH2 0x152A JUMPI PUSH1 0x1F DUP5 GT PUSH1 0x1 EQ PUSH2 0x14F4 JUMPI PUSH2 0x146E SWAP3 SWAP4 POP PUSH2 0x149D JUMP JUMPDEST POP SWAP1 PUSH2 0x1525 PUSH2 0x166 SWAP4 PUSH1 0x1 PUSH2 0x151C PUSH2 0x1511 DUP6 PUSH1 0x0 MSTORE PUSH1 0x20 PUSH1 0x0 KECCAK256 SWAP1 JUMP JUMPDEST SWAP3 PUSH1 0x1F PUSH1 0x20 SWAP2 ADD DIV SWAP1 JUMP JUMPDEST DUP3 ADD SWAP2 ADD PUSH2 0x147E JUMP JUMPDEST PUSH2 0x14AF JUMP JUMPDEST POP PUSH2 0x156A DUP3 SWAP4 PUSH2 0x1541 PUSH1 0x1 SWAP5 PUSH1 0x0 MSTORE PUSH1 0x20 PUSH1 0x0 KECCAK256 SWAP1 JUMP JUMPDEST PUSH2 0x1563 PUSH1 0x20 PUSH1 0x1F DUP7 ADD DIV DUP3 ADD SWAP3 PUSH1 0x1F DUP7 AND DUP1 PUSH2 0x1572 JUMPI JUMPDEST POP PUSH1 0x1F PUSH1 0x20 SWAP2 ADD DIV SWAP1 JUMP JUMPDEST ADD SWAP1 PUSH2 0x147E JUMP JUMPDEST PUSH1 0x2 MUL OR SWAP1 SSTORE JUMP JUMPDEST PUSH2 0x157E SWAP1 DUP9 DUP7 SUB PUSH2 0x1421 JUMP JUMPDEST CODESIZE PUSH2 0x1558 JUMP JUMPDEST SWAP3 SWAP1 SWAP2 PUSH1 0x1 PUSH1 0x40 SHL DUP3 GT PUSH2 0x3BE JUMPI PUSH1 0x20 GT ISZERO PUSH2 0x15CB JUMPI PUSH1 0x20 DUP2 LT ISZERO PUSH2 0x15AC JUMPI PUSH2 0x146E SWAP2 PUSH2 0x149D JUMP JUMPDEST PUSH1 0x1 SWAP2 PUSH1 0xFF NOT AND PUSH2 0x15C2 DUP5 PUSH1 0x0 MSTORE PUSH1 0x20 PUSH1 0x0 KECCAK256 SWAP1 JUMP JUMPDEST SSTORE PUSH1 0x2 MUL ADD SWAP1 SSTORE JUMP JUMPDEST PUSH1 0x1 SWAP2 POP PUSH1 0x2 MUL ADD SWAP1 SSTORE JUMP JUMPDEST SWAP1 DUP2 SLOAD PUSH2 0x15E3 DUP2 PUSH2 0x729 JUMP JUMPDEST SWAP1 DUP2 DUP4 GT PUSH2 0x160C JUMPI JUMPDEST DUP2 DUP4 LT PUSH2 0x15FA JUMPI JUMPDEST POP POP POP POP JUMP JUMPDEST PUSH2 0x1603 SWAP4 PUSH2 0x14D2 JUMP JUMPDEST CODESIZE DUP1 DUP1 DUP1 PUSH2 0x15F4 JUMP JUMPDEST PUSH2 0x1618 DUP4 DUP4 DUP4 DUP8 PUSH2 0x1584 JUMP JUMPDEST PUSH2 0x15EC JUMP JUMPDEST PUSH1 0x0 PUSH2 0x166 SWAP2 PUSH2 0x15D7 JUMP JUMPDEST SWAP1 PUSH1 0x0 SUB PUSH2 0x1639 JUMPI PUSH2 0x166 SWAP1 PUSH2 0x161D JUMP JUMPDEST PUSH2 0x1400 JUMP JUMPDEST PUSH1 0x0 SWAP1 PUSH1 0x2 SWAP1 PUSH2 0x164E DUP4 DUP3 PUSH2 0x1628 JUMP JUMPDEST PUSH2 0x165B DUP4 PUSH1 0x1 DUP4 ADD PUSH2 0x1472 JUMP JUMPDEST ADD SSTORE JUMP JUMPDEST SWAP1 PUSH1 0x0 SUB PUSH2 0x1639 JUMPI PUSH2 0x166 SWAP1 PUSH2 0x163E JUMP JUMPDEST DUP2 DUP2 LT PUSH2 0x167B JUMPI POP POP JUMP JUMPDEST DUP1 PUSH2 0x1689 PUSH1 0x0 PUSH1 0x3 SWAP4 PUSH2 0x165F JUMP JUMPDEST ADD PUSH2 0x1670 JUMP JUMPDEST SWAP2 SWAP1 SWAP2 DUP3 DUP3 LT PUSH2 0x169E JUMPI POP POP POP JUMP JUMPDEST PUSH2 0x16B6 PUSH2 0xFEE PUSH2 0x16B0 PUSH2 0x166 SWAP6 PUSH2 0x1416 JUMP JUMPDEST SWAP4 PUSH2 0x1416 JUMP JUMPDEST SWAP2 DUP3 ADD SWAP2 ADD PUSH2 0x1670 JUMP JUMPDEST SWAP1 PUSH1 0x1 PUSH1 0x40 SHL DUP2 GT PUSH2 0x3BE JUMPI PUSH2 0x166 SWAP2 PUSH1 0x32 SWAP1 PUSH2 0x168F JUMP JUMPDEST SWAP2 SWAP1 PUSH1 0x1F DUP2 GT PUSH2 0x16E7 JUMPI POP POP POP JUMP JUMPDEST PUSH2 0x16F9 PUSH2 0x166 SWAP4 PUSH1 0x0 MSTORE PUSH1 0x20 PUSH1 0x0 KECCAK256 SWAP1 JUMP JUMPDEST SWAP1 PUSH1 0x20 PUSH1 0x1F DUP5 ADD DUP2 SWAP1 DIV DUP4 ADD SWAP4 LT PUSH2 0x1719 JUMPI JUMPDEST PUSH1 0x20 PUSH1 0x1F SWAP1 SWAP2 ADD DIV PUSH2 0x1563 JUMP JUMPDEST SWAP1 SWAP2 POP DUP2 SWAP1 PUSH2 0x170C JUMP JUMPDEST SWAP1 PUSH2 0x172C DUP2 MLOAD SWAP1 JUMP JUMPDEST SWAP1 PUSH8 0xFFFFFFFFFFFFFFFF DUP3 GT PUSH2 0x3BE JUMPI PUSH2 0x1750 DUP3 PUSH2 0x174A DUP6 SLOAD PUSH2 0x729 JUMP JUMPDEST DUP6 PUSH2 0x16D8 JUMP JUMPDEST PUSH1 0x20 SWAP1 PUSH1 0x1F DUP4 GT PUSH1 0x1 EQ PUSH2 0x177E JUMPI PUSH2 0x146E SWAP3 SWAP2 PUSH1 0x0 SWAP2 DUP4 PUSH2 0x1773 JUMPI JUMPDEST POP POP PUSH2 0x149D JUMP JUMPDEST ADD MLOAD SWAP1 POP CODESIZE DUP1 PUSH2 0x176C JUMP JUMPDEST PUSH1 0x1F NOT DUP4 AND SWAP2 PUSH2 0x1793 DUP6 PUSH1 0x0 MSTORE PUSH1 0x20 PUSH1 0x0 KECCAK256 SWAP1 JUMP JUMPDEST SWAP3 PUSH1 0x0 JUMPDEST DUP2 DUP2 LT PUSH2 0x17D2 JUMPI POP SWAP2 PUSH1 0x2 SWAP4 SWAP2 DUP6 PUSH1 0x1 SWAP7 SWAP5 LT PUSH2 0x17B8 JUMPI JUMPDEST POP POP POP MUL ADD SWAP1 SSTORE JUMP JUMPDEST ADD MLOAD PUSH1 0x0 NOT PUSH1 0x8 PUSH1 0x1F DUP6 AND MUL SHR NOT AND JUMPDEST SWAP1 SSTORE CODESIZE DUP1 DUP1 PUSH2 0x17AF JUMP JUMPDEST SWAP2 SWAP4 PUSH1 0x20 PUSH1 0x1 DUP2 SWAP3 DUP8 DUP8 ADD MLOAD DUP2 SSTORE ADD SWAP6 ADD SWAP3 ADD PUSH2 0x1797 JUMP JUMPDEST SWAP1 PUSH2 0x166 SWAP2 PUSH2 0x1723 JUMP JUMPDEST SWAP1 PUSH1 0x0 NOT SWAP1 PUSH2 0x144B JUMP JUMPDEST SWAP1 PUSH2 0x180E PUSH2 0x18B PUSH2 0x146E SWAP3 PUSH2 0xF82 JUMP JUMPDEST DUP3 SLOAD PUSH2 0x17F4 JUMP JUMPDEST SWAP1 PUSH2 0xFFFF SWAP1 PUSH2 0x144B JUMP JUMPDEST PUSH2 0x818 PUSH2 0x18B PUSH2 0x18B SWAP3 PUSH2 0xFFFF AND SWAP1 JUMP JUMPDEST SWAP1 PUSH2 0x1840 PUSH2 0x18B PUSH2 0x146E SWAP3 PUSH2 0x181F JUMP JUMPDEST DUP3 SLOAD PUSH2 0x1815 JUMP JUMPDEST SWAP1 PUSH4 0xFFFF0000 SWAP1 PUSH1 0x10 SHL PUSH2 0x144B JUMP JUMPDEST SWAP1 PUSH2 0x1866 PUSH2 0x18B PUSH2 0x146E SWAP3 PUSH2 0x181F JUMP JUMPDEST DUP3 SLOAD PUSH2 0x1847 JUMP JUMPDEST SWAP1 PUSH2 0x18C7 PUSH1 0x60 PUSH1 0x2 PUSH2 0x166 SWAP5 PUSH2 0x188D PUSH2 0x1887 PUSH1 0x0 DUP8 ADD MLOAD SWAP1 JUMP JUMPDEST DUP3 PUSH2 0x17EA JUMP JUMPDEST PUSH2 0x18A4 PUSH2 0x189B PUSH1 0x20 DUP8 ADD MLOAD SWAP1 JUMP JUMPDEST PUSH1 0x1 DUP4 ADD PUSH2 0x17FE JUMP JUMPDEST ADD SWAP3 PUSH2 0x18BE PUSH2 0x18B8 PUSH1 0x40 DUP4 ADD MLOAD PUSH2 0xFFFF AND SWAP1 JUMP JUMPDEST DUP6 PUSH2 0x1830 JUMP JUMPDEST ADD MLOAD PUSH2 0xFFFF AND SWAP1 JUMP JUMPDEST SWAP1 PUSH2 0x1856 JUMP JUMPDEST SWAP1 PUSH2 0x166 SWAP2 PUSH2 0x186D JUMP JUMPDEST PUSH2 0x18EA PUSH2 0xFEE PUSH1 0x32 SWAP4 PUSH2 0x18B DUP6 DUP6 PUSH2 0x16C0 JUMP JUMPDEST PUSH1 0x0 SWAP2 JUMPDEST DUP4 DUP4 LT PUSH2 0x18FB JUMPI POP POP POP POP JUMP JUMPDEST PUSH1 0x3 PUSH1 0x20 DUP3 PUSH2 0x1913 PUSH2 0x190D PUSH1 0x1 SWAP6 MLOAD SWAP1 JUMP JUMPDEST DUP7 PUSH2 0x18CD JUMP JUMPDEST ADD SWAP3 ADD SWAP3 ADD SWAP2 SWAP1 PUSH2 0x18EE JUMP JUMPDEST SWAP1 PUSH2 0x166 SWAP2 PUSH2 0x18D7 JUMP JUMPDEST PUSH1 0x97 PUSH2 0x1964 PUSH1 0x40 PUSH2 0x166 SWAP5 PUSH2 0x1948 PUSH2 0x1942 PUSH1 0x0 DUP4 ADD MLOAD SWAP1 JUMP JUMPDEST DUP7 PUSH2 0x191F JUMP JUMPDEST PUSH2 0x195F PUSH2 0x1956 PUSH1 0x20 DUP4 ADD MLOAD SWAP1 JUMP JUMPDEST PUSH1 0x96 DUP8 ADD PUSH2 0x17FE JUMP JUMPDEST ADD MLOAD SWAP1 JUMP JUMPDEST SWAP2 ADD PUSH2 0x17FE JUMP JUMPDEST SWAP2 SWAP1 PUSH2 0x1639 JUMPI PUSH2 0x166 SWAP2 PUSH2 0x1929 JUMP JUMPDEST SWAP1 DUP2 SLOAD SWAP2 PUSH1 0x1 PUSH1 0x40 SHL DUP4 LT ISZERO PUSH2 0x3BE JUMPI DUP3 PUSH2 0x199D SWAP2 PUSH1 0x1 PUSH2 0x166 SWAP6 ADD DUP2 SSTORE PUSH2 0xAE9 JUMP JUMPDEST SWAP1 PUSH2 0x196B JUMP JUMPDEST PUSH2 0x166 SWAP1 PUSH2 0x19B1 PUSH1 0x32 PUSH2 0x1416 JUMP JUMPDEST DUP2 ADD SWAP1 PUSH2 0x1670 JUMP JUMPDEST SWAP1 PUSH1 0x0 SUB PUSH2 0x1639 JUMPI PUSH2 0x166 SWAP1 PUSH2 0x19A3 JUMP JUMPDEST PUSH2 0x19F4 PUSH2 0x19E0 PUSH2 0x19DA PUSH1 0x1 PUSH2 0x809 JUMP JUMPDEST TIMESTAMP PUSH2 0xF75 JUMP JUMPDEST PUSH2 0x19EE PUSH2 0xFEE PUSH2 0x5460 PUSH2 0xF82 JUMP JUMPDEST GT PUSH2 0xF8F JUMP JUMPDEST PUSH2 0x19FD ADDRESS PUSH2 0x9B1 JUMP JUMPDEST BALANCE PUSH1 0x2 SWAP1 PUSH2 0x1A13 PUSH2 0x1A0D DUP4 PUSH2 0xF82 JUMP JUMPDEST DUP3 PUSH2 0xFE8 JUMP JUMPDEST SWAP2 PUSH2 0x1A1D DUP2 PUSH2 0x1002 JUMP JUMPDEST SWAP1 PUSH1 0x0 SWAP2 PUSH2 0x1A3C PUSH2 0x1A37 DUP5 PUSH2 0x1A32 DUP2 DUP7 PUSH2 0x6F8 JUMP JUMPDEST POP ADD SWAP1 JUMP JUMPDEST PUSH2 0x100B JUMP JUMPDEST PUSH2 0x1A48 PUSH2 0xFEE DUP6 PUSH2 0xF82 JUMP JUMPDEST GT PUSH2 0x203D JUMPI JUMPDEST PUSH1 0x1 SWAP4 PUSH2 0x1A62 PUSH2 0x1A37 DUP6 PUSH2 0x1A32 DUP9 DUP8 PUSH2 0x6F8 JUMP JUMPDEST PUSH2 0x1A6E PUSH2 0xFEE DUP7 PUSH2 0xF82 JUMP JUMPDEST GT PUSH2 0x1FFA JUMPI JUMPDEST PUSH2 0x1A85 PUSH2 0x1A37 DUP6 PUSH2 0x1A32 DUP7 DUP1 PUSH2 0x6F8 JUMP JUMPDEST PUSH2 0x1A91 PUSH2 0xFEE DUP7 PUSH2 0xF82 JUMP JUMPDEST GT PUSH2 0x1FB1 JUMPI JUMPDEST DUP5 PUSH1 0x3 PUSH2 0x1AAC PUSH2 0x1A37 DUP8 PUSH2 0x1A32 PUSH1 0x3 DUP10 PUSH2 0x6F8 JUMP JUMPDEST PUSH2 0x1AB8 PUSH2 0xFEE DUP9 PUSH2 0xF82 JUMP JUMPDEST GT PUSH2 0x1F6C JUMPI JUMPDEST PUSH2 0x1AD0 PUSH2 0x1A37 DUP8 PUSH2 0x1A32 PUSH1 0x4 DUP10 PUSH2 0x6F8 JUMP JUMPDEST PUSH2 0x1ADC PUSH2 0xFEE DUP9 PUSH2 0xF82 JUMP JUMPDEST GT PUSH2 0x1F1E JUMPI JUMPDEST SWAP1 DUP6 SWAP3 SWAP2 DUP2 PUSH2 0x1AF1 PUSH1 0x5 PUSH2 0xF82 JUMP JUMPDEST SWAP1 JUMPDEST PUSH2 0x1E78 JUMPI JUMPDEST POP POP DUP1 PUSH2 0x1B05 PUSH1 0xA PUSH2 0xF82 JUMP JUMPDEST SWAP1 JUMPDEST PUSH2 0x1DD6 JUMPI JUMPDEST POP DUP1 PUSH2 0x1B18 PUSH1 0x14 PUSH2 0xF82 JUMP JUMPDEST SWAP1 JUMPDEST PUSH2 0x1D44 JUMPI JUMPDEST POP DUP1 PUSH2 0x1B2B PUSH1 0x1E PUSH2 0xF82 JUMP JUMPDEST SWAP1 JUMPDEST PUSH2 0x1CA4 JUMPI JUMPDEST POP POP DUP2 PUSH2 0x1BB4 SWAP4 SWAP3 PUSH2 0x1B85 SWAP3 PUSH2 0x1B6D PUSH2 0x1B5D PUSH2 0x1B4C PUSH2 0x28DF JUMP JUMPDEST SWAP3 PUSH2 0x1B57 PUSH1 0x28 PUSH2 0xF82 JUMP JUMPDEST SWAP1 PUSH2 0x10D1 JUMP JUMPDEST PUSH2 0x1B67 PUSH1 0x64 PUSH2 0xF82 JUMP JUMPDEST SWAP1 PUSH2 0xFE8 JUMP JUMPDEST PUSH1 0x40 MLOAD SWAP1 DUP2 DUP1 SUB SWAP3 GAS CALL PUSH2 0x1B7F PUSH2 0x10F1 JUMP JUMPDEST POP PUSH2 0x13BC JUMP JUMPDEST PUSH1 0x9D PUSH2 0x1B99 PUSH2 0x1B92 PUSH2 0xC65 JUMP JUMPDEST SWAP3 DUP7 DUP5 ADD MSTORE JUMP JUMPDEST PUSH2 0x1BA4 TIMESTAMP PUSH1 0x20 DUP5 ADD MSTORE JUMP JUMPDEST PUSH2 0x1BAF DUP8 PUSH1 0x40 DUP5 ADD MSTORE JUMP JUMPDEST PUSH2 0x197A JUMP JUMPDEST DUP3 PUSH2 0x1BBE DUP4 PUSH2 0xF82 JUMP JUMPDEST SWAP1 JUMPDEST PUSH2 0x1C17 JUMPI JUMPDEST POP PUSH2 0x1BDB SWAP3 SWAP2 PUSH2 0x1BD4 SWAP2 PUSH2 0x19B9 JUMP JUMPDEST TIMESTAMP SWAP1 PUSH2 0x17FE JUMP JUMPDEST PUSH32 0x56CA301A9219608C91E7BCEE90E083C19671D2CDCC96752C7AF291CEE5F9C8C8 PUSH2 0x1C12 PUSH2 0x1C08 TIMESTAMP PUSH2 0xF82 JUMP JUMPDEST SWAP3 PUSH2 0xA81 PUSH1 0x40 MLOAD SWAP1 JUMP JUMPDEST SUB SWAP1 LOG2 JUMP JUMPDEST PUSH2 0x1C21 PUSH1 0x32 PUSH2 0xF82 JUMP JUMPDEST DUP2 LT ISZERO PUSH2 0x1C9F JUMPI PUSH2 0x1C55 DUP2 PUSH2 0x1C3E PUSH2 0x1A37 DUP7 PUSH2 0x1A32 DUP10 SWAP7 DUP9 PUSH2 0x6F8 JUMP JUMPDEST PUSH2 0x1C4A PUSH2 0xFEE DUP8 PUSH2 0xF82 JUMP JUMPDEST GT PUSH2 0x1C5B JUMPI PUSH1 0x1 ADD SWAP1 JUMP JUMPDEST SWAP1 PUSH2 0x1BC0 JUMP JUMPDEST PUSH2 0x1C99 PUSH2 0x1C7E PUSH2 0x1C79 PUSH1 0x9B DUP9 PUSH2 0x1C71 DUP7 DUP11 PUSH2 0x6F8 JUMP JUMPDEST POP ADD SWAP1 PUSH2 0x10B5 JUMP JUMPDEST PUSH2 0x10C7 JUMP JUMPDEST DUP5 PUSH2 0x1C93 PUSH2 0x1C8B DUP10 PUSH2 0xF82 JUMP JUMPDEST SWAP3 PUSH1 0x98 PUSH2 0x9BA JUMP JUMPDEST ADD PUSH2 0x17FE JUMP JUMPDEST PUSH1 0x1 ADD SWAP1 JUMP JUMPDEST PUSH2 0x1BC5 JUMP JUMPDEST SWAP1 SWAP2 SWAP3 PUSH2 0x1CB1 PUSH1 0x32 PUSH2 0xF82 JUMP JUMPDEST DUP3 LT ISZERO PUSH2 0x1D3C JUMPI SWAP1 PUSH2 0x1CCD PUSH2 0x1A37 PUSH2 0x1CE4 SWAP4 PUSH2 0x1A32 DUP5 DUP11 PUSH2 0x6F8 JUMP JUMPDEST PUSH2 0x1CD9 PUSH2 0xFEE DUP10 PUSH2 0xF82 JUMP JUMPDEST GT PUSH2 0x1CEE JUMPI PUSH1 0x1 ADD SWAP1 JUMP JUMPDEST SWAP1 DUP6 SWAP3 SWAP2 DUP2 PUSH2 0x1B2D JUMP JUMPDEST PUSH2 0x1C99 DUP8 DUP1 DUP12 PUSH2 0x1D24 PUSH2 0x1D19 PUSH2 0x1D0E PUSH2 0x1C79 DUP14 DUP7 PUSH2 0x1C71 DUP12 PUSH1 0x9B SWAP4 PUSH2 0x6F8 JUMP JUMPDEST SWAP3 PUSH2 0x1B57 PUSH1 0x2D PUSH2 0xF82 JUMP JUMPDEST PUSH2 0x1B67 PUSH2 0x2710 PUSH2 0xF82 JUMP JUMPDEST PUSH1 0x40 MLOAD SWAP1 DUP2 DUP1 SUB SWAP3 GAS CALL PUSH2 0x1D36 PUSH2 0x10F1 JUMP JUMPDEST POP PUSH2 0x1370 JUMP JUMPDEST SWAP3 SWAP2 SWAP1 PUSH2 0x1B32 JUMP JUMPDEST SWAP1 SWAP2 SWAP3 POP PUSH2 0x1D52 PUSH1 0x1E PUSH2 0xF82 JUMP JUMPDEST DUP2 LT ISZERO PUSH2 0x1DCD JUMPI DUP1 PUSH2 0x1D6E PUSH2 0x1A37 DUP9 PUSH2 0x1A32 PUSH2 0x1D85 SWAP6 DUP11 PUSH2 0x6F8 JUMP JUMPDEST PUSH2 0x1D7A PUSH2 0xFEE DUP10 PUSH2 0xF82 JUMP JUMPDEST GT PUSH2 0x1D8F JUMPI PUSH1 0x1 ADD SWAP1 JUMP JUMPDEST SWAP1 DUP6 SWAP3 SWAP2 DUP2 PUSH2 0x1B1A JUMP JUMPDEST PUSH2 0x1C99 DUP8 DUP1 PUSH2 0x1DA7 PUSH2 0x1C79 PUSH1 0x9B DUP4 PUSH2 0x1C71 DUP9 DUP15 PUSH2 0x6F8 JUMP JUMPDEST PUSH2 0x1DB5 DUP14 PUSH2 0x1B67 PUSH1 0x64 PUSH2 0xF82 JUMP JUMPDEST PUSH1 0x40 MLOAD SWAP1 DUP2 DUP1 SUB SWAP3 GAS CALL PUSH2 0x1DC7 PUSH2 0x10F1 JUMP JUMPDEST POP PUSH2 0x1324 JUMP JUMPDEST SWAP1 DUP6 SWAP3 SWAP2 PUSH2 0x1B1F JUMP JUMPDEST SWAP1 SWAP2 SWAP3 POP PUSH2 0x1DE4 PUSH1 0x14 PUSH2 0xF82 JUMP JUMPDEST DUP2 LT ISZERO PUSH2 0x1E6F JUMPI DUP1 PUSH2 0x1E00 PUSH2 0x1A37 DUP9 PUSH2 0x1A32 PUSH2 0x1E17 SWAP6 DUP11 PUSH2 0x6F8 JUMP JUMPDEST PUSH2 0x1E0C PUSH2 0xFEE DUP10 PUSH2 0xF82 JUMP JUMPDEST GT PUSH2 0x1E21 JUMPI PUSH1 0x1 ADD SWAP1 JUMP JUMPDEST SWAP1 DUP6 SWAP3 SWAP2 DUP2 PUSH2 0x1B07 JUMP JUMPDEST PUSH2 0x1C99 DUP8 DUP1 DUP12 PUSH2 0x1E57 PUSH2 0x1E4C PUSH2 0x1E41 PUSH2 0x1C79 DUP14 DUP7 PUSH2 0x1C71 DUP12 PUSH1 0x9B SWAP4 PUSH2 0x6F8 JUMP JUMPDEST SWAP3 PUSH2 0x1B57 PUSH1 0xF PUSH2 0xF82 JUMP JUMPDEST PUSH2 0x1B67 PUSH2 0x3E8 PUSH2 0xF82 JUMP JUMPDEST PUSH1 0x40 MLOAD SWAP1 DUP2 DUP1 SUB SWAP3 GAS CALL PUSH2 0x1E69 PUSH2 0x10F1 JUMP JUMPDEST POP PUSH2 0x12D8 JUMP JUMPDEST SWAP1 DUP6 SWAP3 SWAP2 PUSH2 0x1B0C JUMP JUMPDEST SWAP1 SWAP2 SWAP3 SWAP4 POP PUSH2 0x1E87 PUSH1 0xA PUSH2 0xF82 JUMP JUMPDEST DUP2 LT ISZERO PUSH2 0x1F15 JUMPI DUP1 DUP10 DUP9 DUP9 PUSH2 0x1EA6 PUSH2 0x1A37 DUP4 PUSH2 0x1A32 PUSH2 0x1EC1 SWAP9 DUP6 PUSH2 0x6F8 JUMP JUMPDEST PUSH2 0x1EB2 PUSH2 0xFEE DUP5 PUSH2 0xF82 JUMP JUMPDEST GT PUSH2 0x1ECC JUMPI JUMPDEST POP POP POP PUSH1 0x1 ADD SWAP1 JUMP JUMPDEST SWAP1 DUP3 SWAP2 DUP8 SWAP5 SWAP4 PUSH2 0x1AF3 JUMP JUMPDEST PUSH2 0x1F0D SWAP3 PUSH2 0x1EF5 PUSH2 0x1B5D PUSH2 0x1EEB PUSH2 0x1C79 DUP7 SWAP6 DUP7 PUSH2 0x1C71 DUP12 PUSH1 0x9B SWAP4 PUSH2 0x6F8 JUMP JUMPDEST SWAP3 PUSH2 0x1B57 DUP11 PUSH2 0xF82 JUMP JUMPDEST PUSH1 0x40 MLOAD SWAP1 DUP2 DUP1 SUB SWAP3 GAS CALL PUSH2 0x1F07 PUSH2 0x10F1 JUMP JUMPDEST POP PUSH2 0x128C JUMP JUMPDEST DUP10 DUP9 DUP9 PUSH2 0x1EB8 JUMP JUMPDEST DUP7 SWAP4 SWAP3 SWAP2 PUSH2 0x1AF8 JUMP JUMPDEST PUSH2 0x1F67 DUP7 DUP1 PUSH2 0x1F3E PUSH2 0x1C79 DUP3 PUSH2 0x1F35 PUSH1 0x4 DUP13 PUSH2 0x6F8 JUMP JUMPDEST POP ADD PUSH1 0x9B PUSH2 0x10B5 JUMP JUMPDEST PUSH2 0x1F4F PUSH2 0x1B5D DUP14 PUSH2 0x1B57 PUSH1 0x6 PUSH2 0xF82 JUMP JUMPDEST PUSH1 0x40 MLOAD SWAP1 DUP2 DUP1 SUB SWAP3 GAS CALL PUSH2 0x1F61 PUSH2 0x10F1 JUMP JUMPDEST POP PUSH2 0x1240 JUMP JUMPDEST PUSH2 0x1AE2 JUMP JUMPDEST PUSH2 0x1FAC DUP7 DUP1 PUSH2 0x1F83 PUSH2 0x1C79 DUP3 PUSH2 0x1F35 PUSH1 0x3 DUP13 PUSH2 0x6F8 JUMP JUMPDEST PUSH2 0x1F94 PUSH2 0x1B5D DUP14 PUSH2 0x1B57 PUSH1 0x8 PUSH2 0xF82 JUMP JUMPDEST PUSH1 0x40 MLOAD SWAP1 DUP2 DUP1 SUB SWAP3 GAS CALL PUSH2 0x1FA6 PUSH2 0x10F1 JUMP JUMPDEST POP PUSH2 0x11F4 JUMP JUMPDEST PUSH2 0x1ABE JUMP JUMPDEST PUSH2 0x1FF5 DUP5 DUP1 PUSH2 0x1FC7 PUSH2 0x1C79 DUP3 PUSH2 0x1F35 DUP10 DUP1 PUSH2 0x6F8 JUMP JUMPDEST PUSH2 0x1FDD PUSH2 0x1B5D PUSH2 0x1FD7 PUSH1 0xA PUSH2 0xF82 JUMP JUMPDEST DUP13 PUSH2 0x10D1 JUMP JUMPDEST PUSH1 0x40 MLOAD SWAP1 DUP2 DUP1 SUB SWAP3 GAS CALL PUSH2 0x1FEF PUSH2 0x10F1 JUMP JUMPDEST POP PUSH2 0x11A8 JUMP JUMPDEST PUSH2 0x1A97 JUMP JUMPDEST PUSH2 0x2038 DUP5 DUP1 PUSH2 0x2010 PUSH2 0x1C79 DUP3 PUSH2 0x1F35 DUP12 DUP11 PUSH2 0x6F8 JUMP JUMPDEST PUSH2 0x2020 PUSH2 0x1B5D PUSH2 0x1FD7 PUSH1 0xC PUSH2 0xF82 JUMP JUMPDEST PUSH1 0x40 MLOAD SWAP1 DUP2 DUP1 SUB SWAP3 GAS CALL PUSH2 0x2032 PUSH2 0x10F1 JUMP JUMPDEST POP PUSH2 0x115C JUMP JUMPDEST PUSH2 0x1A74 JUMP JUMPDEST PUSH2 0x2081 DUP4 DUP1 PUSH2 0x2053 PUSH2 0x1C79 DUP3 PUSH2 0x1F35 DUP2 DUP10 PUSH2 0x6F8 JUMP JUMPDEST PUSH2 0x2069 PUSH2 0x1B5D PUSH2 0x2063 PUSH1 0xF PUSH2 0xF82 JUMP JUMPDEST DUP12 PUSH2 0x10D1 JUMP JUMPDEST PUSH1 0x40 MLOAD SWAP1 DUP2 DUP1 SUB SWAP3 GAS CALL PUSH2 0x207B PUSH2 0x10F1 JUMP JUMPDEST POP PUSH2 0x1110 JUMP JUMPDEST PUSH2 0x1A4E JUMP JUMPDEST PUSH2 0x166 PUSH2 0xF65 JUMP JUMPDEST ISZERO PUSH2 0x2095 JUMPI JUMP JUMPDEST PUSH1 0x40 MLOAD PUSH3 0x461BCD PUSH1 0xE5 SHL DUP2 MSTORE PUSH1 0x20 PUSH1 0x4 DUP3 ADD MSTORE PUSH1 0x18 PUSH1 0x24 DUP3 ADD MSTORE PUSH32 0x557365726E616D652063616E6E6F7420626520656D7074790000000000000000 PUSH1 0x44 DUP3 ADD MSTORE PUSH1 0x64 SWAP1 REVERT JUMPDEST PUSH2 0x18B SWAP1 PUSH2 0x4D3 JUMP JUMPDEST PUSH2 0x18B SWAP1 SLOAD PUSH2 0x20DA JUMP JUMPDEST ISZERO PUSH2 0x20F4 JUMPI JUMP JUMPDEST PUSH1 0x40 MLOAD PUSH3 0x461BCD PUSH1 0xE5 SHL DUP2 MSTORE PUSH1 0x20 PUSH1 0x4 DUP3 ADD MSTORE PUSH1 0x16 PUSH1 0x24 DUP3 ADD MSTORE PUSH22 0x2AB9B2B93730B6B29030B63932B0B23C903A30B5B2B7 PUSH1 0x51 SHL PUSH1 0x44 DUP3 ADD MSTORE PUSH1 0x64 SWAP1 REVERT JUMPDEST ISZERO PUSH2 0x2139 JUMPI JUMP JUMPDEST PUSH1 0x40 MLOAD PUSH3 0x461BCD PUSH1 0xE5 SHL DUP2 MSTORE PUSH1 0x20 PUSH1 0x4 DUP3 ADD MSTORE PUSH1 0x17 PUSH1 0x24 DUP3 ADD MSTORE PUSH32 0x5573657220616C72656164792072656769737465726564000000000000000000 PUSH1 0x44 DUP3 ADD MSTORE PUSH1 0x64 SWAP1 REVERT JUMPDEST PUSH2 0x18B SWAP2 PUSH2 0x470 JUMP JUMPDEST ISZERO PUSH2 0x218E JUMPI JUMP JUMPDEST PUSH1 0x40 MLOAD PUSH3 0x461BCD PUSH1 0xE5 SHL DUP2 MSTORE PUSH1 0x20 PUSH1 0x4 DUP3 ADD MSTORE PUSH1 0x1F PUSH1 0x24 DUP3 ADD MSTORE PUSH32 0x557365726E616D652063616E6E6F7420626520276E6F52656665727265722700 PUSH1 0x44 DUP3 ADD MSTORE PUSH1 0x64 SWAP1 REVERT JUMPDEST ISZERO PUSH2 0x21DA JUMPI JUMP JUMPDEST PUSH1 0x40 MLOAD PUSH3 0x461BCD PUSH1 0xE5 SHL DUP2 MSTORE PUSH1 0x20 PUSH1 0x4 DUP3 ADD MSTORE PUSH1 0x17 PUSH1 0x24 DUP3 ADD MSTORE PUSH32 0x5265666572726572206E6F742072656769737465726564000000000000000000 PUSH1 0x44 DUP3 ADD MSTORE PUSH1 0x64 SWAP1 REVERT JUMPDEST PUSH2 0x222C SWAP1 PUSH2 0xFFFF AND PUSH2 0xC14 JUMP JUMPDEST ADD SWAP1 PUSH2 0xFFFF DUP3 GT PUSH2 0xC2A JUMPI JUMP JUMPDEST SWAP1 PUSH1 0xFF SWAP1 PUSH2 0x144B JUMP JUMPDEST SWAP1 PUSH2 0x2252 PUSH2 0x18B PUSH2 0x146E SWAP3 ISZERO ISZERO SWAP1 JUMP JUMPDEST DUP3 SLOAD PUSH2 0x2239 JUMP JUMPDEST SWAP1 PUSH1 0x1 PUSH1 0x1 PUSH1 0xA0 SHL SUB SWAP1 PUSH2 0x144B JUMP JUMPDEST SWAP1 PUSH2 0x2278 PUSH2 0x18B PUSH2 0x146E SWAP3 PUSH2 0x9B1 JUMP JUMPDEST DUP3 SLOAD PUSH2 0x2259 JUMP JUMPDEST PUSH2 0x18B SWAP1 PUSH1 0xA0 SHR PUSH2 0xA97 JUMP JUMPDEST PUSH2 0x18B SWAP1 SLOAD PUSH2 0x227F JUMP JUMPDEST PUSH4 0xFFFFFFFF AND PUSH4 0xFFFFFFFF DUP2 EQ PUSH2 0xC2A JUMPI PUSH1 0x1 ADD SWAP1 JUMP JUMPDEST SWAP1 PUSH4 0xFFFFFFFF PUSH1 0xA0 SHL SWAP1 PUSH1 0xA0 SHL PUSH2 0x144B JUMP JUMPDEST PUSH2 0xA97 PUSH2 0x18B PUSH2 0x18B SWAP3 PUSH4 0xFFFFFFFF AND SWAP1 JUMP JUMPDEST SWAP1 PUSH2 0x22E1 PUSH2 0x18B PUSH2 0x146E SWAP3 PUSH2 0x22BE JUMP JUMPDEST DUP3 SLOAD PUSH2 0x22AC JUMP JUMPDEST PUSH1 0x20 DUP1 DUP3 MSTORE PUSH2 0x18B SWAP3 SWAP2 ADD SWAP1 PUSH2 0x1B5 JUMP JUMPDEST SWAP1 PUSH2 0x24D8 SWAP1 PUSH2 0x24C1 PUSH2 0x2309 DUP5 MLOAD SWAP1 JUMP JUMPDEST SWAP2 PUSH2 0x2322 PUSH1 0x0 SWAP4 PUSH2 0x231C PUSH2 0xFEE DUP7 PUSH2 0xF82 JUMP JUMPDEST GT PUSH2 0x208E JUMP JUMPDEST PUSH2 0x2344 PUSH2 0x233F PUSH2 0x233B PUSH2 0x2336 DUP9 PUSH1 0x9C PUSH2 0x4C1 JUMP JUMPDEST PUSH2 0x20E3 JUMP JUMPDEST ISZERO SWAP1 JUMP JUMPDEST PUSH2 0x20ED JUMP JUMPDEST PUSH2 0x235D PUSH2 0x2358 PUSH2 0x233B PUSH2 0x2336 CALLER PUSH1 0x99 PUSH2 0x9BA JUMP JUMPDEST PUSH2 0x2132 JUMP JUMPDEST PUSH2 0x23E1 PUSH2 0x2369 PUSH1 0x40 MLOAD SWAP1 JUMP JUMPDEST PUSH2 0x2387 DUP2 PUSH1 0x20 DUP2 ADD PUSH2 0x237B DUP11 DUP3 PUSH2 0x217E JUMP JUMPDEST SWAP1 DUP2 SUB DUP3 MSTORE SUB DUP3 PUSH2 0x39C JUMP JUMPDEST PUSH2 0x2399 PUSH2 0x2392 DUP3 MLOAD SWAP1 JUMP JUMPDEST SWAP2 PUSH1 0x20 ADD SWAP1 JUMP JUMPDEST KECCAK256 PUSH2 0x23DA PUSH2 0xFEE PUSH2 0x23A9 PUSH1 0x40 MLOAD SWAP1 JUMP JUMPDEST PUSH2 0x23CB DUP2 PUSH1 0x20 DUP2 ADD PUSH2 0x237B DUP2 PUSH10 0x3737A932B332B93932B9 PUSH1 0xB1 SHL DUP2 MSTORE PUSH1 0xA ADD SWAP1 JUMP JUMPDEST PUSH2 0x23D6 PUSH2 0x2392 DUP3 MLOAD SWAP1 JUMP JUMPDEST KECCAK256 SWAP1 JUMP JUMPDEST EQ ISZERO PUSH2 0x2187 JUMP JUMPDEST PUSH2 0x247E PUSH1 0x1 SWAP2 PUSH2 0x23F0 DUP4 PUSH2 0xB8B JUMP JUMPDEST SWAP1 PUSH2 0x23FA PUSH1 0x40 MLOAD SWAP1 JUMP JUMPDEST PUSH2 0x240C DUP2 PUSH1 0x20 DUP2 ADD PUSH2 0x237B DUP6 DUP3 PUSH2 0x217E JUMP JUMPDEST PUSH2 0x2417 PUSH2 0x2392 DUP3 MLOAD SWAP1 JUMP JUMPDEST KECCAK256 PUSH2 0x2427 PUSH2 0xFEE PUSH2 0x23A9 PUSH1 0x40 MLOAD SWAP1 JUMP JUMPDEST SUB PUSH2 0x2518 JUMPI JUMPDEST POP PUSH2 0x2457 PUSH2 0x2439 PUSH2 0xC90 JUMP JUMPDEST SWAP2 PUSH2 0x2444 DUP10 DUP9 DUP6 ADD MSTORE JUMP JUMPDEST PUSH2 0x8B2 PUSH2 0x2450 DUP9 PUSH2 0xF82 JUMP JUMPDEST PUSH1 0x20 DUP6 ADD MSTORE JUMP JUMPDEST PUSH2 0x246E PUSH2 0x2463 DUP7 PUSH2 0xB8B JUMP JUMPDEST PUSH2 0xFFFF AND PUSH1 0x60 DUP4 ADD MSTORE JUMP JUMPDEST PUSH2 0x2479 CALLER PUSH1 0x98 PUSH2 0x9BA JUMP JUMPDEST PUSH2 0x18CD JUMP JUMPDEST PUSH2 0x2492 DUP2 PUSH2 0x248D CALLER PUSH1 0x99 PUSH2 0x9BA JUMP JUMPDEST PUSH2 0x2242 JUMP JUMPDEST PUSH2 0x24A1 DUP2 PUSH2 0x248D DUP8 PUSH1 0x9A PUSH2 0x4C1 JUMP JUMPDEST PUSH2 0x24B6 PUSH2 0x24AF DUP7 PUSH1 0x9B PUSH2 0x4C1 JUMP JUMPDEST CALLER SWAP1 PUSH2 0x2268 JUMP JUMPDEST PUSH2 0x248D DUP6 PUSH1 0x9C PUSH2 0x4C1 JUMP JUMPDEST PUSH2 0x24D2 PUSH2 0x24CD DUP3 PUSH2 0x228B JUMP JUMPDEST PUSH2 0x2295 JUMP JUMPDEST SWAP1 PUSH2 0x22D1 JUMP JUMPDEST PUSH32 0x48CAC28AD4DC618E15F4C2DD5E97751182F166DE97B25618318B2112AA951A2F PUSH2 0x1C12 PUSH2 0x2505 CALLER PUSH2 0x9B1 JUMP JUMPDEST SWAP3 PUSH2 0x250F PUSH1 0x40 MLOAD SWAP1 JUMP JUMPDEST SWAP2 DUP3 SWAP2 DUP3 PUSH2 0x22E8 JUMP JUMPDEST SWAP1 PUSH2 0x2572 PUSH2 0x259D SWAP2 PUSH2 0x2536 PUSH2 0x2531 PUSH2 0x2336 DUP7 PUSH1 0x9A PUSH2 0x4C1 JUMP JUMPDEST PUSH2 0x21D3 JUMP JUMPDEST PUSH2 0x256C PUSH1 0x2 PUSH2 0x2553 PUSH2 0x254C PUSH2 0x1C79 DUP9 PUSH1 0x9B PUSH2 0x4C1 JUMP JUMPDEST PUSH1 0x98 PUSH2 0x9BA JUMP JUMPDEST ADD PUSH2 0x2566 DUP4 PUSH2 0x2561 DUP4 PUSH2 0x81F JUMP JUMPDEST PUSH2 0x221F JUMP JUMPDEST SWAP1 PUSH2 0x1830 JUMP JUMPDEST DUP1 PUSH2 0x221F JUMP JUMPDEST SWAP2 PUSH2 0x18C7 PUSH1 0x2 PUSH2 0x2592 PUSH2 0x254C PUSH2 0x1C79 PUSH2 0x258A DUP11 PUSH2 0xB8B JUMP JUMPDEST SWAP6 PUSH1 0x9B PUSH2 0x4C1 JUMP JUMPDEST ADD SWAP2 PUSH2 0x2561 DUP4 PUSH2 0x835 JUMP JUMPDEST CODESIZE PUSH2 0x242D JUMP JUMPDEST PUSH2 0x25AB PUSH2 0xD08 JUMP JUMPDEST POP PUSH2 0x18B PUSH1 0x2 PUSH2 0x1002 JUMP JUMPDEST PUSH2 0x25BE PUSH2 0x2AA2 JUMP JUMPDEST PUSH2 0x166 PUSH2 0x25DC JUMP JUMPDEST PUSH2 0x5B9 PUSH2 0x18B PUSH2 0x18B SWAP3 SWAP1 JUMP JUMPDEST PUSH2 0x18B SWAP1 PUSH2 0x25C6 JUMP JUMPDEST PUSH2 0x166 PUSH2 0x25E9 PUSH1 0x0 PUSH2 0x25D3 JUMP JUMPDEST PUSH2 0x2AE4 JUMP JUMPDEST PUSH2 0x166 PUSH2 0x25B6 JUMP JUMPDEST ISZERO PUSH2 0x25FD JUMPI JUMP JUMPDEST PUSH1 0x40 MLOAD PUSH3 0x461BCD PUSH1 0xE5 SHL DUP2 MSTORE PUSH1 0x20 PUSH1 0x4 DUP3 ADD MSTORE PUSH1 0x1E PUSH1 0x24 DUP3 ADD MSTORE PUSH32 0x596F75206D7573742070617920302E30312054454120746F20636C69636B0000 PUSH1 0x44 DUP3 ADD MSTORE PUSH1 0x64 SWAP1 REVERT JUMPDEST ISZERO PUSH2 0x2649 JUMPI JUMP JUMPDEST PUSH1 0x40 MLOAD PUSH3 0x461BCD PUSH1 0xE5 SHL DUP2 MSTORE PUSH1 0x20 PUSH1 0x4 DUP3 ADD MSTORE PUSH1 0x13 PUSH1 0x24 DUP3 ADD MSTORE PUSH19 0x155CD95C881B9BDD081C9959DA5CDD195C9959 PUSH1 0x6A SHL PUSH1 0x44 DUP3 ADD MSTORE PUSH1 0x64 SWAP1 REVERT JUMPDEST SWAP2 SWAP1 DUP3 ADD DUP1 SWAP3 GT PUSH2 0xC2A JUMPI JUMP JUMPDEST PUSH2 0x26AB PUSH2 0x26A4 PUSH7 0x2386F26FC10000 PUSH2 0xF82 JUMP JUMPDEST CALLVALUE EQ PUSH2 0x25F6 JUMP JUMPDEST PUSH2 0x26C1 PUSH2 0x26BC PUSH2 0x2336 CALLER PUSH1 0x99 PUSH2 0x9BA JUMP JUMPDEST PUSH2 0x2642 JUMP JUMPDEST PUSH2 0x271A PUSH1 0x1 PUSH2 0xE7E PUSH1 0x98 PUSH2 0x270A PUSH2 0x26E6 PUSH2 0xEDF PUSH1 0x2 PUSH2 0x26E0 CALLER DUP7 PUSH2 0x9BA JUMP JUMPDEST ADD PUSH2 0x81F JUMP JUMPDEST PUSH2 0x2704 DUP6 PUSH2 0x26F4 CALLER DUP7 PUSH2 0x9BA JUMP JUMPDEST ADD SWAP2 PUSH2 0x26FF DUP4 PUSH2 0x809 JUMP JUMPDEST PUSH2 0x2684 JUMP JUMPDEST SWAP1 PUSH2 0x17FE JUMP JUMPDEST PUSH2 0x2713 CALLER PUSH2 0x2C99 JUMP JUMPDEST CALLER SWAP1 PUSH2 0x9BA JUMP JUMPDEST PUSH32 0x9CB0084F66100232B6CDCEE6915499FBFB0CD080317C9488BD71880F8CDB91DC PUSH2 0x1C12 PUSH2 0x1C08 CALLER PUSH2 0x9B1 JUMP JUMPDEST ISZERO PUSH2 0x274E JUMPI JUMP JUMPDEST PUSH1 0x40 MLOAD PUSH3 0x461BCD PUSH1 0xE5 SHL DUP2 MSTORE PUSH1 0x20 PUSH1 0x4 DUP3 ADD MSTORE PUSH1 0x1B PUSH1 0x24 DUP3 ADD MSTORE PUSH32 0x50616765206D7573742062652067726561746572207468616E20300000000000 PUSH1 0x44 DUP3 ADD MSTORE PUSH1 0x64 SWAP1 REVERT JUMPDEST PUSH2 0x27A0 SWAP1 PUSH2 0xFFFF AND PUSH2 0xC14 JUMP JUMPDEST MUL SWAP1 PUSH2 0xFFFF DUP3 AND SWAP2 DUP3 SUB PUSH2 0xC2A JUMPI JUMP JUMPDEST ISZERO PUSH2 0x27B7 JUMPI JUMP JUMPDEST PUSH1 0x40 MLOAD PUSH3 0x461BCD PUSH1 0xE5 SHL DUP2 MSTORE PUSH1 0x20 PUSH1 0x4 DUP3 ADD MSTORE PUSH1 0x1B PUSH1 0x24 DUP3 ADD MSTORE PUSH32 0x5374617274206D757374206265206C657373207468616E20656E640000000000 PUSH1 0x44 DUP3 ADD MSTORE PUSH1 0x64 SWAP1 REVERT JUMPDEST SWAP2 SWAP1 PUSH1 0x9D SWAP3 PUSH2 0x280D PUSH2 0xEA2 PUSH1 0x9D SLOAD SWAP1 JUMP JUMPDEST SWAP2 PUSH2 0x2826 PUSH2 0x281B PUSH1 0x0 PUSH2 0xB8B JUMP JUMPDEST PUSH2 0xFFFF DUP5 AND GT PUSH2 0x2747 JUMP JUMPDEST PUSH2 0x284F PUSH2 0x2848 DUP3 PUSH2 0x2843 PUSH1 0x1 SWAP6 PUSH2 0x283D PUSH1 0x1 PUSH2 0xB8B JUMP JUMPDEST SWAP1 PUSH2 0xC0B JUMP JUMPDEST PUSH2 0x2793 JUMP JUMPDEST SWAP2 DUP3 PUSH2 0x221F JUMP JUMPDEST SWAP5 DUP6 PUSH2 0x285E PUSH2 0xFFFF DUP7 AND PUSH2 0xC14 JUMP JUMPDEST GT PUSH2 0x28D6 JUMPI JUMPDEST PUSH2 0x2877 PUSH2 0xFFFF DUP8 AND PUSH2 0xFFFF DUP5 AND LT PUSH2 0x27B0 JUMP JUMPDEST PUSH2 0x2887 PUSH2 0xEE4 PUSH2 0xEDF DUP5 DUP10 PUSH2 0xC0B JUMP JUMPDEST SWAP6 DUP3 DUP5 JUMPDEST PUSH2 0x2899 JUMPI JUMPDEST POP POP POP POP POP SWAP2 SWAP1 JUMP JUMPDEST PUSH2 0xFFFF DUP3 AND PUSH2 0xFFFF DUP3 AND LT ISZERO PUSH2 0x28D1 JUMPI DUP1 PUSH2 0xF47 PUSH2 0xF41 PUSH2 0x28BD PUSH2 0x28CB SWAP5 DUP8 PUSH2 0xAE9 JUMP JUMPDEST POP PUSH2 0xF28 PUSH2 0xF22 DUP10 DUP7 PUSH2 0xC0B JUMP JUMPDEST DUP5 PUSH2 0x288B JUMP JUMPDEST PUSH2 0x2890 JUMP JUMPDEST SWAP5 POP DUP3 SWAP5 PUSH2 0x2864 JUMP JUMPDEST PUSH2 0x18B PUSH1 0x0 PUSH2 0x10C7 JUMP JUMPDEST ISZERO PUSH2 0x28F0 JUMPI JUMP JUMPDEST PUSH1 0x40 MLOAD PUSH3 0x461BCD PUSH1 0xE5 SHL DUP2 MSTORE PUSH1 0x20 PUSH1 0x4 DUP3 ADD MSTORE PUSH1 0x39 PUSH1 0x24 DUP3 ADD MSTORE PUSH32 0x596F75206D757374207061792031302C2032352C206F72203530205445412074 PUSH1 0x44 DUP3 ADD MSTORE PUSH32 0x6F20696E63726561736520746865206D756C7469706C69657200000000000000 PUSH1 0x64 DUP3 ADD MSTORE PUSH1 0x84 SWAP1 REVERT JUMPDEST PUSH2 0x296C PUSH8 0x8AC7230489E80000 PUSH2 0xF82 JUMP JUMPDEST CALLVALUE EQ DUP1 DUP2 ISZERO PUSH2 0x2A2D JUMPI JUMPDEST DUP1 ISZERO PUSH2 0x2A0E JUMPI JUMPDEST PUSH2 0x2986 SWAP1 PUSH2 0x28E9 JUMP JUMPDEST PUSH2 0x2997 PUSH2 0x26BC PUSH2 0x2336 CALLER PUSH1 0x99 PUSH2 0x9BA JUMP JUMPDEST ISZERO PUSH2 0x29C4 JUMPI PUSH2 0x166 PUSH2 0x29A9 PUSH1 0xA PUSH2 0xB8B JUMP JUMPDEST PUSH2 0x2566 PUSH1 0x2 PUSH2 0x29B9 CALLER PUSH1 0x98 PUSH2 0x9BA JUMP JUMPDEST ADD SWAP2 PUSH2 0x2561 DUP4 PUSH2 0x81F JUMP JUMPDEST PUSH2 0x29D6 PUSH9 0x15AF1D78B58C40000 PUSH2 0xF82 JUMP JUMPDEST CALLVALUE SUB PUSH2 0x29E9 JUMPI PUSH2 0x166 PUSH2 0x29A9 PUSH1 0x19 PUSH2 0xB8B JUMP JUMPDEST PUSH2 0x29FB PUSH9 0x2B5E3AF16B1880000 PUSH2 0xF82 JUMP JUMPDEST CALLVALUE SUB PUSH2 0x166 JUMPI PUSH2 0x166 PUSH2 0x29A9 PUSH1 0x32 PUSH2 0xB8B JUMP JUMPDEST POP PUSH2 0x2986 PUSH2 0x2A24 PUSH9 0x2B5E3AF16B1880000 PUSH2 0xF82 JUMP JUMPDEST CALLVALUE EQ SWAP1 POP PUSH2 0x297D JUMP JUMPDEST POP PUSH2 0x2A40 PUSH9 0x15AF1D78B58C40000 PUSH2 0xF82 JUMP JUMPDEST CALLVALUE EQ PUSH2 0x2976 JUMP JUMPDEST PUSH2 0x166 SWAP1 PUSH2 0x2A53 PUSH2 0x2AA2 JUMP JUMPDEST PUSH1 0x0 PUSH2 0x2A5E DUP2 PUSH2 0x25D3 JUMP JUMPDEST PUSH2 0x2A67 DUP2 PUSH2 0x5B9 JUMP JUMPDEST PUSH2 0x2A70 DUP5 PUSH2 0x5B9 JUMP JUMPDEST EQ PUSH2 0x2A80 JUMPI POP POP PUSH2 0x166 SWAP1 PUSH2 0x2AE4 JUMP JUMPDEST PUSH4 0x1E4FBDF7 PUSH1 0xE0 SHL DUP3 MSTORE DUP2 SWAP1 PUSH2 0xBF1 SWAP1 PUSH1 0x4 DUP4 ADD PUSH2 0x5EE JUMP JUMPDEST PUSH2 0x166 SWAP1 PUSH2 0x2A47 JUMP JUMPDEST PUSH2 0x2AAA PUSH2 0x28DF JUMP JUMPDEST CALLER SWAP1 PUSH2 0x2ABE PUSH2 0x2AB8 DUP4 PUSH2 0x5B9 JUMP JUMPDEST SWAP2 PUSH2 0x5B9 JUMP JUMPDEST SUB PUSH2 0x2AC6 JUMPI POP JUMP JUMPDEST PUSH4 0x118CDAA7 PUSH1 0xE0 SHL PUSH1 0x0 SWAP1 DUP2 MSTORE SWAP1 PUSH2 0x2ADF SWAP1 PUSH1 0x4 PUSH2 0x5EE JUMP JUMPDEST SUB PUSH1 0x0 REVERT JUMPDEST PUSH2 0x2B0A PUSH2 0x2B04 PUSH2 0x2AF4 PUSH1 0x0 PUSH2 0x10C7 JUMP JUMPDEST PUSH2 0x2AFF DUP5 PUSH1 0x0 PUSH2 0x2268 JUMP JUMPDEST PUSH2 0x9B1 JUMP JUMPDEST SWAP2 PUSH2 0x9B1 JUMP JUMPDEST SWAP1 PUSH32 0x8BE0079C531659141344CD1FD0A4F28419497F9722A3DAAFE3B4186F6B6457E0 PUSH2 0x2B35 PUSH1 0x40 MLOAD SWAP1 JUMP JUMPDEST PUSH1 0x0 SWAP1 LOG3 JUMP JUMPDEST PUSH2 0x18B SWAP2 PUSH2 0x1015 JUMP JUMPDEST SWAP2 SWAP1 PUSH2 0x1639 JUMPI PUSH2 0x166 SWAP2 PUSH2 0x186D JUMP JUMPDEST DUP1 ISZERO PUSH2 0xC2A JUMPI PUSH1 0x0 NOT ADD SWAP1 JUMP JUMPDEST SWAP1 DUP1 DUP3 EQ PUSH2 0x2C30 JUMPI PUSH2 0x2B71 DUP2 PUSH2 0x100B JUMP JUMPDEST SWAP1 PUSH8 0xFFFFFFFFFFFFFFFF DUP3 GT PUSH2 0x3BE JUMPI PUSH2 0x2B8F DUP3 PUSH2 0x174A DUP6 SLOAD PUSH2 0x729 JUMP JUMPDEST PUSH1 0x0 SWAP1 PUSH1 0x1F DUP4 GT PUSH1 0x1 EQ PUSH2 0x2BBC JUMPI PUSH2 0x146E SWAP3 SWAP2 PUSH1 0x0 SWAP2 DUP4 PUSH2 0x2BB1 JUMPI POP POP PUSH2 0x149D JUMP JUMPDEST ADD SLOAD SWAP1 POP CODESIZE DUP1 PUSH2 0x176C JUMP JUMPDEST SWAP1 PUSH2 0x2BD1 PUSH1 0x1F NOT DUP5 AND SWAP3 PUSH1 0x0 MSTORE PUSH1 0x20 PUSH1 0x0 KECCAK256 SWAP1 JUMP JUMPDEST SWAP1 PUSH2 0x2BE1 DUP6 PUSH1 0x0 MSTORE PUSH1 0x20 PUSH1 0x0 KECCAK256 SWAP1 JUMP JUMPDEST SWAP3 DUP2 JUMPDEST DUP2 DUP2 LT PUSH2 0x2C18 JUMPI POP SWAP2 PUSH1 0x2 SWAP4 SWAP2 DUP6 PUSH1 0x1 SWAP7 SWAP5 LT PUSH2 0x2C04 JUMPI POP POP POP MUL ADD SWAP1 SSTORE JUMP JUMPDEST ADD SLOAD PUSH1 0x0 NOT PUSH1 0x8 PUSH1 0x1F DUP6 AND MUL SHR NOT AND PUSH2 0x17C8 JUMP JUMPDEST SWAP2 SWAP4 PUSH1 0x1 DUP1 PUSH1 0x20 SWAP3 DUP8 DUP8 ADD SLOAD DUP2 SSTORE ADD SWAP6 ADD SWAP3 ADD PUSH2 0x2BE4 JUMP JUMPDEST POP POP JUMP JUMPDEST SWAP1 PUSH2 0x166 SWAP2 PUSH2 0x2B60 JUMP JUMPDEST SWAP1 DUP1 DUP3 SUB PUSH2 0x2C4A JUMPI POP POP JUMP JUMPDEST PUSH2 0x166 SWAP2 PUSH2 0x18C7 SWAP1 PUSH1 0x2 SWAP1 DUP2 SWAP1 PUSH2 0x2C61 DUP6 DUP3 PUSH2 0x2C34 JUMP JUMPDEST PUSH2 0x2C70 PUSH2 0x189B PUSH1 0x1 DUP8 ADD PUSH2 0x809 JUMP JUMPDEST ADD SWAP3 ADD PUSH2 0x2C85 PUSH2 0x2C7F DUP3 PUSH2 0x81F JUMP JUMPDEST DUP5 PUSH2 0x1830 JUMP JUMPDEST PUSH2 0x835 JUMP JUMPDEST SWAP2 SWAP1 PUSH2 0x1639 JUMPI PUSH2 0x166 SWAP2 PUSH2 0x2C3E JUMP JUMPDEST PUSH2 0x2CA7 PUSH2 0x2CAC SWAP2 PUSH1 0x98 PUSH2 0x9BA JUMP JUMPDEST PUSH2 0xE0B JUMP JUMPDEST PUSH1 0x0 SWAP1 PUSH2 0x2CB9 PUSH1 0x0 PUSH2 0xF82 JUMP JUMPDEST PUSH2 0x2CC3 PUSH1 0x32 PUSH2 0xF82 JUMP JUMPDEST DUP2 LT ISZERO PUSH2 0x2D52 JUMPI PUSH1 0x2 DUP4 PUSH2 0x2CD7 DUP4 DUP4 PUSH2 0x6F8 JUMP JUMPDEST POP ADD PUSH2 0x2CF5 PUSH2 0x2CE5 PUSH1 0x40 MLOAD SWAP1 JUMP JUMPDEST DUP1 SWAP3 PUSH2 0x237B PUSH1 0x20 DUP4 ADD SWAP2 DUP3 PUSH2 0x2B3B JUMP JUMPDEST PUSH2 0x2D00 PUSH2 0x2392 DUP3 MLOAD SWAP1 JUMP JUMPDEST KECCAK256 PUSH2 0x2D27 PUSH2 0xFEE DUP7 DUP7 ADD MLOAD PUSH2 0x23CB PUSH2 0x2D17 PUSH1 0x40 MLOAD SWAP1 JUMP JUMPDEST DUP1 SWAP3 PUSH2 0x237B PUSH1 0x20 DUP4 ADD SWAP2 DUP3 PUSH2 0x217E JUMP JUMPDEST EQ PUSH2 0x2D35 JUMPI POP PUSH1 0x1 ADD PUSH2 0x2CB9 JUMP JUMPDEST PUSH2 0x2D4A SWAP4 POP SWAP1 PUSH2 0x2D44 SWAP2 PUSH2 0x6F8 JUMP JUMPDEST SWAP1 PUSH2 0x2B44 JUMP JUMPDEST PUSH2 0x166 PUSH2 0x2E11 JUMP JUMPDEST POP SWAP1 POP PUSH2 0x2D5F PUSH1 0x0 PUSH2 0xF82 JUMP JUMPDEST SWAP2 JUMPDEST PUSH2 0x2D6B PUSH1 0x32 PUSH2 0xF82 JUMP JUMPDEST DUP4 LT ISZERO PUSH2 0x2E0C JUMPI PUSH1 0x2 SWAP3 PUSH2 0x2D8B PUSH1 0x1 PUSH2 0x2D84 DUP4 DUP8 PUSH2 0x6F8 JUMP JUMPDEST POP ADD PUSH2 0x809 JUMP JUMPDEST PUSH2 0x2D9C PUSH2 0xFEE PUSH2 0x18B PUSH1 0x20 DUP8 ADD MLOAD SWAP1 JUMP JUMPDEST LT PUSH2 0x2DAB JUMPI PUSH1 0x1 ADD SWAP3 POP PUSH2 0x2D61 JUMP JUMPDEST SWAP2 PUSH2 0x2DB6 PUSH1 0x31 PUSH2 0xF82 JUMP JUMPDEST DUP4 DUP2 GT ISZERO PUSH2 0x2DFC JUMPI PUSH2 0x2DF7 SWAP1 PUSH2 0x2DF2 PUSH2 0x2DE1 PUSH2 0x2DDB PUSH2 0x2DD5 PUSH1 0x1 PUSH2 0xF82 JUMP JUMPDEST DUP5 PUSH2 0xF75 JUMP JUMPDEST DUP9 PUSH2 0x6F8 JUMP JUMPDEST POP PUSH2 0x2DEC DUP4 DUP10 PUSH2 0x6F8 JUMP JUMPDEST SWAP1 PUSH2 0x2C8A JUMP JUMPDEST PUSH2 0x2B53 JUMP JUMPDEST PUSH2 0x2DB6 JUMP JUMPDEST POP SWAP1 SWAP3 PUSH2 0x166 SWAP3 PUSH2 0x2D44 SWAP2 PUSH2 0x6F8 JUMP JUMPDEST SWAP2 POP POP JUMP JUMPDEST PUSH2 0x2E1B PUSH1 0x0 PUSH2 0xF82 JUMP JUMPDEST PUSH1 0x32 PUSH2 0x2E26 DUP2 PUSH2 0xF82 JUMP JUMPDEST DUP3 LT ISZERO PUSH2 0x2C30 JUMPI PUSH1 0x1 SWAP1 DUP2 PUSH2 0x2E43 PUSH2 0x2E3D DUP3 PUSH2 0xF82 JUMP JUMPDEST DUP6 PUSH2 0x2684 JUMP JUMPDEST SWAP1 JUMPDEST PUSH2 0x2E5C JUMPI JUMPDEST POP POP POP PUSH2 0x2E57 SWAP1 PUSH1 0x1 ADD SWAP1 JUMP JUMPDEST PUSH2 0x2E1B JUMP JUMPDEST PUSH2 0x2E65 DUP3 PUSH2 0xF82 JUMP JUMPDEST DUP2 LT ISZERO PUSH2 0x2EE9 JUMPI SWAP1 PUSH2 0x2EA3 DUP4 SWAP3 PUSH1 0x2 PUSH2 0x2E82 DUP6 PUSH2 0x2D84 DUP5 DUP5 PUSH2 0x6F8 JUMP JUMPDEST PUSH2 0x2E96 PUSH2 0xFEE PUSH2 0x18B DUP9 PUSH2 0x2D84 DUP13 DUP8 PUSH2 0x6F8 JUMP JUMPDEST GT PUSH2 0x2EAA JUMPI JUMPDEST POP PUSH1 0x1 ADD SWAP1 JUMP JUMPDEST SWAP1 SWAP2 PUSH2 0x2E45 JUMP JUMPDEST DUP1 PUSH2 0x2D44 DUP4 PUSH2 0x2EC5 PUSH2 0x2EBF DUP12 PUSH2 0x2EE3 SWAP7 PUSH2 0x6F8 JUMP JUMPDEST POP PUSH2 0xE0B JUMP JUMPDEST SWAP3 PUSH2 0x2EDE PUSH2 0x2ED3 DUP4 DUP4 PUSH2 0x6F8 JUMP JUMPDEST POP PUSH2 0x2DEC DUP14 DUP5 PUSH2 0x6F8 JUMP JUMPDEST PUSH2 0x6F8 JUMP JUMPDEST CODESIZE PUSH2 0x2E9C JUMP JUMPDEST PUSH2 0x2E4A JUMP INVALID LOG2 PUSH5 0x6970667358 0x22 SLT KECCAK256 0xCF SWAP3 0xC3 CHAINID 0x4E PUSH23 0xD81C66FB91DD140BE53706790DF99CDDF73CC563CAE264 0xDF 0xD7 MCOPY PUSH5 0x736F6C6343 STOP ADDMOD SHR STOP CALLER "
        },
        "methodIdentifiers": {
          "click()": "7d55923d",
          "getAddressByUsername(string)": "6322961d",
          "getLeaderboard()": "6d763a6e",
          "getRegisteredStatusByAddress(address)": "9c440e09",
          "getRegisteredStatusByUsername(string)": "9201107d",
          "getWithdrawalHistory(uint16,uint16)": "8bef3e75",
          "getWithdrawalHistory2(uint16,uint16)": "1682d257",
          "increaseMultiplier()": "9cbbd55b",
          "isUsernameTaken(string)": "176c5919",
          "lastWithdraw()": "b52eea74",
          "owner()": "8da5cb5b",
          "register(string,string)": "3ffbd47f",
          "renounceOwnership()": "715018a6",
          "top50Users(uint256)": "71a726ca",
          "totalUsers()": "bff1f9e1",
          "transferOwnership(address)": "f2fde38b",
          "users(address)": "a87430ba",
          "withdraw()": "3ccfd60b",
          "withdrawalHistory(uint256)": "d800b9bd"
        }
      }
    }
  }
}